:020000040000fa
:080000000002040000000000f2
:020000040000fa
:04000800ce06000020
:020000040000fa
:04000c00ce0600001c
:020000040000fa
:04001000ce06000018
:020000040000fa
:04001400ce06000014
:020000040000fa
:04001800ce06000010
:020000040000fa
:04001c00ce0600000c
:020000040000fa
:04002000ce06000008
:020000040000fa
:04002400ce06000004
:020000040000fa
:04002800ce06000000
:020000040000fa
:04002c00ce060000fc
:020000040000fa
:04003000ce060000f8
:020000040000fa
:040034005e05000065
:020000040000fa
:04003800ce060000f0
:020000040000fa
:04003c00ce060000ec
:020000040000fa
:04004000ce060000e8
:020000040000fa
:04004400ce060000e4
:020000040000fa
:04004800ce060000e0
:020000040000fa
:04004c00ce060000dc
:020000040000fa
:04005000ac030000fd
:020000040000fa
:040054001011000087
:020000040000fa
:04005800a6040000fa
:020000040000fa
:04005c00ce060000cc
:020000040000fa
:04006000ce060000c8
:020000040000fa
:04006400ce060000c4
:020000040000fa
:04006800ce060000c0
:020000040000fa
:04006c00ce060000bc
:020000040000fa
:04007000ce060000b8
:020000040000fa
:04007400ce060000b4
:020000040000fa
:04007800ce060000b0
:020000040000fa
:04007c00ce060000ac
:020000040000fa
:04008000ce060000a8
:020000040000fa
:04008400ce060000a4
:020000040000fa
:04008800ce060000a0
:020000040000fa
:04008c00ce0600009c
:020000040000fa
:04009000ce06000098
:020000040000fa
:04009400ce06000094
:020000040000fa
:040098003e3a0000ec
:020000040000fa
:04009c00ce0600008c
:020000040000fa
:0400a000ce06000088
:020000040000fa
:0400a400ce06000084
:020000040000fa
:0400a800ce06000080
:020000040000fa
:0400ac00ce0600007c
:020000040000fa
:0400b000ce06000078
:020000040000fa
:0400b400ce06000074
:020000040000fa
:0400b800ce06000070
:020000040000fa
:0400bc00ce0600006c
:020000040000fa
:0400c000ce06000068
:020000040000fa
:0400c400ce06000064
:020000040000fa
:0400c800ce06000060
:020000040000fa
:0400cc00ce0600005c
:020000040000fa
:0400d000ce06000058
:020000040000fa
:0400d400ce06000054
:020000040000fa
:0400d800ce06000050
:020000040000fa
:0400dc00ce0600004c
:020000040000fa
:0400e000ce06000048
:020000040000fa
:0400e400ce06000044
:020000040000fa
:0400e800ce06000040
:020000040000fa
:0400ec00ce0600003c
:020000040000fa
:0400f000e00200002a
:020000040000fa
:0400f400ce06000034
:020000040000fa
:0400f800ce06000030
:020000040000fa
:0400fc00ce0600002c
:020000040000fa
:04010000ce06000027
:020000040000fa
:04010400ce06000023
:020000040000fa
:04010800ce0600001f
:020000040000fa
:04010c00ce0600001b
:020000040000fa
:04011000ce06000017
:020000040000fa
:04011400ce06000013
:020000040000fa
:04011800ce0600000f
:020000040000fa
:04011c00ce0600000b
:020000040000fa
:04012000ce06000007
:020000040000fa
:04012400ce06000003
:020000040000fa
:04012800ce060000ff
:020000040000fa
:04012c00ce060000fb
:020000040000fa
:04013000ce060000f7
:020000040000fa
:04013400ce060000f3
:020000040000fa
:04013800ce060000ef
:020000040000fa
:04013c00ce060000eb
:020000040000fa
:04014000ce060000e7
:020000040000fa
:04014400ce060000e3
:020000040000fa
:04014800ce060000df
:020000040000fa
:04014c00ce060000db
:020000040000fa
:04015000ce060000d7
:020000040000fa
:04015400ce060000d3
:020000040000fa
:04015800ce060000cf
:020000040000fa
:04015c00ce060000cb
:020000040000fa
:04016000ce060000c7
:020000040000fa
:04016400ce060000c3
:020000040000fa
:04016800ce060000bf
:020000040000fa
:04016c00ce060000bb
:020000040000fa
:04017000ce060000b7
:020000040000fa
:04017400ce060000b3
:020000040000fa
:04017800ce060000af
:020000040000fa
:04017c00ce060000ab
:020000040000fa
:04018000ce060000a7
:020000040000fa
:04018400ce060000a3
:020000040000fa
:04018800be3f000076
:020000040000fa
:04018c000205000068
:020000040000fa
:04019000ce06000097
:020000040000fa
:04019400ce06000093
:020000040000fa
:04019800ce0600008f
:020000040000fa
:04019c00ce0600008b
:020000040000fa
:0401a000ce06000087
:020000040000fa
:0401a400ce06000083
:020000040000fa
:0401a800ce0600007f
:020000040000fa
:0401ac00ce0600007b
:020000040000fa
:0401b000ce06000077
:020000040000fa
:0401b400ce06000073
:020000040000fa
:0401b800ce0600006f
:020000040000fa
:0401bc00ce0600006b
:020000040000fa
:0401c000ce06000067
:020000040000fa
:0401c400ce06000063
:020000040000fa
:0401c800ce0600005f
:020000040000fa
:0401cc00ce0600005b
:020000040000fa
:0401d000ce06000057
:020000040000fa
:0401d400ce06000053
:020000040000fa
:0401d800ce0600004f
:020000040000fa
:0401dc00ce0600004b
:020000040000fa
:0401e000ce06000047
:020000040000fa
:0401e400ce06000043
:020000040000fa
:0401e800ce0600003f
:020000040000fa
:0401ec00ce0600003b
:020000040000fa
:0401f000ce06000037
:020000040000fa
:0401f400ce06000033
:020000040000fa
:0401f800ce0600002f
:020000040000fa
:0401fc00ce0600002b
:020000040000fa
:04020000ce06000026
:020000040000fa
:04020400ce06000022
:020000040000fa
:04020800ce0600001e
:020000040000fa
:04020c00ce0600001a
:020000040000fa
:04021000ce06000016
:020000040000fa
:04021400ce06000012
:020000040000fa
:04021800ce0600000e
:020000040000fa
:04021c00ce0600000a
:020000040000fa
:04022000ce06000006
:020000040000fa
:04022400ce06000002
:020000040000fa
:04022800ce060000fe
:020000040000fa
:04022c00ce060000fa
:020000040000fa
:04023000ce060000f6
:020000040000fa
:04023400ce060000f2
:020000040000fa
:04023800ce060000ee
:020000040000fa
:04023c00ce060000ea
:020000040000fa
:04024000ce060000e6
:020000040000fa
:04024400ce060000e2
:020000040000fa
:04024800ce060000de
:020000040000fa
:04024c00ce060000da
:020000040000fa
:04025000ce060000d6
:020000040000fa
:04025400ce060000d2
:020000040000fa
:04025800ce060000ce
:020000040000fa
:04025c00ce060000ca
:020000040000fa
:04026000ce060000c6
:020000040000fa
:04026400ce060000c2
:020000040000fa
:10040000af6922000eff27000e01880000000000e7
:10041000000020000000e000020032000001200087
:10042000200288000c000700e0f3230001002000f8
:100430000f000700000020000000e0000200320072
:1004400000000200000000001a0602000000000088
:100450000040da000000fe00203320000000e00031
:1004600002003200002020009001880000000600f9
:10047000a1028800800078000000eb001a0037001d
:10048000e280400054a0b4009101ba00e280400034
:1004900054a0b4009102ba00e280400054a0b4001d
:1004a0000002eb00472bde00f507b200a601880032
:1004b000602ce10008003a000049eb000201e8006e
:1004c000020039003420ec0002f0a0008301e900b2
:1004d000f9ff3e00040037006128e100010032000e
:1004e0000082eb000b00070011c3ba001101ba0033
:1004f0000604e00003003a000200e000e0ff3a00da
:1005000000000600f607b200a6028800820078000c
:10051000f5ff370004d0a300e20f49001c003900aa
:10052000810278003549ba000201e8000200390072
:100530003420ec0002f0a0008301e9000f0032003b
:100540002549ba000201e800020039003420ec001d
:1005500002f0a0008301e900080032000400e0007e
:100560000600320015c9ba000201e8000200390095
:100570003420ec0002f0a0008301e9008180e80053
:1005800054a0b4000300e000e2ff3a0000000600bf
:100590009102ba00055978008301e900f7ff3200a3
:1005a000c82ade00055978008301e900f3ff320014
:1005b0000400e000f1ff320011d9ba00eeff37006d
:1005c000809fbe003200f8003400f80010002000c8
:1005d000a001880000202000900188000000000099
:1005e0000648a9000030ec0011e1a8008034810029
:1005f0008000eb00eb0f5000e08f58004c003e00f5
:10060000000601004c0037000a00370013003700d5
:10061000190037001d003700210037002600370081
:100620002a0037002f00370033003700370037002b
:100630003b003700006ea800004ea80017e2a8009b
:1006400060ff2f001822b6001622a8008034810017
:100650000000e800803489003700370060ff2f0079
:100660001822b6001642a800803481000000e8007d
:10067000803489003000370060ff2f001822b60058
:100680000000eb00803489002b0037001602a80020
:10069000803481000000e8008034890026003700a3
:1006a000c003200090108800803481000000e80022
:1006b00080348900200037001222ef00803481004e
:1006c0000000e800803489001b003700800720000c
:1006d00090108800803481000000e8008034890098
:1006e000150037001222ef00803481000000e8007e
:1006f00080348900100037001222ef00803481001e
:100700000000e800803489000b0037001642a80082
:10071000803481000000e800803489000600370042
:100720000000eb009034890080348900020037001b
:100730000000eb00803489000030ed000010e20082
:1007400001003a0011e1a9003400f9003200f9007b
:100750004f00be000040060000a0fe003600f8007a
:10076000849fbe00869fbe003200f8003400f8006f
:1007700014002000a40188000420200094018800b7
:10078000000000000148a9000030ec0011e1a800c1
:10079000a0348100e30f50002600320004003e0028
:1007a000e10f50000a00320015003e005c003700e7
:1007b000e50f5000390032002b003900e60f5000e1
:1007c00043003200e70f500053003a004d0037005d
:1007d000448ea80000e62a00a1002000f23f02009b
:1007e00000000000448ea90000b8260040128800d6
:1007f000a03481000000e800a034890048003700e0
:10080000448ea8000064210001042000f23f020091
:1008100000000000448ea9004012800010b02600a5
:1008200040128800a03481000000e800a034890054
:100830003b003700448ea80000e62a00a1002000fb
:10084000f23f020000000000448ea9004012800028
:1008500000a1260040128800a03481000000e800ba
:10086000a03489002e003700448ea80000e62a003c
:10087000a1002000f23f020000000000448ea90009
:10088000401280004090210040128800a034810076
:100890000000e800a034890021003700448ea80041
:1008a00000e62a00a1002000f23f02000000000044
:1008b000448ea9004012800030a021004012880020
:1008c000a03481000000e800a03489001400370043
:1008d000448ea80000e62a00a1002000f23f02009a
:1008e00000000000448ea9004012800080b021006a
:1008f00040128800a03481000000e800a034890084
:1009000007003700448ea800401280000000eb0072
:10091000a0348900020037000000eb00a0348900f9
:100920000030ed000010e20001003a0011e1a900e2
:100930003400f9003200f9004f03be004f02be0040
:100940003600f9000080fe0000400600809fbe00d7
:10095000829fbe00849fbe00861f78003200f80090
:100960003400f80010002000a001880000202000c2
:1009700090018800000000000188a9000030ec0010
:1009800011e1a8002322ab0013003a00b22d810030
:10099000c02d8100800f51000f003200805b2200cb
:1009a000e5f72f0080824200f4072000032020009a
:1009b000908042009180fb00211188009000e800a7
:1009c00004886000161180008680610002003a00f1
:1009d000900f1100f6ff3a000030ed000010e20029
:1009e00001003a0011e1a9003400f9003200f900d9
:1009f0004f0378004f02be004f01be004f00be0003
:100a000000400600809fbe00829fbe00849fbe0003
:100a1000861f78003200f8003400f8001000200033
:100a2000a001880000202000900188000000000044
:100a30000b28a9000030ec0011e1a800b322ab00a4
:100a400013003a00d2318100e0318100800f510063
:100a50000f003200c0632200e5f72f0080824200c1
:100a6000f407200003202000908042009180fb00ca
:100a7000a11588009000e8000488600096158000a9
:100a80008680610002003a00900f1100f6ff3a00e4
:100a90000030ed000010e20001003a0011e1a90071
:100aa0003400f9003200f9004f0378004f02be0015
:100ab0004f01be004f00be00004006003600f800a7
:100ac000809fbe00829fbe00849fbe00869fbe00a6
:100ad000881f78003200f8003400f8001000200071
:100ae000a001880000202000900188000000000084
:100af0000030ec0011e1a8000068a9000230ec0011
:100b000004cea800503481000000e00006003a0046
:100b1000603481000010a0006034890010002000c3
:100b200050348900070037000000e8005034890085
:100b300021032000810f500002003a00a06822002b
:100b40000008eb00300880003180800081005000f8
:100b500021808800308088000000eb005a350200b8
:100b6000000000000068a9000068ab00030032002c
:100b70000230ed000030ed002500370042a0a80053
:100b800042c0a900703481000018a30003003200a5
:100b90000230ed000030ed001d00370060348100b0
:100ba0000018a30010003200703481000010a00073
:100bb0007034890018002000603481000010a1000a
:100bc00060348900080078005a35020000000000f7
:100bd000603481000018a300f7ff3a0070348100f0
:100be0000010a1007034890042c0a80042a0a900f2
:100bf0000230ed000210e20001003a0004cea9002c
:100c00000030ed000010e20001003a0011e1a900ff
:100c10003400f9003200f9004f0478004f03be00a1
:100c20004f02be004f01be004f00be003600f9006b
:100c3000004006004387ab001600320043c7ab00fc
:100c400014003a00a10920000001eb0080072000f9
:100c50003374200080497800814978008249780007
:100c60007105200012002000600420002374200081
:100c700080497800814978008249780000000000ae
:100c80000000000000002700123a8000820060008f
:100c9000fdff3a00300f2000303a8800510020005c
:100ca000213a8800a209200033002000800720009c
:100cb00034742000004a7800024a7800034a780021
:100cc000720520001300200060042000247420001e
:100cd000004a7800024a7800034a7800f0fb2f00af
:100ce0007070880032fe2f0072728800320520007a
:100cf00042368800d2012000023488005134880036
:100d000001602000f134880000708800e0ff2f00af
:100d100080718800b0fe2f0000728800f0ff27006d
:100d2000007388000100270000002300133a8000b0
:100d300003816000800f5100fcff3a000002200098
:100d4000123a800082006000fdff320010c0b30044
:100d50006a350200000000000042800000c0a100cf
:100d600000d0a00000e0a100004288000068a900b7
:100d70002068a80080ab2200100888000ca1ef00ba
:100d8000000220008008880070ab22000008880064
:100d90000002280020088800ffff37000040da002a
:100da0000000fe006900e100040035006d00e10074
:100db000030034000002b100010032000000050011
:100dc0001000050003f0a200889fbe008a9fbe00ad
:100dd0008c1f78001b010700220133006450e100e2
:100de0004f0032006420e1005200320003826c00a8
:100df00007003b000905d0000306d000820f540015
:100e00000c065d0002003900020032008901780002
:100e1000030678008582550004003d000003fd00b4
:100e20008103fd008502ea008b854200840f720079
:100e300002003b0060001000e08018006011b80064
:100e40000005eb007a28e1000a003900060078006e
:100e5000c75ddd00f707b200878075002d00370001
:100e6000828171000a017800610560008180d100f3
:100e70000080d3008502e900f9ff3b000604400032
:100e80008784480002003b0060041400e0841c00da
:100e90000988a300070032008a81710082817100f5
:100ea000610164008904d1000884d3008b05e80047
:100eb000170037000978a30013003a000b00e00088
:100ec000130034008b05e9000804440089844c00b9
:100ed0000a4474000978a3000d003a000b00e000fa
:100ee000070034008b05e9000804440089844c00a5
:100ef00001003a000b0020000978a300f7ff320040
:100f00000001eb0002003700828171000a017800c5
:100f1000910007000cf0a70001f0a000da003700f4
:100f20006420e10002003a00838f6c00da00330095
:100f30000801be000200be00d3003700889fbe003b
:100f40008a9fbe008c1f7800be000700c5003300da
:100f500003866c006450e1002e0032006420e10042
:100f6000330032006150e1002f0032006120e100c7
:100f70003100320085855500eb07b00009002000e4
:100f800008042000050037000804440089844c0050
:100f90000a0031000603430087834b000001530021
:100fa00081815b00f8ff33000203be000800a0004f
:100fb0000804440089844c00f6ff3900c639dd007e
:100fc0008301730001003200130020008904d10066
:100fd0000884d3000998a300050032000800a70088
:100fe0000300a0008904d1000884d3008b05e80029
:100ff0008904d1000884d3000001eb000281d200f3
:101000005500070001f0a1000cf0a70001f0a000be
:101010009d0037006420e1009f0032000801be00ff
:101020000200be00f7ff37006120e1009a003200a5
:101030006000b800f3ff37000000200001f827002f
:10104000f0ff370014002000450137000001be000a
:10105000670007000470a70003f0a1006509b10054
:10106000160032000d0035006828e100060035004a
:10107000f0ff2f00f1ff27000300e00013003b000a
:1010800001002800000005000000400081804800a9
:101090008502e900fcff3a0008003700f88f4200a3
:1010a00002003c008000eb00000005008100d10040
:1010b0000080d3008502e800fcff3a000300e00056
:1010c00002003b0060001000e080180000000600f5
:1010d0000001be00460007000470a70003f0a10055
:1010e00003f8a30013003a006509b10010003200b4
:1010f000090035006928e1000200350001002800e0
:101100000000050000004000818048008502e900e1
:10111000fcff3a0000000600f88f42000500350091
:101120008100d1000080d3008502e800fcff3a0076
:10113000000006008000eb00000005004f89de0083
:1011400082017800210137006011b8002f013700bb
:10115000040020000201370081002000618055005a
:101160000b003d000b00200061fe2f000100e1009c
:101170001d00340082817100610164008904d10086
:101180000884d3000000e800faff3a007100200054
:10119000610064000300700002006000090032007a
:1011a00061044400e0844c000988a5000500320079
:1011b0008b05e8006808e10002003a008904d100cc
:1011c0000884d300f20f20000258e10005003d0022
:1011d000c75ddd00f907b20089807500080078005e
:1011e000000006000bf827008b00780000000500c7
:1011f000c70ade00f107b200f50fb20008003200a6
:10120000e1cf4200020032000170a000240005007e
:10121000810f700001003200040805004400050041
:10122000810f700002003a00140005008502e900f9
:101230000000400081c04800fcff3b000170a0009e
:10124000240005000004be00e9ff07000003be0003
:101250000405be000200be00e5ff0700844f7500d4
:10126000000006000200be006450e10005003600e8
:101270006420e100020036000968a30001003a0082
:101280000800be000160a0004f0678004f05be00b8
:101290004f04be0000000600f0ff2f00f1ff270002
:1012a000f9ff3700889fbe008a9fbe008c1f780020
:1012b000e4ff0700ebff330003866c006450e1009d
:1012c000240032006420e100270032006150e10078
:1012d000220032006120e100210032008b854200b3
:1012e000eb07b1000134b800003ab800080442002e
:1012f00089844a00013ab8000030b8008880400074
:1013000009014a00040033000000400081804800c9
:10131000020149008b05e900c909dd008301700065
:101320000100320013002000c814de004814dd0064
:101330004709de001200b200c808de000884700011
:1013400085ff070001f0a1000cf0a70001f0a0004c
:10135000cdff37006120e100cfff32000801be0061
:101360000200be00f7ff37006150e100fcff3a00c9
:10137000c9ff37001400fa00889fbe008a9fbe0094
:101380008c9fbe000005be000206be00680047003c
:101390000c90be000a90be00310007006400e1001e
:1013a0001a00320016003e006100e1001a0032000f
:1013b0006e049000fe0490000e0b90009e0b9000b7
:1013c0006011b8009e0590000b38b100d5012000d7
:1013d00082817100610164008703d1000683d3001c
:1013e0008984d3000884d3008502e900f8ff3a001d
:1013f00059ff07000df0a70001f0a00053003700cf
:10140000f1ff2700f0ff2f005000370001f8270000
:1014100000002000f7ff37006000b800f5ff37003c
:101420006022b800060220000000d0008180d200b7
:101430000482d2008582d2000000a0000202520085
:1014400083825a00030031000202420083824a0074
:101450000000a1000603e900f3ff3a0000000600c7
:10146000800078005002be005003be004439de0008
:10147000f700b200f37f2000030161000900320091
:101480000218e10016003a00850172008301730022
:10149000838173000008200015003a0040002000fe
:1014a000130037008501720083017300838173008c
:1014b00005003a0004a8be0006a8be0010002000e7
:1014c0000b0037000201e9000402420085824a0055
:1014d00006034b0087834b000748a300f9ff320047
:1014e0000740a00004a8be0006a8be0020002000ff
:1014f00080009800920098000000060068044700f1
:101500000294be000094be00fc0447008694be0016
:101510008494be0009007800d1ff0700080078001d
:10152000cfff070099007800814f70000b003b004f
:101530000800be00640007004f00b1000300370040
:10154000f3ff2700f2ff2f006110b9004f06be0025
:101550004f05be004f04be000080fa0000000600e8
:10156000889fbe008a9fbe00841f780035ff070059
:101570004f00780011003300f0ff2f00838f6c00c4
:1015800006003b00040565000a00a70008003700bc
:1015900009f0a6001000200008003700820f540058
:1015a000838f5c00030039001000200001003e0022
:1015b0000000200009f0a7000000ea004f05be006f
:1015c0004f04be000000e00000000600881f780005
:1015d000030478000300e00007003d0060001000f5
:1015e000e080180060011900e081190002003b0052
:1015f00001f02d00030037000400070008f0a700e9
:1016000001f0a0004f04780000000600889fbe0093
:101610008a9fbe0000827000040271000482710083
:10162000260032000004be000200be006011b800b7
:101630006b092000950220000182cf000a003900ca
:101640000541b1000082cf00070039000541b1001b
:101650000982cf00040039000541b1000882cf00a3
:10166000010039000541b10005425200120032006c
:101670000a003b0082817100610164008100d10099
:101680000080d3008984d3000884d3008b05e80050
:101690000442e800f7ff3a0007003700080444005e
:1016a00089844c0000004800818048008b05e900d7
:1016b0000442e900f9ff3a00a7fe07004f05be000b
:1016c0004f04be0000000600e48240001078a30032
:1016d00007003200640240001178a3003400be000d
:1016e0001401be00040032000330a7000000060011
:1016f0003500be001501be000330a000000006004a
:10170000889fbe008a9fbe008c9fbe008e1f7800ff
:10171000010678000c00e00001003200000e7800a5
:1017200080047800090578008a047800b905fb0078
:101730000b0078009bfd07000000e000f9ff3a0075
:10174000d0022000808f550003003a000905780080
:1017500018c0b300050037000044eb00b0022000c1
:10176000808f550001003a00090578006000b8003c
:101770008004eb000007eb00010037000a05e800d9
:101780000a0178000848a30005003a00e3c2b3004c
:101790009acf110002003a000844a000f7ff37007a
:1017a0009a4578008b01fb000303b100e98f5100db
:1017b00016003e000814a0000801fb00e98f540049
:1017c0000e0032000248a300010032000e07e900bb
:1017d0008904e800a200200003002000e5000700c3
:1017e00002cdb30002c145000281fb008001eb0085
:1017f0000000410081804900e0ff37000248a3005b
:10180000deff3a000e07e800dcff370053c6b300e6
:1018100083cf5500040032008004eb0053c4b300b2
:1018200083cf55002d003a005a417800d3c2b3004f
:10183000834f510002003a000834a0000300370033
:10184000b3c2b300834f510001003a000a05e8001b
:101850000a017800020578003a42780003c3b30019
:10186000834f5200faff32008402fb000503b100ef
:101870008004eb00e98f520015003e0083445200c3
:101880008984fb000a017800124278008402fb0080
:101890000503b100e98f52000d003e00ea4bb9008c
:1018a000834452008984fb008684440052427800bd
:1018b0008402fb000503b100e98f520004003e00e2
:1018c000ea4bb900834152008381fb00830443004b
:1018d0000838a300010032008904ea000c00e0008f
:1018e000030032000818a30001003200020e780045
:1018f00012fe07000005be000006be006011b80021
:10190000d0fd0700000178006000b8000200e00090
:10191000580032008e84440032f82f00828f540029
:1019200003003d0022022000c2348900510037002c
:1019300000082000808f540007003400200220009f
:10194000c03489000808a3004500320000002000d0
:1019500001f82f00470037000900e0001b003d00a0
:101960008904ea0006003700922f20005301250069
:101970000a00be0071fd07000005be00ea845400a5
:10198000e98f5400f8ff3c000600370002002000f9
:10199000031224000a00be0068fd07000005be0017
:1019a0008904e9000900e000f8ff3a000a06be00d9
:1019b00002002000030820000a00be00a1fd07006d
:1019c0000000e00021003d001b0037000900e0009e
:1019d00007003a001d003700922f20005301250018
:1019e0000a00be002ffe07000005be00ea84540076
:1019f000e9cf5400f8ff3e00060037000200200047
:101a0000031224000a00be0026fe07000005be00e7
:101a10008904e9000900e000f8ff3a000a06be0068
:101a2000f2ff2f00f3f727000a00be004f00070067
:101a30000000e000050034000808a3000b0032009d
:101a400000002000010828000a0037000808a30051
:101a5000010032000df0a2000c00be0005003700ae
:101a60000000200001f827000200370000002000dd
:101a7000010820004f0778004f06be004f05be004a
:101a80004f04be00000006001dff37008000eb0081
:101a90001bff37008000780001007800304178009b
:101aa00003c2b300834f5100faff3200e94f5100e7
:101ab000f8ff3200edc14100834f510003003a00ae
:101ac0008000780013c0b300050037008041eb00b0
:101ad000b4c2b300844f510001003a008000780086
:101ae0000000eb0002003700ea00b90000004100ee
:101af0003101fb000203b100e90f5100faff36008b
:101b00000304e000010032000000ea0000000600cb
:101b10008001780002003700b15978000201e90025
:101b20000200e000fcff3a0000000600000178001f
:101b300002007800b041780081cf510003003200ec
:101b40000304e000f9ff3a000001eb000200780016
:101b500000000600800078003104e000feff3a003b
:101b60000080ea000080400000000600f4ff2f0023
:101b70007bfe3700020ab900001bb9000200b80062
:0c1b8000810042008100430000000600cc
:020000040000fa
:101b8c0050490000445f00004149000052530000de
:101b9c00504400005f500000005000004944000019
:101bac005f4100004952000053500000445f0000a8
:101bbc004900000050490000445f0000414900000a
:101bcc0052530000504400005f44000000500000dd
:101bdc00494400005f500000495400005f4600007b
:101bec004f5f00005000000050490000445f0000af
:101bfc0050490000545f0000464f00005f49000050
:101c0c0000500000494400005f500000495400009f
:101c1c005f4600004f5f0000440000005049000088
:101c2c00445f0000524f00004c4c00005f4300002a
:101c3c004f5f00005000000050490000445f00005e
:101c4c00524f00004c4c00005f4300004f5f0000ff
:101c5c004900000050490000445f0000524f000052
:101c6c004c4c00005f4300004f5f0000440000003c
:101c7c0050490000445f000048450000325000000d
:101c8c0049540000435f0000500000005049000020
:101c9c00445f0000484500003250000049540000e9
:101cac00435f00004900000050490000445f000001
:101cbc0048450000525200005f46000046000000fc
:101ccc0050490000445f000059410000575f00007c
:101cdc00444100005f5000000050000049440000e7
:101cec005f590000415700005f440000415f000055
:101cfc004900000050490000445f000059410000b9
:101d0c00575f0000444100005f44000000320000b7
:101d1c007c89000000ed0000d9680000770000000d
:101d2c00000000005900000000000000000000004e
:101d3c000000000000d600009fdc0000a818000086
:101d4c0017aa00009043000073270000f6b90000aa
:101d5c0068ed0000f4de0000d4090000fee600008f
:101d6c001c1c000084dd0000e80b00009929000019
:101d7c00274e000000000000000f000003000000d0
:101d8c00000000000000000099b70000333b000089
:101d9c007694000015000000f37c000000000000a9
:101dac00261400009e9800008f0000000000000028
:101dbc006a310000168f00008c05000096000000b0
:101dcc00e7b700003f3600000000000000000000f4
:101ddc000000000000af0000669e0000d03800003c
:101dec005d8a00006c200000b954000022ae000097
:101dfc007ced0000044c000080380000748600006c
:101e0c00edcb0000fa570000cbdc000019e200001b
:101e1c002e1d0000df55000006e50000cb01000080
:101e2c00c36d0000a8b500002f480000837f0000a0
:101e3c00006700009ab20000c8000000000000001b
:101e4c000000000000000000000000000000000086
:101e5c000000000000000000000000000000000076
:101e6c00004b000000a800000200000000e400008d
:101e7c00a70000008492000068000000002d000004
:101e8c007165000000050000f600000011bb0000a9
:101e9c00a03300003b810000270000000000000080
:101eac000000000000000000000000000000000026
:101ebc000000000000000000000000000000000016
:101ecc000000000000000000000000000000000006
:101edc0000000000000000000000000000000000f6
:101eec0000000000000000000000000000000000e6
:101efc005a680000555f000082b80000000800001e
:101f0c00cc310000aa2c0000532e00000000000071
:101f1c00327c000089000000edd9000068770000d9
:101f2c00000000000059000000000000000000004c
:101f3c000000000000000000d69f0000dca800009c
:101f4c0018170000aa9000004373000027f6000049
:101f5c00b9680000edf40000ded4000009fe0000ba
:101f6c00e61c00001c840000dde800000b9900005a
:101f7c00292700004e000000000000000f030000a5
:101f8c00000000000000000000990000b7330000c2
:101f9c003b7600009415000000f300007c0000006c
:101fac0000260000149e0000988f00000000000026
:101fbc00006a0000311600008f8c000005960000ae
:101fcc0000e70000b73f00003600000000000000f2
:101fdc000000000000000000af6600009ed0000072
:101fec00385d00008a6c000020b90000542200000b
:101ffc00ae7c0000ed0400004c8000003874000042
:10200c0086ed0000cbfa000057cb0000dc19000075
:10201c00e22e00001ddf000055060000e5cb00009d
:10202c0001c300006da80000b52f0000488300001c
:10203c007f000000679a0000b2c80000000000009a
:10204c000000000000000000000000000000000084
:10205c000000000000000000000000000000000074
:10206c00000000004b000000a8020000000000006f
:10207c00e4a700000084000092680000000000004b
:10208c002d7100006500000005f600000011000035
:10209c00bba00000333b00008127000000000000c3
:1020ac000000000000000000000000000000000024
:1020bc000000000000000000000000000000000014
:1020cc000000000000000000000000000000000004
:1020dc0000000000000000000000000000000000f4
:1020ec0000000000000000000000000000000000e4
:1020fc00005a0000685500005f820000b800000024
:10210c0008cc000031aa00002c5300002e00000067
:10211c0000000000000000000000000000000000b3
:10212c0000000000000000000000000000000000a3
:10213c000000000000000000000000000000000093
:10214c000000000000000000000000000000000083
:10215c000000000000000000000000000000000073
:10216c000000000000000000000000000000000063
:10217c000000000000000000000000000000000053
:10218c000000000000000000000000000000000043
:10219c000000000000000000000000000000000033
:1021ac000000000000000000000000000000000023
:1021bc000000000000000000000000000000000013
:1021cc0000000000000000003225000048650000ff
:1021dc006c6c00006f200000576f0000726c0000e8
:0421ec00640000008b
:020000040000fa
:1021f0002042800000c0a00000d0a10000e0a100ab
:10220000204288000168a9002168a800200620005b
:1022100020368800a0002100408088005516370035
:102220003600f800809fbe00829fbe00849fbe00e3
:10223000869fbe003200f8003400f8001000200035
:10224000a00188000020200090018800000000000c
:102250000168a9002202ab000500320031118000a4
:10226000408080009a1607002202ab00fbff3a0074
:102270002222ab00020032000168a9002222a9003c
:102280000168a9003400f9003200f9004f03be00d4
:102290004f02be004f01be004f00be003600f900e5
:1022a00000400600889fbe008a1f78000004be0020
:1022b0000001be0063fb07000000e00013003a00cd
:1022c0006011b8000800be005efb070080007800c7
:1022d000100020000100e0000d0032000801be00e7
:1022e0000800be00b8fa07000001be001a00200076
:1022f0000800be0096fb07000000e00001003a0065
:102300000005eb000a007800010037000000eb0038
:102310004f0578004f04be000000060060dc280076
:10232000815f21000c000900b0587800d000b10096
:1023300030dd2800816021000c000900b0587800d1
:10234000d000b10000de2800816121000c000900ee
:10235000b0587800d000b100d0de280081622100a2
:102360000c000900b0587800d000b100a0df2800b0
:10237000816321000c000900b0587800d000b10042
:1023800070e02800816421000c000900b05878003a
:10239000d000b10040e12800816521000d00090056
:1023a000b0587800e000b10020e2280081662100ea
:1023b0000d000900b0587800e000b10000e32800eb
:1023c000816721000d000900b0587800e000b100dd
:1023d000e0e32800816821000d000900b058780072
:1023e000e000b100c0e42800816921000d0009006f
:1023f000b0587800e000b100a0e52800816a210013
:102400000b000900b0587800c000b10060e6280059
:10241000816b21000c000900b0587800d000b10099
:1024200030e72800816c21000c000900b0587800ca
:10243000d000b10000e82800816d21000c000900e7
:10244000b0587800d000b10000000600ef14b000d2
:10245000889fbe008a9fbe008c9fbe008e1f7800a2
:1024600040808000d915070080067800e0462100f2
:102470001008e8000006eb00e0eb2f000f00400022
:102480006800400080bf9f00e1eb2f008f8040007c
:10249000e9804000c1b79f00e2eb2f000f0141002f
:1024a0006a014100b2b79f00e3eb2f008f8141002a
:1024b000ec814100a3b79f0040808000ed1507002c
:1024c000616f21008048eb00d2b780008001eb00f3
:1024d000e90f5100e08f5900e3003e0002060100c1
:1024e0000900370008003700130037003a003700b2
:1024f000260037004b0037005d00370075003700bd
:1025000090003700b9003700e24f400004033a0062
:1025100020002000d0b78800308321000048eb0065
:10252000e1cfb3000000e900014878000080eb0033
:1025300080c18800cc0037003183210080487800ba
:10254000c16f21008048eb00018321001101780058
:10255000024068008081fb00c419dd000340680070
:102560000080fb00c401de004811de00028169002a
:10257000c801dd00030169004300dd008008690037
:1025800040002000d0b78800b70037004183210009
:1025900080487800e4805000110178000240680013
:1025a0008081fb00c419dd00034068000080fb004f
:1025b000c401de004811de0002816900c801dd00af
:1025c000030169004300dd0080086900300020003d
:1025d000d0b78800a40037005183210080487800dc
:1025e000e580500011017800024068008081fb0006
:1025f000c419dd00034068000080fb00c401de0058
:102600004811de0002816900c801dd000301690094
:102610004300dd008008690050002000d0b788002a
:10262000910037006183210080487800e6805000e7
:1026300011017800024068008081fb00c419dd00b0
:10264000034068000080fb00c401de004811de008a
:1026500002816900c801dd00030169004300dd005b
:102660008008690060002000d0b788007e00370035
:102670007183210080487800e780500011017800c4
:10268000024068008081fb00c419dd00034068003f
:102690000080fb00c401de004811de0002816900f9
:1026a000c801dd00030169004300dd008008690006
:1026b000638040001004e00003003a008000200026
:1026c000d0b788006800370070002000d0b78800bd
:1026d00065003700c26f2100924078008181fb00c5
:1026e0008483210083014200804978008140e80012
:1026f00001497800680152009201780003406800a7
:102700000082fb004422dd00044068000080fb00e2
:102710004402de00c819de0083016a004802dd00c1
:10272000848169004300dd00008969006300410085
:1027300090cf50004c003a0080002000d0b78800b5
:10274000490037000283210092017800e700410030
:102750009180fb00d4e828008100420091c069000c
:102760000182fb004422dd0084c068008180fb0000
:10277000440ade00c819de0083016a00480add0051
:1027800084816900c308dd00818069000109780047
:102790000081fb008180fb00810f51000b003200a3
:1027a00011002000d1b78800e24f40002e003a000f
:1027b00020002000d0b78800308321000048eb00c3
:1027c0000080eb0080c188002700370091002000c6
:1027d000d1b78800c16f21009180fb008283210066
:1027e00081004100804878001f0037000081fb0015
:1027f00081c18000c808de00810f51000b0032004b
:1028000011002000d1b78800e24f400016003a00c6
:1028100020002000d0b78800308321000048eb0062
:102820000080eb0080c188000f00370012c0b300a9
:10283000616f21008248780011002000d1b7880024
:10284000c16f21001181fb009183210081004100b3
:1028500080487800e4eb2f000482470005832100c4
:1028600087000900351a7800606f21001040780059
:10287000e14f50000d003a0041832100d06f21004c
:102880001148780000b880000000e00002003a0023
:10289000217021008008eb00017021008008e80011
:1028a000688050000048eb0004003700816f210071
:1028b0008048eb000004e000150232005fc0950084
:1028c0000080fb008000eb0002032000820f50001c
:1028d000e08f58000e023e00000601003000370075
:1028e0000b0237000a0237000902370008023700de
:1028f00007023700060237000502370004023700de
:1029000003023700020237000102370000023700dd
:10291000ff013700fe013700fd013700fc013700e1
:10292000fb013700fa013700f9013700e9003700f1
:10293000e0003700f60137001a013700f4013700d4
:10294000f3013700f2013700f1013700f0013700e1
:10295000ef013700ee013700ed013700ec013700e1
:10296000eb013700ea013700e9013700e8013700e1
:10297000e7013700e6013700680037003a0037000a
:10298000e3013700e2013700290037001200370069
:1029900093003700de013700470037009f00370003
:1029a0008fba97001502be0084a3880095a3880003
:1029b000afb097001100be00a0a38800b1a38800ab
:1029c000804721006fc9950002487800e046210049
:1029d0000008eb00ce013700609f80000000e0009f
:1029e000cb013a003fa29600cfa29600d4a3880064
:1029f000e5a3880011c0b300c03e21000148780063
:102a000061c0b3000000e80001487800d1a3800055
:102a100063004000014878000040eb00e13e2100e7
:102a2000804878008100e80080487800b8013700cd
:102a3000609f80000000e000b5013a0010c0b300c4
:102a4000c13e2100804878008100e800804878007d
:102a50000040eb008100e800804878008100e80039
:102a600080487800aa0137003fa09600cfa09600ca
:102a7000f0a3880001a48800c03e21001004e000fb
:102a8000a3013200f0a38000215821009180fb00b7
:102a9000810f50009e01310032c0b300d13e2100b1
:102aa000824878008100e800804878000100e80052
:102ab0000048eb0096013700805b21008fb897003b
:102ac000114878000000e8004fb1970012487800e4
:102ad0000000e800bfb1970013487800c03e210015
:102ae0001004e0008a0132000040eb00c13e2100ea
:102af000804878008100e800804878008100e80084
:102b0000804878008100e8008048780011c0b30058
:102b1000103f2100014878007d0137000fba97006f
:102b20004558210011000900b41a7800b45a780001
:102b30005402b100c03e21001004e0000600320043
:102b40000000e80041c0b30090cf100002003a003e
:102b500061c0b3000148780000ad80000080fb0038
:102b6000214821004201dd0002814000a4ac800028
:102b7000b5ac80000489be00710140004211dd0047
:102b800002814000c4ac8000d5ac80000489be0046
:102b900022022000000141004211dd0002814000bc
:102ba000e4ac8000f5ac80000489be00c20c2000bb
:102bb000010141000001410013ad8000034978008c
:102bc000f006b000000040000084400060ac8000cf
:102bd00071ac80003ef90700000c78004c01370012
:102be0002548210080000900801aeb000040eb001e
:102bf000e13e2100804878008180e800804878002c
:102c000011c0b300c03e21000148780061c0b3008c
:102c10000000e800014878003d01370040582100dd
:102c2000120009000018eb00a05a21008fb897008d
:102c3000050009003118780031587800d000b10043
:102c4000d100b1001000be003cf907000004be0036
:102c5000a0ac8800b1ac880070ad800081ad800070
:102c600036f907000005be00c0ac8800d1ac880072
:102c700090ad8000a1ad800030f90700e0ac880085
:102c8000f1ac880018a6880029a688003aa8880018
:102c90004ba8880050aa880061aa880051c1b300df
:102ca000e0552100014878002002b0000008eb0048
:102cb0001701370010c0b300413f21008048780061
:102cc0008100e800804878000100e8000048eb003f
:102cd0000f01370011c0b300403f210001487800c8
:102ce0000000e80010407800814f50000f003200d3
:102cf00003003900e24f500005013a001a00370086
:102d0000703f21000048eb006600400000c8eb0067
:102d1000670050006fc195000248780021c0b300e1
:102d20000000e90001487800f900370011c0b30045
:102d3000703f210001487800e60040001140e800a3
:102d4000804878000000fb00e580500000804000d3
:102d5000efc195000348780021c0b300503f210027
:102d600001487800ea003700703f21001004e000bd
:102d700008003200e60040001140e800804878007a
:102d80000000fb00e5805000008040006fc295000d
:102d90000448780021c0b300503f2100014878006a
:102da000db0037008fba970060ea2f0000804700f1
:102db0000a00090035187800355878007501b1000f
:102dc00050162000df909600808f5000d0003a000f
:102dd000cf689500c1d79f003f949600cf9496008e
:102de000403f210010407800e0d79f00503f210075
:102df00010407800d0d79f00603f2100104078003d
:102e000080df9f00703f21001040780090df9f001e
:102e1000d03f210010407800f0d79f005f699500f7
:102e2000f2ef9f00ef699500e3ef9f007f6a950046
:102e3000d4ef9f008f729500c5ef9f001f70950023
:102e4000b0ef9f00af709500a1ef9f003f7195001c
:102e5000a2e79f00cf71950093e79f005f729500f6
:102e600084e79f00ef729500f5df9f007f7095006b
:102e7000e0df9f008f789500d1df9f001f799500dc
:102e8000c2df9f00af799500b3df9f003f7a9500c6
:102e9000a4df9f008b5f210045fc2f008b82420046
:102ea00095af9f000047eb000e4578008daf9f0067
:102eb000fca79f00cfd697000506780014003700c6
:102ec0000104e0000d0032000800be00f5fc070020
:102ed0000004e00009003200088ebe008edf9f0073
:102ee00080c0eb00f1d79f009adf9f0023c0b300a2
:102ef000d3d79f0014c0b300e4d79f000e47e8006b
:102f0000f085450064064600ef4f57006f00320021
:102f10000b0078001b4178008d4069008180fb0028
:102f20008100e900cf08de000204e000e4ff320087
:102f30001b419000ffea9700854f510001003200cd
:102f40008a4078000204e000ddff3200204190005a
:102f5000efe99700834f5100010032008a4078006a
:102f60000204e000d6ff3200304190005fea970093
:102f7000844f5100010032008a4078000204e000d2
:102f8000cfff320040419000cfea9700854f5100bb
:102f9000010032008a4078000204e000c8ff3200dd
:102fa00050419000bfe99700834f5100010032006b
:102fb0008a4078000204e000c1ff320060419000c6
:102fc0002fea9700844f5100010032008a407800b8
:102fd0000204e000baff320070419000afe29700b7
:102fe000854f5100010032008a4078000204e00061
:102ff000b3ff3200004990009fe19700834f5100da
:10300000010032008a4078000204e000acff320088
:10301000104990000fe29700844f510001003200e8
:103020008a4078000204e000a5ff320020499000a9
:10303000ffda9700854f5100010032008a40780086
:103040000204e0009eff320030499000efd9970063
:10305000834f5100010032008a4078000204e000f2
:1030600097ff3200404990005fda9700844f51008b
:10307000010032008a4078000204e00090ff320034
:1030800050499000cfda9700854f5100010032007f
:103090008a4078000204e00089ff32006049900015
:1030a000bfd99700834f5100010032008a40780059
:1030b0000204e00082ff3200704890002fda97008f
:1030c000844f50008dff3a007dff37008fae970090
:1030d0007fa69700403f2100efd297000548780077
:1030e0000000e800dfd09700014878000000e80009
:1030f0000fd99700024878000000e8009fd9970098
:1031000003487800660040007fd2970004487800aa
:103110000c06e8008c8f5600e7fc310003003700f6
:10312000806f21000048eb00f9ff37004f0778005f
:103130004f06be004f05be004f04be00ef14b100a5
:10314000000006003601fa00889fbe008a9fbe007c
:103150008c9fbe00804478000f007800c011b10041
:10316000870009000018eb00d03e210010407800d5
:10317000e34f5000ca013200e64f50009900320080
:103180000004eb00e14f500047023a0020582100b4
:103190001080fb00e0b79e00f0072000f0b79e0013
:1031a000c1c2b300b1ef9d00e0cfb300e0e79d00e6
:1031b00048c0b300f8e79d0099ef9d00e3cbb30052
:1031c000a3ef9d00026f21001240780080ef9d0068
:1031d0000049e800329a2400024068000081fb00a8
:1031e0004411dd00024068000080fb004401de0065
:1031f0009284b2004802dd00040169004300dd0052
:103200000001690002c06c000082fb004422dd0066
:10321000044068000080fb004402de004811de002c
:1032200002016a004802dd00040169004300dd007c
:103230000001690002c069008081fb00c419dd0043
:10324000034068000080fb00c401de004811de007e
:1032500002816900c801dd00030169004300dd004f
:103260000001690043ee2f008f814100688041001a
:1032700082c068008181fb00c419dd0083c0680042
:103280008180fb00c409de004811de000281690074
:10329000c809dd0003016900c308dd000101690000
:1032a00046ee2f000f03430069024300904069007f
:1032b0008181fb00c419dd0083c068008180fb00b0
:1032c000c409de004811de0002816900c809dd0082
:1032d00003016900c308dd0001016900ea01430040
:1032e000944069000182fb004422dd0084c0680034
:1032f0008180fb00440ade004811de0002016a0002
:10330000480add0004016900c308dd00010169000d
:10331000934069000182fb004422dd0084c0680004
:103320008180fb00440ade004811de0002016a00d1
:10333000480add0004016900c308dd0001016900dd
:10334000ffe8950082c068008181fb00c419dd00a0
:1033500083c068008180fb00c409de004811de00e4
:1033600002816900c809dd0003016900c308dd00ae
:1033700001016900d1cdb300814069008181fb006a
:10338000c419dd0083c068008180fb00c409de0031
:103390004811de0002816900c809dd0003016900ef
:1033a000c308dd008100690041409800c808de00c4
:1033b0005140980021c0b300d03e21000148780060
:1033c0000080e8000048eb006404640068044400e6
:1033d0008680e8000801780020212100ccf9070050
:1033e000b1013700e03e210010407800013f21008c
:1033f00091407800814f50008e003100e13e210065
:103400008048e8000080fb00e0b79e00f007200045
:10341000f0b79e0081c2b300b1ef9d00e0cfb300d2
:10342000e0e79d0042c0b300f2e79d0099ef9d00e8
:10343000e4cbb300a4ef9d00036f2100134078009c
:1034400080ef9d008049e800339a24000340680023
:103450008081fb00c419dd00034068000080fb0090
:10346000c401de009384b200c802dd0085816900da
:103470004300dd008081690083c46c000980fb008b
:103480004400dd0000c06c000080fb00c402de00d0
:10349000c819de0083816a00c802dd0085816900e9
:1034a0004300dd008081690003406a000082fb0068
:1034b0004422dd00044068000080fb004402de007e
:1034c000c819de0083016a004802dd0084816900ba
:1034d0004300dd008081690044ee2f000f024200ae
:1034e0006800420083c068000182fb004422dd00c6
:1034f00084c068008180fb00440ade00c819de0039
:1035000083016a00480add0084816900c308dd0088
:103510008181690046ee2f000f034300e90243005a
:1035200090c069000182fb004422dd0084c0680075
:103530008180fb00440ade00c819de0083016a00b6
:10354000480add0084816900c308dd0081816900cb
:103550006a02430095c069008182fb00c42add0035
:1035600085c068008180fb00c40ade00c819de0047
:1035700083816a00c80add0085816900c308dd0017
:103580008181690094c069008182fb00c42add004a
:1035900085c068008180fb00c40ade00c819de0017
:1035a00083816a00c80add0085816900c308dd00e7
:1035b00081816900ffe8950083c068000182fb00fb
:1035c0004422dd0084c068008180fb00440ade00e4
:1035d000c819de0083016a00480add0084816900a1
:1035e000c308dd008181690061ceb30081c069003c
:1035f0000182fb004422dd0084c068008180fb0062
:10360000440ade00c819de0083016a00480add00b2
:1036100084816900c308dd00818069004140980011
:10362000c808de0051409800d03e210002487800d2
:1036300090003700f2c7b300e27f9d000040eb002e
:10364000f07f9d0080c79d00c2ef9d0044ee2f00db
:103650000f024200e90142008049eb00ea0142000a
:103660008049eb00f6c2b300b6ef9d00e3cfb30094
:10367000e3e79d0033c0b300f3e79d0099ef9d00a1
:10368000e5cbb300a5ef9d00046f210094417800c5
:1036900083ef9d00034ae800c3c1b2000382fb0030
:1036a0004422dd0084c169008381fb00441ade00ee
:1036b000d483b200c31bdd0007026a00c819dd0015
:1036c00003026a0084c46c008981fb00c419dd0018
:1036d00083c16c008381fb00c41bde004822de0036
:1036e00004826b00c81bdd0007026a00c319dd00fd
:1036f00003026a0084c16a008382fb00c42add00e1
:1037000085c169008381fb00c41ade004822de0007
:1037100004826a00c81add0085026a00c319dd0050
:1037200083826a0043ee2f008f814100688241004e
:1037300085416b000383fb004433dd0086c16900d3
:103740008381fb00441bde00c82ade0085026b007b
:10375000481bdd0086826a00c319dd0083816a0090
:1037600046ee2f000f034300e902430003416900c6
:103770000283fb004433dd00064169000281fb0047
:103780004413de00c819de0083016b004813dd001e
:10379000868169004311dd008281690015c16900dd
:1037a0000283fb004433dd00064169000281fb0017
:1037b0004413de00c819de0083016b004813dd00ee
:1037c000868169004311dd00828169001541900006
:1037d000034169008282fb00c42add0005416900c3
:1037e0000281fb00c412de00c819de0083816a007a
:1037f000c812dd00858169004311dd008281690006
:1038000092c9b30002c169008282fb00c42add00b4
:10381000054169000281fb00c412de00c819de0008
:1038200083816a00c812dd00858169004311dd00d3
:1038300002816900324298004811de00424298003d
:103840002258210001497800c13e210080487800bb
:103850008100e800804878008100e8008048780016
:103860008180e8008048780011c0b300103f21003b
:10387000014878007fe495000884fb006804440058
:103880000801780061ee2f008f8040002021210088
:103890009ff80700f03e21000048eb0028013700a8
:1038a000e03e21001084fb002002200008004000c0
:1038b0004200dd002a482100000045001001be0042
:1038c000b2af9e00c3af9e00710044004200dd0015
:1038d000000045001001be0092af9e00a3af9e0005
:1038e0004240dd00000045001006be00f00620004a
:1038f0000800400000004000000045001000780073
:103900008005eb008b0078000ff607000002be0078
:10391000c00c200008004000000545009a80fb0014
:103920006011b800f29f9e0083a79e0092a79e00a0
:10393000a3a79e00b4a79e00c5a79e00d2a79e0085
:10394000e3a79e00fca79e008daf9e00d8af9e000f
:10395000e1af9e00f0c7b300e0df9d000040eb0048
:10396000fbdf9d0080e79d0090e79d0010c0b30045
:10397000a0e79d00c3ee2f0083814700e4eb2f00fa
:103980000482470011000900b4197800b459780086
:1039900070c2b300b0ef9d00e0cfb300e0e79d0040
:1039a00050c2b300f0e79d0099ef9d00e0cbb3005b
:1039b000a0ef9d00006f21009040780081ef9d00f6
:1039c0000148e80014f12f000f0242008080eb0054
:1039d00046ee2f000f03430063014300b2c16800ad
:1039e0000380fb004400dd0000c069000080fb0094
:1039f000c401de00c808de0081806900c801dd0066
:103a0000838068004300dd0080806800840f5100df
:103a1000f2ff3a00e0cfb30000c068000081fb0075
:103a20004411dd00024068000080fb004401de001c
:103a3000c808de00810069004801dd00828068005e
:103a40004300dd000080680042ee2f000f014100be
:103a5000e800410090579e007fe195000281fb0045
:103a6000828040004800de009040980051c0b300c2
:103a7000d03e2100014878007fe495000884fb00d7
:103a80006804440043ee2f008f8141008380e800ea
:103a900008017800202121001df80700f03e2100d8
:103aa0000048eb00a6003700f13e21001140e8007d
:103ab00080487800f44f50009b0036000f027800d9
:103ac000c411b10087000900001aeb00f0c7b30071
:103ad000e07f9d000045eb00fa7f9d0011c0b30020
:103ae00081c79d00c0ef9d0046ee2f000f034300ed
:103af000690143000049eb00e1ef9d00f5c2b3000e
:103b0000b5ef9d00e1cfb300e1e79d0032c0b30007
:103b1000f2e79d0099ef9d00e4cbb300a4ef9d0078
:103b2000036f21009340780081ef9d008149e800f8
:103b3000c1c1b2008181fb00c419dd0083c06800ef
:103b40008180fb00440bde00d683b200c809dd0093
:103b500003036b00c308dd0001036b0086c46c0027
:103b60008980fb00c408dd0081c06c008180fb00ff
:103b7000c409de004833de0086816900c80bdd0021
:103b800087816900c308dd008181690003426a0002
:103b90008480fb00c408dd0081406a008180fb0056
:103ba000440ade00c819de0003026a00480bdd008b
:103bb00006026a00c308dd0001026a0041ee2f0020
:103bc0008f804000e881400084c26a008580fb004d
:103bd000c408dd0081c06a008180fb00c40ade00e9
:103be0004822de0004826a00c80add0005026a007d
:103bf000c308dd0081006a0044ee2f000f0242007e
:103c0000e9024200014068000082fb004422dd001e
:103c1000044068000080fb004402de00c808de00ab
:103c200081006a004802dd00848068004300dd00f6
:103c30008080680015c268000480fb004400dd003d
:103c400000406a000080fb004402de00c808de007d
:103c500001026a004803dd0006026a004300dd003d
:103c600000026a009540900084c068000180fb005b
:103c70004400dd0000c068000080fb00c400de00de
:103c80004822de0084806800c802dd00858068006c
:103c90004300dd008080680094c9b30004c268005e
:103ca0000480fb004400dd0000406a000080fb004f
:103cb0004402de00c808de0081006a004802dd0020
:103cc000848068004300dd0000806800b0419800f7
:103cd0004800de00c0419800e3046100e88444002d
:103ce000302121000000440046ee2f000f03430066
:103cf0008680e8000901780085f707000904440080
:103d0000c03e21000a4878000000e8000a48780018
:103d10000000e8000a4878000000e8000a4878003f
:103d20000000e8000a487800080078004f06be004e
:103d30004f05be004f04be000080fa0000000600e0
:103d4000f03e21001048e800f7ff37002a01fa0092
:103d5000889fbe000004eb00423f21001204e000f7
:103d6000540132000201e80012417800e14f510095
:103d7000040032000004eb00e24f51004d013a0014
:103d800073003700623f210012427800ee4f52006c
:103d900061003e000481fb00c412dd00835f21004e
:103da00083814200c212dd00c65b21008502430010
:103db0001503be0096af9e00a7af9e00f500200041
:103dc000b5af9e00c2af9e0092c0b300a2ef9d00af
:103dd0000300e00005003a008f0378006712b1008d
:103de00007000900801beb0005003700a2ed2f0043
:103df000028147000f000900335978000301b10028
:103e000043ef2f008381470026ed2f0006834700f4
:103e10000b000900b6197800b659780062c1b300ea
:103e2000b2f79d00e2cfb300e2ef9d0092c1b30074
:103e3000f2ef9d0090f79d00a1f79d00006f21001b
:103e40009040780081f79d000148e800d5f02f00f0
:103e50008f8242008080eb00f2ee2f000f014100c4
:103e6000b2c168000380fb004400dd0000c06900af
:103e70000080fb00c401de00c808de00818069000c
:103e8000c801dd00838068004300dd008080680099
:103e9000850f5100f2ff3a00c0cdb30000c06800aa
:103ea0000081fb004411dd00024068000080fb003f
:103eb0004401de00c808de00810069004801dd0021
:103ec000828068004300dd0000806800d04f9e00c3
:103ed000ffe895008180fb0047ef2f008f834300b0
:103ee000818043004800de0090409800603f210040
:103ef0000448e8007fec95000884fb006804440057
:103f000008017800e1ee2f008f8040002021210081
:103f1000fff60700e70037000040eb00513f2100ab
:103f200080487800f2c0b3008100e8008248780041
:103f30008180e90080487800e38040008048780074
:103f40006680400000c8eb000004eb00d900370099
:103f5000723f21001204e00068003a000201e9000b
:103f60001281fb004412dd00835f210083014200c7
:103f70004212dd00c55b2100048242001403be0032
:103f800096af9e00a7af9e00f4002000b4af9e0045
:103f9000c2af9e0092c0b300a2ef9d000300e000fc
:103fa00005003a008f0378006712b100070009008e
:103fb000801beb0005003700a2ed2f0002814700b7
:103fc0000f000900335978000301b10043ef2f00bf
:103fd0008381470026ed2f00068347000b00090070
:103fe000b6197800b659780062c1b300b2f79d00e7
:103ff000e2cfb300e2ef9d0092c1b300f2ef9d006b
:1040000090f79d00a1f79d00006f2100904078007f
:1040100081f79d000148e800d4f02f000f02420014
:104020008080eb00f2ee2f000f014100b2c168006a
:104030000380fb004400dd0000c069000080fb003d
:10404000c401de00c808de0081806900c801dd000f
:10405000838068004300dd0080806800840f510089
:10406000f2ff3a00c0cdb30000c068000081fb0041
:104070004411dd00024068000080fb004401de00c6
:10408000c808de00810069004801dd008280680008
:104090004300dd0000806800d04f9e00ffe89500df
:1040a0008180fb0047ef2f008f8343008180430016
:1040b0004800de00904098007fec95000884fb00eb
:1040c0006804440008017800e1ee2f008f80400072
:1040d000202121008ef60700f1c0b300603f2100cf
:1040e000014878000040eb00513f210080487800f3
:1040f0008100e900804878006e003700d23f21003f
:10410000924478000904e00007003d0011c0b300ac
:1041100068005100014878000080e8000048eb008a
:104120000004eb00630037008901fb00823f21009f
:10413000028141001281fb004412dd00835f2100f7
:10414000830142004212dd00c55b2100048242006f
:104150001403be0096af9e00a7af9e00f40020009f
:10416000b4af9e00c2af9e0092c0b300a2ef9d000c
:104170000300e00005003a008f0378006712b100e9
:1041800007000900801beb0005003700a2ed2f009f
:10419000028147000f000900335978000301b10084
:1041a00043ef2f008381470026ed2f000683470051
:1041b0000b000900b6197800b659780062c1b30047
:1041c000b2f79d00e2cfb300e2ef9d0092c1b300d1
:1041d000f2ef9d0090f79d00a1f79d00006f210078
:1041e0009040780081f79d000148e800d4f02f004e
:1041f0000f0242008080eb00f2ee2f000f01410021
:10420000b2c168000380fb004400dd0000c069000b
:104210000080fb00c401de00c808de008180690068
:10422000c801dd00838068004300dd0080806800f5
:10423000840f5100f2ff3a00c0cdb30000c0680007
:104240000081fb004411dd00024168000281fb0097
:104250004410de00c808de00810068004810dd0060
:10426000808068004311dd0002816800d24f9e000b
:104270007fe895000080fb0047ef2f008f8343000d
:10428000008043004811de00124098007fec95004a
:104290000884fb006804440008017800e1ee2f0068
:1042a0008f8040002021210019f60700d03f210017
:1042b0000948e900080078004f04be000080fa00b9
:1042c000000006001a01fa00881f78000f0178002c
:1042d0002211b100870009000019eb006022b8002c
:1042e000a4b79e00b5b79e0012c0b30082ef9d0038
:1042f0000041eb0092ef9d00a2ef9d0032c0b300a1
:10430000b2ef9d00c2ef9d00b4bf9e00c5bf9e00ee
:104310004fb29600dfb29600d4bf9e00e5bf9e006c
:10432000e2ff9d00e2cfb30082f79d0098c0b3008a
:1043300098f79d00b0f79d00c1f79d00036f210025
:1043400013417800a2f79d008249e80062c4b200e0
:104350008281fb00c419dd00034169000281fb007a
:10436000c411de002389b2004812dd008481690097
:104370004311dd0002816900024068008081fb007a
:10438000c419dd00034068000080fb00c401de00aa
:104390004811de0002816900c801dd0003016900e7
:1043a0004300dd000001690082c068000180fb005d
:1043b0004400dd0000c068000080fb00c400de0097
:1043c0004811de0082806800c801dd00838068003b
:1043d0004300dd0080806800dff2950001c16a00c3
:1043e0000280fb004400dd00004069000080fb000b
:1043f0004401de00c808de0001016900c801dd00db
:10440000030169004300dd00000169006ff09500c1
:10441000824068000180fb004400dd0000c06800ad
:104420000080fb00c400de004811de0082806800ce
:10443000c801dd00838068004300dd0080806800e3
:104440007ff2950001416a000280fb004400dd001c
:10445000004069000080fb004401de00c808de0067
:1044600001016900c801dd00030169004300dd00ae
:10447000000169008ffa950082c06a000180fb008c
:104480004400dd0000c068000080fb00c400de00c6
:104490004811de0082806800c801dd00838068006a
:1044a0004300dd00808068001ff89500014168002e
:1044b0000280fb004400dd00004069000080fb003a
:1044c0004401de00c808de0001016900c801dd000a
:1044d000030169004300dd00000169002ffa950027
:1044e00082406a000180fb004400dd0000c06800db
:1044f0000080fb00c400de004811de0082806800fe
:10450000c801dd00838068004300dd008080680012
:10451000bffa950001c16a000280fb004400dd0083
:10452000004069000080fb004401de00c808de0096
:1045300001016900c801dd00030169004300dd00dd
:10454000000169004ff89500824068000180fb007f
:104550004400dd0000c068000080fb00c400de00f5
:104560004811de0082806800c801dd008380680099
:104570004300dd00808068005ffa950001416a0019
:104580000280fb004400dd00004069000080fb0069
:104590004401de00c808de0001016900c801dd0039
:1045a000030169004300dd0000016900eff8950098
:1045b00082c068000180fb004400dd0000c068008c
:1045c0000080fb00c400de004811de00828068002d
:1045d000c801dd00838068004300dd008080680042
:1045e0000141780022c3b2000280fb004400dd00dc
:1045f000004069000080fb004401de00c808de00c6
:10460000810069004801dd00828068004300dd0010
:1046100000806800f0ff9d004800de0080479e009b
:1046200069046400680444000801780001ef2f0069
:104630008f8040002021210035f507000800780018
:104640004f0478000080fa00000006008f17b000c9
:10465000881f78008e1f78000f017800a217b10024
:10466000180009000019eb006ee82f000f07470043
:1046700082542600c3c62600029fbe00f206220016
:1046800073f52600029fbe0022c7260043062000c5
:10469000028fbe000041eb00827f9d0093eb2f0054
:1046a0008381470062e82f00028147003100090042
:1046b000b259780043ef2f008381470082eb2f002f
:1046c0000281470032000900b2597800d2cfb3000e
:1046d000b2f79d00e2cfb300e2ef9d0032c3b3001a
:1046e000f2ef9d0090f79d00a1f79d00006f210063
:1046f0009040780081f79d000148e80074f22f0097
:104700000f0242008080eb00c3ee2f008f8141003a
:1047100063814100b2c168000380fb004400dd00fa
:1047200000c069000080fb00c401de00c808de0094
:1047300081806900c801dd00838068004300dd00de
:1047400080806800840f5100f2ff3a000140780039
:1047500030c5b2000081fb004411dd000241680059
:104760000281fb004410de00c808de008100680002
:104770004810dd00808068004311dd000281680080
:10478000c1ee2f008f80400068804000f2679e00dd
:10479000ffe895008180fb00010040004811de0029
:1047a000124098007fec95000884fb0068044400e8
:1047b000c2ee2f000f0141008280e800080178005e
:1047c00020212100d2f40700080078004f0778006c
:1047d0004f0478008f17b100000006002a01fa008c
:1047e000881f78000f0278002411b10087000900ab
:1047f000001aeb000202be006033b800a4af9e00b6
:10480000b5af9e00c6af9e00d7af9e006f999600d1
:10481000e2af9e00ff999600f3af9e000fa29600b4
:1048200084b79e001fa1960092b79e00afa196008c
:10483000a3b79e003fa29600b4b79e004fa196007a
:10484000c2b79e00dfa19600d3b79e006fa296006c
:10485000e4b79e0062ef2f000281470043ed2f0076
:10486000838147000c00090033197800b2c1b300fe
:10487000d2f79d00e2cfb30082f79d00a2c1b30042
:1048800092f79d00b0f79d00c1f79d00006f2100d9
:1048900090407800a1f79d000148e80004f12f0046
:1048a0000f0242008080eb0012ef2f000f01410049
:1048b000b2c168000380fb004400dd0000c0690055
:1048c0000080fb00c401de00c808de0081806900b2
:1048d000c801dd00838068004300dd00808068003f
:1048e000840f5100f2ff3a0000c9b30000c0680015
:1048f0000081fb004411dd00024168000281fb00e1
:104900004410de00c808de00810068004810dd00a9
:10491000808068004311dd000281680082579e009c
:104920001ff095000080fb0064ef2f000f02420093
:10493000000042004811de00124098001ff495006c
:104940000884fb00680444000801780001ef2f0090
:104950008f804000202121006df4070008007800be
:104960004f0478000080fa00000006002e01fa00d3
:10497000881f78000f0278002411b1008700090019
:10498000001aeb000202be006033b80084af9e0044
:1049900095af9e00a6af9e00b7af9e002f999600e0
:1049a000bf999600c2af9e00d3af9e004f9996006c
:1049b000df999600e2af9e00f3af9e006f999600dc
:1049c000ff99960082b79e0093b79e008fa1960034
:1049d000a3b79e001fa29600b4b79e002fa1960019
:1049e000c2b79e00bfa19600d3b79e000fca950024
:1049f000c4ef9d001fc99500d2ef9d0063ef2f000b
:104a00008381470004ed2f00048247000e00090057
:104a1000b419780082c1b300d2f79d00e2cfb30091
:104a200082f79d00e2c1b30092f79d00b0f79d00b0
:104a3000c1f79d00006f210090407800a1f79d0014
:104a40000148e80044f12f000f0242008080eb0093
:104a5000e0ee2f000f00400063014000b2c168008b
:104a60000380fb004400dd0000c069000080fb0003
:104a7000c401de00c808de0081806900c801dd00d5
:104a8000838068004300dd0080806800840f51004f
:104a9000f2ff3a000140780080c1b2000081fb00c3
:104aa0004411dd00024168000281fb004410de0079
:104ab000c808de00810068004810dd0080806800c2
:104ac0004311dd0002816800e1ee2f008f8040007d
:104ad00068804000c2579e009ff095008180fb00d7
:104ae000010040004811de00124098001ff49500bc
:104af0000884fb0068044400e2ee2f000f0141002f
:104b00008280e800080178002021210000f40700dd
:104b1000080078004f0478000080fa0000000600ca
:104b20001e01fa00889fbe0000447800814478008e
:104b30000200be000f0178004211b1008700090099
:104b40000019eb00823e20000300200034f2070031
:104b5000f0af9e0081b79e007fa096008fa89600c0
:104b600090b79e00a1b79e001fa89600afa8960020
:104b7000b0b79e00c1b79e00bfa89600d1b79e00f7
:104b800042ef2f0002814700e0ed2f000080470038
:104b90000600090030197800d0c1b300b0f79d00bd
:104ba000e0cfb300e0ef9d00e0c0b300f0ef9d0068
:104bb00098f79d00a9f79d00006f210090407800b4
:104bc00081f79d000148e800c1ee2f008f80400072
:104bd000768240008080eb00f2ee2f000f01410052
:104be000b2c168000380fb004400dd0000c0690022
:104bf0000080fb00c401de00c808de00818069007f
:104c0000c801dd00838068004300dd00808068000b
:104c1000840f5100f2ff3a000140780030c7b20023
:104c20000081fb004411dd00024168000281fb00ad
:104c30004410de00c808de00810068004810dd0076
:104c4000808068004311dd0002816800a2479e0059
:104c50007fe895000080fb0041ef2f008f8040002f
:104c6000008040004811de00124098007fec950063
:104c70000884fb006804440008017800e1ee2f007e
:104c80008f80400020212100a1f307000800780058
:104c90004f04be000080fa00000006003001fa0058
:104ca000881f78000f0178002211b10087000900e9
:104cb0000019eb004f919600df919600f2a79e003d
:104cc00083af9e006f919600ff91960092af9e0079
:104cd000a3af9e000f9996009f999600b2af9e00d9
:104ce000c3af9e00af999600d3af9e003f99960048
:104cf000e2af9e00cf999600f3af9e005f999600b9
:104d000082b79e00ef99960093b79e007f99960018
:104d1000a2b79e008fa19600b3b79e001fa1960078
:104d2000c2b79e00afa19600d3b79e006fc1950099
:104d3000c2ef9d0063ef2f0083814700e2ec2f005c
:104d4000028147000e000900b2197800b2597800bc
:104d500012c0b300d2f79d00e2cfb30082f79d00ee
:104d6000f2c1b30092f79d00b0f79d00c1f79d001e
:104d7000006f210090407800a1f79d000148e800f5
:104d800054f12f000f0242008080eb00e3ee2f0071
:104d90008f81410063814100b2c168000380fb0044
:104da0004400dd0000c069000080fb00c401de009b
:104db000c808de0081806900c801dd0083806800ca
:104dc0004300dd0080806800840f5100f2ff3a004c
:104dd00001407800c0c7b2000081fb004411dd0033
:104de000024168000281fb004410de00c808de00ba
:104df000810068004810dd00808068004311dd00fc
:104e000002816800e1ee2f008f8040006880400042
:104e1000d2579e009ff095008180fb00010040006a
:104e20004811de00124098001ff495000884fb0032
:104e300068044400e2ee2f000f0141008280e80088
:104e4000080178002021210031f3070008007800d4
:104e50004f0478000080fa00000006004401fa00c8
:104e6000881f7800a17f9d000000e00005003a0047
:104e70000f0078005014b100310009000058eb0019
:104e800005003700b1eb2f00818047003100090099
:104e9000b05878002003b10060ef2f000080470079
:104ea000a1eb2f00818047003200090031587800c3
:104eb000d0cfb300d0f79d00e0cfb30080f79d00c6
:104ec00030c3b30090f79d0050c6b300b0f79d000b
:104ed00010c0b300c0f79d00006f21009040780023
:104ee000a1f79d000148e80094f22f000f02420054
:104ef0008080eb00e0ee2f000f00400063014000d7
:104f0000b2c168000380fb004400dd0000c06900fe
:104f10000080fb00c401de00c808de00818069005b
:104f2000c801dd00838068004300dd0080806800e8
:104f3000840f5100f2ff3a000140780030c5b20002
:104f40000081fb004411dd00024168000281fb008a
:104f50004410de00c808de00810068004810dd0053
:104f6000808068004311dd0002816800e1ee2f00bf
:104f70008f80400068804000926f9e009ff09500f7
:104f80008180fb00010040004811de0012409800c3
:104f90001ff495000884fb0068044400e0ee2f0035
:104fa0000f0040008080e8000801780020212100e7
:104fb000d7f20700084078004f0478000080fa001c
:104fc00000000600881f78000000e0001400320096
:104fd000b22d81008000eb00855b2200f4072000e9
:104fe00028212100e7f72f00858343009501510018
:104ff0008381ea008481610005003200088340005b
:1050000082814300964978000201e80004016100b2
:105010008100e800810f5000f4ff3e00b22d8900ae
:10502000101180004800de00610060004c00dd00cf
:10503000f1ff2e000240800082806000810070003d
:10504000014088004f04780000000600804078008e
:1050500000cdb30000c04000e94f500002003c000a
:105060000004e00010003d00f0cbb30000c04000a1
:10507000e54f500004003c000004e0000200350051
:105080006a40400000000600f0c9b30080c0400044
:1050900000c0eb00e5cf500003003c000104e0003d
:1050a000010035006ac0400000000600889fbe0075
:1050b0008a9fbe00804078000205be000180fb0090
:1050c0008000eb0020f007000004be00020020007a
:1050d000032724000a00be0098ef07000001be006d
:1050e0000800be0038ef0700800178000101780059
:1050f00003007800820078004f05be004f04be0018
:105100000000060041c6b300d2c4b300824f500075
:10511000220032000c003c0031c0b3006c41510051
:10512000824f50001d00320082407800814f5000b5
:1051300017003500c1cbb30001404000e14f5000e3
:1051400013003e001000370031c5b300814f5000fe
:105150001100320004003c00e5c05000814f5000b7
:105160000b003a00080037008040eb0062c5b30036
:10517000824f50000900320071c5b300814f5000ca
:1051800003003a000400370011c0b30003003700e9
:105190008040eb000100370080c0eb000140780048
:1051a00000000600889fbe0000047800820478009a
:1051b0000e000900805ceb00f900b1000800e0007f
:1051c00005003a008100fb00001f810057f2070034
:1051d000101f8900090037008100fb0008007800db
:1051e00052f20700101f8900081f8900080078008c
:1051f00058f2070000044400f81e8900181f8100bf
:105200000800e00007003200011f81000101540086
:10521000090078003ef207000804e800081f890032
:1052200005003700011f8100f21e810001015100bd
:105230000900780036f20700101f810000f0a70077
:105240000000ea000000e9004f00de004f04be004d
:10525000000006001600fa00881f78008040eb006e
:1052600081ef9f0091ef9f00a1ef9f00f580570015
:10527000030009008058eb0071815700c1c2b300e0
:10528000c8ff070071815700c1c2b3000000eb00e6
:10529000c4ff070071815700c1c2b3000000eb00da
:1052a000c0ff0700718057002af20700e10f50008d
:1052b00004003a007fe8970092ff0700014f2200a8
:1052c0008048780071815700c1c2b3000000eb0034
:1052d000b4ff07007fe897000004e0002a003200d6
:1052e00080ef9f000ff0970090ef9f0078805700ad
:1052f000e8f107000004780000c3b300f0ef9f005e
:1053000080f79f0071805700e0f107000001be00a8
:105310000840780065ff07000268290083b1240077
:10532000e0ef070049ef0700e0268900f126890039
:1053300071815700c1c2b3000000eb0099ff070064
:105340007180570003f20700e10f50000e003a0091
:105350007fe897006bff070000417800c14d2200f5
:105360000201fb00cf91de00110078008382b900ba
:105370001103900082b3b900060242000201b80096
:10538000830142008288be0071815700c1c2b30010
:105390000000eb0083ff07007fe897000004e000b7
:1053a0002d003200b0ef9f008ff09700c1ef9f00fb
:1053b0001ff09700d0ef9f0075805700b5f10700f0
:1053c0000004780000c3b300f0ef9f0080f79f0057
:1053d00090f79f0071805700acf107000001be00fc
:1053e0000840780031ff07000268290083b12400db
:1053f000acef070015ef070000278900112789008f
:1054000071815700c1c2b3000000eb0065ff0700c7
:1054100071805700cff10700e10f50000e003a00f5
:105420007fe8970037ff070000417800014e220017
:105430000201fb00cf91de00110078008382b900e9
:105440001103900082b3b900060242000201b800c5
:10545000830142008288be0071815700c1c2b3003f
:105460000000eb004fff07007fe897000004e0001a
:105470000d0032007180570084f10700222a2b00b2
:1054800033f0230087ef070011ef07008000eb00e7
:105490002def070002002000832c240081ef07007d
:1054a0000bef07006027890071815700c1c2b3006c
:1054b0000000eb003bff07007fe897000004e000de
:1054c0000a0032007180570070f1070000ef0700fa
:1054d0008000eb001cef070002002000832c24005a
:1054e00070ef0700faee07007027890071815700fe
:1054f000c1c2b3000000eb002aff07004f04780090
:105500000080fa00000006001600fa00881f7800ec
:105510008040eb0081ef9f0091ef9f00a1ef9f0083
:10552000f5805700030009008058eb007181570097
:10553000c1c2b3001bff070071815700c1c2b30095
:105540000000eb0017ff070071815700c1c2b300d4
:105550000000eb0013ff07007fe897000004e00065
:105560002a00320080ef9f000ff0970090ef9f001d
:105570007880570047f107000004780000c3b300ab
:10558000f0ef9f0080f79f00718057003ff1070008
:105590000001be0008407800c4fe07000268290030
:1055a00083b124003fef0700a8ee0700e026890042
:1055b000f126890071815700c1c2b3000000eb00e1
:1055c000f8fe07007180570062f10700e10f5000fc
:1055d0000e003a007fe89700cafe070000417800fd
:1055e000c14d22000201fb00cf91de0011007800c6
:1055f0008382b9001103900082b3b9000602420011
:105600000201b800830142008288be007181570008
:10561000c1c2b3000000eb00e2fe07007fe8970084
:105620000004e0002b003200b0ef9f008ff09700e5
:10563000c1ef9f001ff09700d0ef9f0075805700cb
:1056400014f107000004780000c3b300f0ef9f00de
:1056500080f79f0090f79f00718057000bf10700c3
:105660000001be000840780090fe07000268290093
:1056700083b124000bef070074ee070000278900b8
:105680001127890071815700c1c2b3000000eb00ef
:10569000c4fe07007fe897000004e0000d00320020
:1056a00098fe070000417800014e22000201fb0035
:1056b000cf91de00110078008382b90011039000c1
:1056c00082b3b900060242000201b8008301420021
:1056d0008288be0071815700c1c2b3000000eb0098
:1056e000b0fe0700718057001af10700e10f50006b
