:020000040000fa
:080000000002040000000000f2
:020000040000fa
:04000800d61200000c
:020000040000fa
:04000c00d612000008
:020000040000fa
:04001000d612000004
:020000040000fa
:04001400d612000000
:020000040000fa
:04001800d6120000fc
:020000040000fa
:04001c00d6120000f8
:020000040000fa
:04002000d6120000f4
:020000040000fa
:04002400d6120000f0
:020000040000fa
:04002800d6120000ec
:020000040000fa
:04002c001e0f0000a3
:020000040000fa
:04003000d6120000e4
:020000040000fa
:04003400d6120000e0
:020000040000fa
:04003800d6120000dc
:020000040000fa
:04003c00600f000051
:020000040000fa
:04004000d6120000d4
:020000040000fa
:04004400e0020000d6
:020000040000fa
:04004800d6120000cc
:020000040000fa
:04004c00d6120000c8
:020000040000fa
:040050006810000034
:020000040000fa
:040054002e1b00005f
:020000040000fa
:040058001e12000074
:020000040000fa
:04005c00d6120000b8
:020000040000fa
:04006000d6120000b4
:020000040000fa
:04006400d6120000b0
:020000040000fa
:04006800d6120000ac
:020000040000fa
:04006c00d6120000a8
:020000040000fa
:04007000d6120000a4
:020000040000fa
:04007400d6120000a0
:020000040000fa
:04007800d61200009c
:020000040000fa
:04007c00d612000098
:020000040000fa
:04008000d612000094
:020000040000fa
:04008400d612000090
:020000040000fa
:04008800d61200008c
:020000040000fa
:04008c00d612000088
:020000040000fa
:04009000d612000084
:020000040000fa
:04009400d612000080
:020000040000fa
:04009800d61200007c
:020000040000fa
:04009c00d612000078
:020000040000fa
:0400a000d612000074
:020000040000fa
:0400a400d612000070
:020000040000fa
:0400a800d61200006c
:020000040000fa
:0400ac00d612000068
:020000040000fa
:0400b000d612000064
:020000040000fa
:0400b400d612000060
:020000040000fa
:0400b800d61200005c
:020000040000fa
:0400bc00a20f00008f
:020000040000fa
:0400c000e40f000049
:020000040000fa
:0400c4002610000002
:020000040000fa
:0400c800d61200004c
:020000040000fa
:0400cc00d612000048
:020000040000fa
:0400d000d612000044
:020000040000fa
:0400d400d612000040
:020000040000fa
:0400d800d61200003c
:020000040000fa
:0400dc00d612000038
:020000040000fa
:0400e000d612000034
:020000040000fa
:0400e400d612000030
:020000040000fa
:0400e800d61200002c
:020000040000fa
:0400ec00d612000028
:020000040000fa
:0400f0000c070000f9
:020000040000fa
:0400f400d612000020
:020000040000fa
:0400f800d61200001c
:020000040000fa
:0400fc00d612000018
:020000040000fa
:04010000d612000013
:020000040000fa
:04010400d61200000f
:020000040000fa
:04010800d61200000b
:020000040000fa
:04010c00d612000007
:020000040000fa
:04011000d612000003
:020000040000fa
:04011400d6120000ff
:020000040000fa
:04011800d6120000fb
:020000040000fa
:04011c00d6120000f7
:020000040000fa
:04012000d6120000f3
:020000040000fa
:04012400d6120000ef
:020000040000fa
:04012800d6120000eb
:020000040000fa
:04012c00d6120000e7
:020000040000fa
:04013000d6120000e3
:020000040000fa
:04013400d6120000df
:020000040000fa
:04013800d6120000db
:020000040000fa
:04013c00d6120000d7
:020000040000fa
:04014000d6120000d3
:020000040000fa
:04014400d6120000cf
:020000040000fa
:04014800d6120000cb
:020000040000fa
:04014c00d6120000c7
:020000040000fa
:04015000d6120000c3
:020000040000fa
:04015400d6120000bf
:020000040000fa
:04015800d6120000bb
:020000040000fa
:04015c00d6120000b7
:020000040000fa
:04016000d6120000b3
:020000040000fa
:04016400d6120000af
:020000040000fa
:04016800d6120000ab
:020000040000fa
:04016c00d6120000a7
:020000040000fa
:04017000d6120000a3
:020000040000fa
:04017400d61200009f
:020000040000fa
:04017800d61200009b
:020000040000fa
:04017c00d612000097
:020000040000fa
:04018000d612000093
:020000040000fa
:04018400d61200008f
:020000040000fa
:04018800d84f00004c
:020000040000fa
:04018c007a120000e3
:020000040000fa
:04019000d612000083
:020000040000fa
:04019400d61200007f
:020000040000fa
:04019800d61200007b
:020000040000fa
:04019c00d612000077
:020000040000fa
:0401a000d612000073
:020000040000fa
:0401a400d61200006f
:020000040000fa
:0401a800d61200006b
:020000040000fa
:0401ac00d612000067
:020000040000fa
:0401b000d612000063
:020000040000fa
:0401b400d61200005f
:020000040000fa
:0401b800d61200005b
:020000040000fa
:0401bc00d612000057
:020000040000fa
:0401c000d612000053
:020000040000fa
:0401c400d61200004f
:020000040000fa
:0401c800d61200004b
:020000040000fa
:0401cc00d612000047
:020000040000fa
:0401d000d612000043
:020000040000fa
:0401d400d61200003f
:020000040000fa
:0401d800d61200003b
:020000040000fa
:0401dc00d612000037
:020000040000fa
:0401e000d612000033
:020000040000fa
:0401e400d61200002f
:020000040000fa
:0401e800d61200002b
:020000040000fa
:0401ec00d612000027
:020000040000fa
:0401f000d612000023
:020000040000fa
:0401f400d61200001f
:020000040000fa
:0401f800d61200001b
:020000040000fa
:0401fc00d612000017
:020000040000fa
:04020000d612000012
:020000040000fa
:04020400d61200000e
:020000040000fa
:04020800d61200000a
:020000040000fa
:04020c00d612000006
:020000040000fa
:04021000d612000002
:020000040000fa
:04021400d6120000fe
:020000040000fa
:04021800d6120000fa
:020000040000fa
:04021c00d6120000f6
:020000040000fa
:04022000d6120000f2
:020000040000fa
:04022400d6120000ee
:020000040000fa
:04022800d6120000ea
:020000040000fa
:04022c00d6120000e6
:020000040000fa
:04023000d6120000e2
:020000040000fa
:04023400d6120000de
:020000040000fa
:04023800d6120000da
:020000040000fa
:04023c00d6120000d6
:020000040000fa
:04024000d6120000d2
:020000040000fa
:04024400d6120000ce
:020000040000fa
:04024800d6120000ca
:020000040000fa
:04024c00d6120000c6
:020000040000fa
:04025000d6120000c2
:020000040000fa
:04025400d6120000be
:020000040000fa
:04025800d6120000ba
:020000040000fa
:04025c00d6120000b6
:020000040000fa
:04026000d6120000b2
:020000040000fa
:04026400d6120000ae
:020000040000fa
:10040000af3822000eff27000e0188000000000018
:10041000000020000000e000020032000001200087
:10042000200288000c00070020f5240001002000b5
:100430000f000700000020000000e0000200320072
:10044000000002000000000034060200000000006e
:100450000040da000000fe00202320000000e00041
:1004600002003200002020009001880000000600f9
:10047000a1028800800078000000eb001a0037001d
:10048000e280400054a0b4009101ba00e280400034
:1004900054a0b4009102ba00e280400054a0b4001d
:1004a0000002eb00472bde00f507b200a601880032
:1004b000602ce10008003a000049eb000201e8006e
:1004c000020039003420ec0002f0a0008301e900b2
:1004d000f9ff3e00040037006128e100010032000e
:1004e0000082eb000b00070011c3ba001101ba0033
:1004f0000604e00003003a000200e000e0ff3a00da
:1005000000000600f607b200a6028800820078000c
:10051000f5ff370004d0a300e20f49001c003900aa
:10052000810278003549ba000201e8000200390072
:100530003420ec0002f0a0008301e9000f0032003b
:100540002549ba000201e800020039003420ec001d
:1005500002f0a0008301e900080032000400e0007e
:100560000600320015c9ba000201e8000200390095
:100570003420ec0002f0a0008301e9008180e80053
:1005800054a0b4000300e000e2ff3a0000000600bf
:100590009102ba00055978008301e900f7ff3200a3
:1005a000c82ade00055978008301e900f3ff320014
:1005b0000400e000f1ff320011d9ba00eeff37006d
:1005c0003600f800809fbe00829fbe00849fbe0060
:1005d000869fbe00889fbe008a1f78003200f80008
:1005e0003400f80010002000a00188000020200046
:1005f00090018800000000000030ec0013e1a8002a
:1006000000e8a9000230ec0004cea800d91a81004d
:100610000900e00003003a00101c81000010a00057
:10062000101c8900e81a81000800e00003003a006d
:10063000101c81000020a000101c8900f71a810006
:100640000700e00003003a00101c81000030a00009
:10065000101c8900061b81000600e00003003a0020
:10066000101c81000040a000101c8900151b810097
:100670000500e00003003a00101c81000050a000bb
:10068000101c8900241b81000400e00003003a00d4
:10069000101c81000060a000101c8900331b810029
:1006a0000300e00003003a00101c81000070a0006d
:1006b000101c8900421b81000200e00003003a0088
:1006c000101c81000080a000101c8900511b8100bb
:1006d0000100e00003003a00101c81000090a0001f
:1006e000101c8900601b81000000e00003003a003c
:1006f0001a1c81000aa0a0001a1c89008904e800c5
:10070000d91a8900e28f540002003a00a93522006c
:10071000800ceb000804e800e81a8900e50f54009b
:1007200002003a00c8352200000ceb008703e80005
:10073000f71a8900ea8f530002003a00e7352200d9
:10074000800beb000603e800061b8900f40f530042
:1007500002003a0006362200000beb008502e8009a
:10076000151b8900f48f520002003a002536220042
:10077000800aeb000402e800241b8900f40f5200f9
:1007800002003a0044362200000aeb008301e80030
:10079000331b8900f48f510002003a0063362200b7
:1007a0008009eb000201e800421b8900f40f5100b0
:1007b00002003a00823622000009eb008100e800c6
:1007c000511b8900f98f500002003a00a136220027
:1007d0008008eb000000e800601b89002103200076
:1007e000810f500002003a00c03622000008eb00e2
:1007f00050088000318080008100500021808800f6
:10080000308088000000eb00284602000000000055
:1008100000e8a90000e8ab00030032000230ed0060
:100820000030ed000601370042a0a80042c0a90038
:10083000201c81000018a300030032000230ed00ec
:100840000030ed00fe003700101c81000018a300ee
:1008500010003200201c81000010a000201c890024
:1008600018002000101c81000010a100101c89003d
:10087000080078002846020000000000101c8100db
:100880000018a300f7ff3a00201c81000010a1000f
:10089000201c8900201c81000028a30003003200d6
:1008a0000230ed000030ed00e5003700101c810043
:1008b0000028a30010003200201c81000020a000ae
:1008c000201c890028002000101c81000020a100ad
:1008d000101c890008007800284602000000000073
:1008e000101c81000028a300f7ff3a00201c8100a3
:1008f0000020a100201c8900201c81000038a300da
:10090000030032000230ed000030ed00cc00370073
:10091000101c81000038a30010003200201c810050
:100920000030a000201c890038002000101c81002d
:100930000030a100101c8900080078002846020041
:1009400000000000101c81000038a300f7ff3a00ef
:10095000201c81000030a100201c8900201c810087
:100960000048a300030032000230ed000030ed002b
:10097000b3003700101c81000048a30010003200b3
:10098000201c81000040a000201c8900480020009d
:10099000101c81000040a100101c89000800780094
:1009a0002846020000000000101c81000048a3003f
:1009b000f7ff3a00201c81000040a100201c8900a4
:1009c000201c81000058a300030032000230ed001b
:1009d0000030ed009a003700101c81000058a30081
:1009e00010003200201c81000050a000201c890053
:1009f00058002000101c81000050a100101c89002c
:100a0000080078002846020000000000101c810049
:100a10000058a300f7ff3a00201c81000050a100fd
:100a2000201c8900201c81000068a3000300320004
:100a30000230ed000030ed0081003700101c810015
:100a40000068a30010003200201c81000060a0009c
:100a5000201c890068002000101c81000060a1009b
:100a6000101c8900080078002846020000000000e1
:100a7000101c81000068a300f7ff3a00201c8100d1
:100a80000060a100201c8900201c81000078a300c8
:100a9000030032000230ed000030ed006800370046
:100aa000101c81000078a30010003200201c81007f
:100ab0000070a000201c890078002000101c81001c
:100ac0000070a100101c8900080078002846020070
:100ad00000000000101c81000078a300f7ff3a001e
:100ae000201c81000070a100201c8900201c8100b6
:100af0000088a300030032000230ed000030ed005a
:100b00004f003700101c81000088a3001000320045
:100b1000201c81000080a000201c8900880020008b
:100b2000101c81000080a100101c890008007800c2
:100b30002846020000000000101c81000088a3006d
:100b4000f7ff3a00201c81000080a100201c8900d2
:100b5000201c81000098a300030032000230ed0049
:100b60000030ed0036003700101c81000098a30013
:100b700010003200201c81000090a000201c890081
:100b800098002000101c81000090a100101c89001a
:100b9000080078002846020000000000101c8100b8
:100ba0000098a300f7ff3a00201c81000090a100ec
:100bb000201c8900201c810000a8a3000300320033
:100bc0000230ed000030ed001d003700101c8100e8
:100bd00000a8a30010003200201c810000a0a0008b
:100be000201c8900a8002000101c810000a0a1008a
:100bf000101c890008007800284602000000000050
:100c0000101c810000a8a300f7ff3a00201c8100ff
:100c100000a0a100201c890042c0a80042a0a90099
:100c20000230ed000210e20001003a0004cea900fb
:100c30000030ed000010e20001003a0013e1a900cd
:100c40003400f9003200f9004f0578004f04be006f
:100c50004f03be004f02be004f01be004f00be005a
:100c60003600f900004006004387ab001600320052
:100c700043c7ab0014003a00a10920000001eb00bb
:100c80008007200033742000804978008149780073
:100c900082497800710520001200200060042000c5
:100ca00023742000804978008149780082497800c7
:100cb000000000000000000000002700123a800041
:100cc00082006000fdff3a00300f2000303a8800bb
:100cd00052002000223a8800a109200033002000a1
:100ce0008007200034742000004a7800014a780010
:100cf000034a7800710520001300200060042000e2
:100d000024742000004a7800014a7800034a7800e1
:100d1000f1fb2f007170880030fc2f00f07088000c
:100d200023fc2f007372880003842400733588002d
:100d3000b3f42100833588005301200093358800e7
:100d40003305200043368800031021004334880017
:100d500052348800d2012000623488000210200042
:100d60008234880002002100c23488000260200022
:100d7000f2348800017088008070880067004000ad
:100d80000072880070ff2f0080728800e0ff27004b
:100d9000007388000100270000002300133a800040
:100da00003816000800f5100fcff3a000002200028
:100db000123a800082006000fdff320060460200af
:100dc000000000008080eb0011088800000128006e
:100dd000200888001042800000c0a10000d0a000c0
:100de00000e0a1001042880000e8a90020e8a80067
:100df00080ab220060088800710888000002200093
:100e00009008880070ab220030088800000228009b
:100e100080088800ffff3700809fbe00829fbe00d1
:100e2000849fbe00869fbe00881f78003200f800b5
:100e30003400f80010002000a001880000202000ed
:100e400090018800000000000648a9000030ec0076
:100e500013e1a800c418810022072000030020002d
:100e60008002eb00a631220067ff2f006e045300c2
:100e7000001881008000eb00820f5000838f580023
:100e8000d7033e00000601007200370080003700e3
:100e90008a00370091003700990037009e00370024
:100ea000a4003700aa003700af003700b5003700b4
:100eb000ba003700c3003700c8003700d100370040
:100ec000d6003700db003700e1003700e7003700cd
:100ed000ed003700f2003700f9003700fe00370060
:100ee000040137000a0137000f01370015013700f0
:100ef0001a0137002301370028013700310137007c
:100f0000360137003b013700410137004701370008
:100f10004d01370052013700590137005e0137009b
:100f2000640137006a0137006f013700750137002f
:100f30007a013700830137008801370091013700bb
:100f4000960137009f013700a4013700ad0137003b
:100f5000b2013700bb013700c0013700c9013700bb
:100f6000ce013700d7013700dc013700e50137003b
:100f7000ea013700f3013700f801370001023700ba
:100f8000060237000f023700140237001d02370037
:100f9000220237002b0237003002370039023700b7
:100fa0003e023700470237004c0237005502370037
:100fb0005a023700630237006802370071023700b7
:100fc000760237007f023700840237008d02370037
:100fd000920237009b023700a0023700a9023700b7
:100fe000ae023700b5023700ba023700c002370040
:100ff000c6023700cb023700d0023700d6023700d6
:10100000db023700e4023700e9023700f202370062
:10101000f702370000033700050337000e033700df
:10102000130337001c033700210337002a0337005e
:101030002f033700360337003b03370041033700e7
:10104000460337004c03370051033700560337007f
:101050005b03370016006a0000f0a7000000ea00fa
:101060000000ea004f00de000004e00069033200e7
:10107000840042008100440091007800011889003a
:10108000e40f52005a033e000402e80059033700ff
:10109000c4188900006ea800004ea80017e2a8003e
:1010a00060ff2f001822b6001622a8000018810049
:1010b0000000e8000018890051033700c4188900b7
:1010c00060ff2f001822b6001642a8000018810009
:1010d0000000e80000188900490337008021200043
:1010e000108863000518890016006a0000f0a70048
:1010f0000000ea000000ea004f00de003d03370078
:10110000c41889001602a800001881000000e80039
:10111000001889003a033700c4188900e00e200047
:1011200090108800001881000000e8000018890075
:1011300033033700c4188900600f20009010880026
:10114000001881000000e800001889002c03370017
:10115000c41889001622a800001881000000e800c9
:101160000018890026033700c4188900f00e2000fb
:1011700090108800001881000000e8000018890025
:101180001f033700c41889001662a80000188100e8
:101190000000e8000018890019033700c41889000e
:1011a00081108000c03122000148780016a2a900f9
:1011b0001682a800001881000000e80000188900cd
:1011c0000f033700c41889001662a80000188100b8
:1011d0000000e8000018890009033700c4188900de
:1011e00081108000d03122000148780016a2a800aa
:1011f0001682a800001881000000e800001889008d
:10120000ff023700c41889001642a80000188100a8
:101210000000e80000188900f9023700c4188900ae
:101220001602a800001881000000e80000188900dc
:10123000f3023700c4188900e00e200090108800e7
:10124000001881000000e80000188900ec02370057
:10125000c4188900400f20009010880000188100f9
:101260000000e80000188900e5023700c418890072
:101270004003200090108800001881000000e80062
:1012800000188900de023700c41889001642a80041
:10129000001881000000e80000188900d80237001b
:1012a000151889000518890016006a0000f0a700cb
:1012b0000000ea000000ea004f00de00cd02370027
:1012c000c41889001602a800001881000000e80078
:1012d00000188900ca023700c4188900e00e2000f7
:1012e00090108800001881000000e80000188900b4
:1012f000c3023700c4188900600f200090108800d6
:10130000001881000000e80000188900bc023700c6
:10131000c41889001622a800001881000000e80007
:1013200000188900b6023700c4188900f00e2000aa
:1013300090108800001881000000e8000018890063
:10134000af023700c41889001662a8000018810097
:101350000000e80000188900a9023700c4188900bd
:1013600081108000e03122000148780016a2a90017
:101370001682a800001881000000e800001889000b
:101380009f023700c41889001662a8000018810067
:101390000000e8000018890099023700c41889008d
:1013a00081108000f03122000148780016a2a800c8
:1013b0001682a800001881000000e80000188900cb
:1013c0008f023700c41889001642a8000018810057
:1013d0000000e8000018890089023700c41889005d
:1013e0001602a800001881000000e800001889001b
:1013f00083023700c4188900e00e20009010880096
:10140000001881000000e800001889007c02370005
:10141000c4188900400f2000901088000018810037
:101420000000e8000018890075023700c418890020
:10143000e002200090108800001881000000e80001
:10144000001889006e023700c41889001642a800ef
:10145000001881000000e8000018890068023700c9
:10146000251889000518890016006a0000f0a700f9
:101470000000ea000000ea004f00de005d023700d5
:10148000c41889001602a800001881000000e800b6
:10149000001889005a023700c4188900e00e2000a5
:1014a00090108800001881000000e80000188900f2
:1014b00053023700c4188900a00a20009010880049
:1014c000001881000000e800001889004c02370075
:1014d000c41889001622a800001881000000e80046
:1014e0000018890046023700c4188900f00e200059
:1014f00090108800001881000000e80000188900a2
:101500003f023700c41889001662a8000018810045
:101510000000e8000018890039023700c41889006b
:1015200081108000003222000148780016a2a90034
:101530001682a800001881000000e8000018890049
:101540002f023700c41889001662a8000018810015
:101550000000e8000018890029023700c41889003b
:1015600081108000103222000148780016a2a900e4
:101570001682a800001881000000e8000018890009
:101580001f023700c41889001662a80000188100e5
:101590000000e8000018890019023700c41889000b
:1015a00081108000203222000148780016a2a90094
:1015b0001682a800001881000000e80000188900c9
:1015c0000f023700c41889001662a80000188100b5
:1015d0000000e8000018890009023700c4188900db
:1015e00081108000303222000148780016a2a90044
:1015f0001682a800001881000000e8000018890089
:10160000ff013700c41889001662a8000018810085
:101610000000e80000188900f9013700c4188900ab
:1016200081108000403222000148780016a2a900f3
:101630001682a800001881000000e8000018890048
:10164000ef013700c41889001662a8000018810055
:101650000000e80000188900e9013700c41889007b
:1016600081108000503222000148780016a2a900a3
:101670001682a800001881000000e8000018890008
:10168000df013700c41889001662a8000018810025
:101690000000e80000188900d9013700c41889004b
:1016a00081108000603222000148780016a2a90053
:1016b0001682a800001881000000e80000188900c8
:1016c000cf013700c41889001662a80000188100f5
:1016d0000000e80000188900c9013700c41889001b
:1016e00081108000703222000148780016a2a90003
:1016f0001682a800001881000000e8000018890088
:10170000bf013700c41889001662a80000188100c4
:101710000000e80000188900b9013700c4188900ea
:1017200081108000803222000148780016a2a900b2
:101730001682a800001881000000e8000018890047
:10174000af013700c41889001662a8000018810094
:101750000000e80000188900a9013700c4188900ba
:1017600081108000903222000148780016a2a90062
:101770001682a800001881000000e8000018890007
:101780009f013700c41889001662a8000018810064
:101790000000e8000018890099013700c41889008a
:1017a00081108000a03222000148780016a2a90012
:1017b0001682a800001881000000e80000188900c7
:1017c0008f013700c41889001662a8000018810034
:1017d0000000e8000018890089013700c41889005a
:1017e00081108000b03222000148780016a2a900c2
:1017f0001682a800001881000000e8000018890087
:101800007f013700c41889001662a8000018810003
:101810000000e8000018890079013700c418890029
:1018200081108000c03222000148780016a2a90071
:101830001682a800001881000000e8000018890046
:101840006f013700c41889001662a80000188100d3
:101850000000e8000018890069013700c4188900f9
:1018600081108000d03222000148780016a2a90021
:101870001682a800001881000000e8000018890006
:101880005f013700c41889001662a80000188100a3
:101890000000e8000018890059013700c4188900c9
:1018a00081108000e03222000148780016a2a900d1
:1018b0001682a800001881000000e80000188900c6
:1018c0004f013700c41889001662a8000018810073
:1018d0000000e8000018890049013700c418890099
:1018e00081108000f03222000148780016a2a90081
:1018f0001682a800001881000000e8000018890086
:101900003f013700c41889001662a8000018810042
:101910000000e8000018890039013700c418890068
:1019200081108000003322000148780016a2a9002f
:101930001682a800001881000000e8000018890045
:101940002f013700c41889001662a8000018810012
:101950000000e8000018890029013700c418890038
:1019600081108000103322000148780016a2a900df
:101970001682a800001881000000e8000018890005
:101980001f013700c41889001662a80000188100e2
:101990000000e8000018890019013700c418890008
:1019a00081108000203322000148780016a2a9008f
:1019b0001682a800001881000000e80000188900c5
:1019c0000f013700c41889001662a80000188100b2
:1019d0000000e8000018890009013700c4188900d8
:1019e00081108000303322000148780016a2a9003f
:1019f0001682a800001881000000e8000018890085
:101a0000ff003700c41889001662a8000018810082
:101a10000000e80000188900f9003700c4188900a8
:101a200081108000403322000148780016a2a900ee
:101a30001682a800001881000000e8000018890044
:101a4000ef003700c41889001662a8000018810052
:101a50000000e80000188900e9003700c418890078
:101a600081108000503322000148780016a2a8009f
:101a70001682a800001881000000e8000018890004
:101a8000df003700c41889001642a8000018810042
:101a90000000e80000188900d900370035188900d7
:101aa0000518890016006a0000f0a7000000ea008f
:101ab0000000ea004f00de00ce003700c4188900a5
:101ac0001602a800001881000000e8000018890034
:101ad000cb003700c4188900c00320009010880094
:101ae000001881000000e80000188900c4003700d9
:101af000c418890030002000901088000018810070
:101b00000000e80000188900bd003700c4188900f3
:101b10001642a800001881000000e80000188900a3
:101b2000b7003700c41889001602a8000018810009
:101b30000000e80000188900b1003700c4188900cf
:101b4000d003200090108800001881000000e800f9
:101b500000188900aa003700c41889001662a8007e
:101b6000001881000000e80000188900a400370078
:101b7000c418890081108000603322000148780079
:101b800016a2a9001682a800001881000000e80033
:101b9000001889009a003700c41889001662a8004e
:101ba000001881000000e800001889009400370048
:101bb000c418890081108000703322000148780029
:101bc00016a2a9001682a800001881000000e800f3
:101bd000001889008a003700c41889001662a8001e
:101be000001881000000e800001889008400370018
:101bf000c4188900811080008033220001487800d9
:101c000016a2a9001682a800001881000000e800b2
:101c1000001889007a003700c41889001662a800ed
:101c2000001881000000e8000018890074003700e7
:101c3000c418890081108000903322000148780088
:101c400016a2a9001682a800001881000000e80072
:101c5000001889006a003700c41889001662a800bd
:101c6000001881000000e8000018890064003700b7
:101c7000c418890081108000a03322000148780038
:101c800016a2a9001682a800001881000000e80032
:101c9000001889005a003700c41889001662a8008d
:101ca000001881000000e800001889005400370087
:101cb000c418890081108000b033220001487800e8
:101cc00016a2a8001682a800001881000000e800f3
:101cd000001889004a003700c41889001642a8007d
:101ce000001881000000e800001889004400370057
:101cf000451889000518890016006a0000f0a70041
:101d00000000ea000000ea004f00de003900370062
:101d1000c41889001602a800001881000000e8001d
:101d20000018890036003700c4188900c00320005d
:101d300090108800001881000000e8000018890059
:101d40002f003700c41889001222ef00001881000c
:101d50000000e8000018890029003700c418890035
:101d60008007200090108800001881000000e80023
:101d70000018890022003700c41889001222ef00e1
:101d8000001881000000e800001889001c003700de
:101d9000c41889001222ef00001881000000e8003a
:101da0000018890016003700c41889001642a800e0
:101db000001881000000e8000018890010003700ba
:101dc000551889000518890016006a0000f0a70060
:101dd0000000ea000000ea004f00de0005003700c6
:101de000c41889000000eb000018890004003700c7
:101df00005027800e14f50001dfc3200c418890034
:101e00000030ed000010e20004003a0013e1a900e8
:101e100002003700c4188900f9ff37003400f900c8
:101e20003200f9004f0478004f03be004f02be009d
:101e30004f01be004f00be0000400600809fbe0064
:101e40003200f8003400f80010002000a0018800e3
:101e50000020200090018800000000000030ec000d
:101e600013e1a8004061ab0003003200200a8000ab
:101e70004061ab00fdff3a004001ab0002003200c0
:101e80004001a900040037004001a800011c8100a6
:101e900081005000711b8900001c89000030ed009a
:101ea0000010e20001003a0013e1a9000028a90097
:101eb0003400f9003200f9004f00be000040060077
:101ec000809fbe003200f8003400f80010002000af
:101ed000a001880000202000900188000000000080
:101ee0000030ec0013e1a8004861ab0003003200b1
:101ef000600a80004861ab00fdff3a004801ab007a
:101f0000020032004801a900040037004801a8007f
:101f1000f11b810081005000811b8900f01b8900aa
:101f20000030ed000010e20001003a0013e1a900ca
:101f300000a8a9003400f9003200f9004f00be00eb
:101f400000400600809fbe003200f8003400f80018
:101f500010002000a00188000020200090018800cf
:101f6000000000000030ec0013e1a8005061ab005d
:101f700003003200a00a80005061ab00fdff3a0070
:101f80005001ab00020032005001a90004003700ec
:101f90005001a800e11b810081005000911b8900c5
:101fa000e01b89000030ed000010e20001003a0063
:101fb00013e1a90004a8a9003400f9003200f900d7
:101fc0004f00be0000400600809fbe003200f800b7
:101fd0003400f80010002000a0018800002020003c
:101fe00090018800000000000030ec0013e1a80020
:101ff0005861ab0003003200e00a80005861ab007a
:10200000fdff3a005801ab00020032005801a90060
:10201000040037005801a800d11b81008100500046
:10202000a11b8900d01b89000030ed000010e200e8
:1020300001003a0013e1a90004c8a9003400f90026
:102040003200f9004f00be0000400600809fbe0035
:102050003200f8003400f80010002000a0018800d1
:102060000020200090018800000000000030ec00fb
:1020700013e1a8006061ab0003003200200b800078
:102080006061ab00fdff3a006001ab00020032006e
:102090006001a900040037006001a800c11b810095
:1020a00081005000b11b8900c01b89000030ed0089
:1020b0000010e20001003a0013e1a90004e8a900c1
:1020c0003400f9003200f9004f00be000040060065
:1020d00000a0fe003600f800849fbe00869fbe0070
:1020e000889fbe008a9fbe008c9fbe003200f80011
:1020f0003400f80014002000a4018800042020000f
:1021000094018800000000000148a9000030ec00a4
:1021100013e1a800321a8100ac3422008c85e8005b
:102120000b85e8008a84e8000984e8008883e800d9
:102130000783e800f533220083342200e4332200d1
:10214000e01981008000eb00e90f5000e08f58009b
:10215000a1003e000006010009003700180037000a
:1021600024003700310037003e0037004b003700b5
:1021700058003700650037006f0037007d003700da
:102180001300690000f0a7000000ea000000ea0068
:102190004f00de000004e0009c003200820041009d
:1021a0000d3422008180460091007800e1198900f9
:1021b000e10f51008c003e000201e8008b00370067
:1021c000321a8900448ea80000e62a00a1002000ef
:1021d0000e50020000000000448ea90000b8260046
:1021e00040128800e01981000000e800e019890031
:1021f00081003700321a8900448ea8000064210053
:10220000010420000e50020000000000448ea900ce
:102210004012800010b0260040128800e0198100b2
:102220000000e800e019890073003700321a8900c5
:10223000448ea80000e62a00a10020000e500200f3
:1022400000000000448ea9004012800000a126007a
:1022500040128800e01981000000e800e0198900c0
:1022600065003700321a8900448ea80000e62a0073
:10227000a10020000e50020000000000448ea900c2
:10228000401280004090210040128800e019810037
:102290000000e800e019890057003700321a890071
:1022a000448ea80000e62a00a10020000e50020083
:1022b00000000000448ea9004012800030a02100e0
:1022c00040128800e01981000000e800e019890050
:1022d00049003700321a8900448ea80000e62a001f
:1022e000a10020000e50020000000000448ea90052
:1022f0004012800080b0210040128800e019810067
:102300000000e800e01989003b003700448ea80077
:1023100040128000004aeb000000eb00e019890049
:102320001300690000f0a7000000ea000000ea00c6
:102330004f00de002d003700321a8900448ea900bc
:1023400000a02b00401288004822ef004822ef0036
:102350004822ef004822ef004822ef004822ef0019
:102360004822ef00e01981000000e800e019890030
:1023700021003700448ea8004012800040128000e7
:10238000000e780040128000800d7800401280001e
:10239000000d780040128000800c78004012800010
:1023a000000c780040128000800b78004012800002
:1023b000000b7800804aeb000000eb00e019890078
:1023c0001300690000f0a7000000ea000000ea0026
:1023d0004f00de0005003700321a89000000eb00d4
:1023e000e0198900040037000001eb00e14f5000c4
:1023f00053ff3200321a89000030ed000010e20075
:1024000004003a0013e1a90002003700321a8900e3
:10241000f9ff37003400f9003200f9004f06be0022
:102420004f05be004f04be004f03be004f02be006a
:102430003600f9000080fe0000400600809fbe00cc
:10244000829fbe00849fbe00861f78003200f80085
:102450003400f80010002000a001880000202000b7
:1024600090018800000000000188a9000030ec0005
:1024700013e1a8002322ab0013003a00e20d810013
:10248000f00d8100800f51000f003200e01b220090
:10249000e5ef2f0080824200f40f2000032020008f
:1024a000908042009180fb00211188009000e8009c
:1024b00004886000161180008680610002003a00e6
:1024c000900f1100f6ff3a000030ed000010e2001e
:1024d00001003a0013e1a9003400f9003200f900cc
:1024e0004f0378004f02be004f01be004f00be00f8
:1024f00000400600809fbe00829fbe00849fbe00f9
:10250000861f78003200f8003400f8001000200028
:10251000a001880000202000900188000000000039
:102520000b28a9000030ec0013e1a800b322ab0097
:1025300013003a00e2178100f0178100800f51006c
:102540000f003200e02f2200e5f72f0080824200ca
:10255000f407200003202000908042009180fb00bf
:10256000a11588009000e80004886000961580009e
:102570008680610002003a00900f1100f6ff3a00d9
:102580000030ed000010e20001003a0013e1a90064
:102590003400f9003200f9004f0378004f02be000a
:1025a0004f01be004f00be00004006000040da00b0
:1025b0000000fe006900e100040035006d00e1004c
:1025c000030034000002b1000100320000000500e9
:1025d0001000050003f0a200889fbe008a9fbe0085
:1025e0008c1f78001d010700240133006450e100b6
:1025f0004f0032006420e1005200320003826c0080
:1026000007003b000905d0000306d000820f5400ec
:102610000c065d00020039000200320089017800da
:10262000030678008582550004003d000003fd008c
:102630008103fd008502ea008b854200840f720051
:1026400002003b0060001000e08018006011b8003c
:102650000005eb007a28e1000a0039000600780046
:10266000c75ddd00f707b200878075002d003700d9
:10267000828171000a017800610560008180d100cb
:102680000080d3008502e900f9ff3b00060440000a
:102690008784480002003b0060041400e0841c00b2
:1026a0000988a300070032008a81710082817100cd
:1026b000610164008904d1000884d3008b05e8001f
:1026c000170037000978a30013003a000b00e00060
:1026d000130034008b05e9000804440089844c0091
:1026e0000a4474000978a3000d003a000b00e000d2
:1026f000070034008b05e9000804440089844c007d
:1027000001003a000b0020000978a300f7ff320017
:102710000001eb0002003700828171000a0178009d
:10272000930007000cf0a70001f0a000dc003700c8
:102730006420e10002003a00838f6c00dc0033006b
:102740000801be000200be00d5003700889fbe0011
:102750008a9fbe008c1f7800c0000700c7003300ae
:1027600003866c006450e1002e0032006420e1001a
:10277000330032006150e1002f0032006120e1009f
:102780003100320085855500eb07b00009002000bc
:1027900008042000050037000804440089844c0028
:1027a0000a0031000603430087834b0000015300f9
:1027b00081815b00f8ff33000203be000800a00027
:1027c0000804440089844c00f6ff3900c639dd0056
:1027d0008301730001003200130020008904d1003e
:1027e0000884d3000998a300050032000800a70060
:1027f0000300a0008904d1000884d3008b05e80001
:102800008904d1000884d3000001eb000281d200ca
:102810005700070001f0a1000cf0a70001f0a00094
:102820009f0037006420e100a10032000801be00d3
:102830000200be00f7ff37006120e1009c0032007b
:102840006000b800f3ff37000000200001f8270007
:10285000f0ff370014002000df003700f4ff2f00e6
:10286000dd0037000001be00670007000470a7000c
:1028700003f0a1006509b100160032000d0035001b
:102880006828e10006003500f0ff2f00f1ff270067
:102890000300e00013003b000100280000000500d9
:1028a00000004000818048008502e900fcff3a00fa
:1028b00008003700f88f420002003c008000eb0067
:1028c000000005008100d1000080d3008502e800ef
:1028d000fcff3a000300e00002003b006000100033
:1028e000e0801800000006000001be00460007005e
:1028f0000470a70003f0a10003f8a30013003a003e
:102900006509b10010003200090035006928e100b6
:102910000200350001002800000005000000400012
:10292000818048008502e900fcff3a0000000600b3
:10293000f88f4200050035008100d1000080d300ef
:102940008502e800fcff3a00000006008000eb0072
:10295000000005004f89de0082017800b9003700d1
:102960006011b800c7003700040020009a0037004b
:1029700081002000618055000b003d000b0020000d
:1029800061fe2f000100e1001d0034008281710012
:10299000610164008904d1000884d3000000e800cc
:1029a000faff3a007100200061006400030070002b
:1029b000020060000900320061044400e0844c0021
:1029c0000988a500050032008b05e8006808e100d1
:1029d00002003a008904d1000884d300f20f2000dd
:1029e0000258e10005003d00c75ddd00f907b200b7
:1029f0008980750008007800000006000bf82700a9
:102a00008b00780000000500c70ade00f107b20065
:102a1000f50fb20008003200e1cf420002003200a0
:102a20000170a00024000500810f70000100320039
:102a30000408050044000500810f700002003a0000
:102a4000140005008502e9000000400081c0480034
:102a5000fcff3b000170a000240005000004be0044
:102a6000e9ff07000003be000405be000200be002f
:102a7000e5ff0700844f7500000006000200be005d
:102a80006450e100050036006420e10002003600d9
:102a90000968a30001003a000800be000160a00020
:102aa0004f0678004f05be004f04be000000060030
:102ab000f0ff2f00f1ff2700f9ff3700889fbe00cd
:102ac0008a9fbe008c1f7800e4ff0700ebff3300f5
:102ad00003866c006450e100240032006420e100b1
:102ae000270032006150e100220032006120e10045
:102af000210032008b854200eb07b1000134b800a1
:102b0000003ab8000804420089844a00013ab8003b
:102b10000030b8008880400009014a0004003300fa
:102b20000000400081804800020149008b05e90057
:102b3000c909dd008301700001003200130020008c
:102b4000c814de004814dd004709de001200b200a0
:102b5000c808de000884700085ff070001f0a100ae
:102b60000cf0a70001f0a000cdff37006120e100cc
:102b7000cfff32000801be000200be00f7ff3700a1
:102b80006150e100fcff3a00c9ff37006022b80045
:102b9000060220000000d0008180d2000482d20012
:102ba0008582d2000000a0000202520083825a00f7
:102bb000030031000202420083824a000000a100ab
:102bc0000603e900f3ff3a0000000600efff0700ec
:102bd0000400be0000000600889fbe008a9fbe0061
:102be000841f78009dff07004f007800110033001c
:102bf000f0ff2f00838f6c0006003b00040565008a
:102c00000a00a7000800370009f0a6001000200005
:102c100008003700820f5400838f5c0003003900e6
:102c20001000200001003e000000200009f0a70075
:102c30000000ea004f05be004f04be000000e000a7
:102c400000000600881f7800030478000300e000fd
:102c500007003d0060001000e080180060011900ce
:102c6000e081190002003b0001f02d000300370055
:102c70000400070008f0a70001f0a0004f0478004e
:102c800000000600889fbe008a9fbe000082700080
:102c90000402710004827100260032000004be00ac
:102ca0000200be006011b8006b09200095022000f0
:102cb0000182cf000a0039000541b1000082cf0037
:102cc000070039000541b1000982cf000400390036
:102cd0000541b1000882cf00010039000541b10073
:102ce00005425200120032000a003b00828171004e
:102cf000610164008100d1000080d3008984d30089
:102d00000884d3008b05e8000442e800f7ff3a008e
:102d1000070037000804440089844c000000480084
:102d2000818048008b05e9000442e900f9ff3a0080
:102d30000fff07004f05be004f04be000000060055
:102d4000889fbe008a9fbe008c9fbe008e1f7800a9
:102d5000010678000c00e00001003200000e78004f
:102d600080047800090578008a047800b905fb0022
:102d70000b0078000ffe07000000e000f9ff3a00aa
:102d8000d0022000808f550003003a00090578002a
:102d900018c0b300050037000044eb00b00220006b
:102da000808f550001003a00090578006000b800e6
:102db0008004eb000007eb00010037000a05e80083
:102dc0000a0178000848a30005003a00e3c2b300f6
:102dd0009acf110002003a000844a000f7ff370024
:102de0009a4578008b01fb000303b100e98f510085
:102df00016003e000814a0000801fb00e98f5400f3
:102e00000e0032000248a300010032000e07e90064
:102e10008904e800a200200003002000e30007006e
:102e200002cdb30002c145000281fb008001eb002e
:102e30000000410081804900e0ff37000248a30004
:102e4000deff3a000e07e800dcff370053c6b30090
:102e500083cf5500040032008004eb0053c4b3005c
:102e600083cf55002d003a005a417800d3c2b300f9
:102e7000834f510002003a000834a00003003700dd
:102e8000b3c2b300834f510001003a000a05e800c5
:102e90000a017800020578003a42780003c3b300c3
:102ea000834f5200faff32008402fb000503b10099
:102eb0008004eb00e98f520015003e00834452006d
:102ec0008984fb000a017800124278008402fb002a
:102ed0000503b100e98f52000d003e00ea4bb90036
:102ee000834452008984fb00868444005242780067
:102ef0008402fb000503b100e98f520004003e008c
:102f0000ea4bb900834152008381fb0083044300f4
:102f10000838a300010032008904ea000c00e00038
:102f2000030032000818a30001003200020e7800ee
:102f300088fe07000005be000006be006011b80054
:102f400044fe0700000178006000b8000200e000c5
:102f5000580032008e84440032f82f00828f5400d3
:102f600003003d0022022000421c8900510037006e
:102f700000082000808f5400070034002002200049
:102f8000401c89000808a300450032000000200012
:102f900001f82f00470037000900e0001b003d004a
:102fa0008904ea0006003700922f20005301250013
:102fb0000a00be00e5fd07000005be00ea845400db
:102fc000e98f5400f8ff3c000600370002002000a3
:102fd000031224000a00be00dcfd07000005be004d
:102fe0008904e9000900e000f8ff3a000a06be0083
:102ff00002002000030820000a00be0015fe0700a2
:103000000000e00021003d001b0037000900e00047
:1030100007003a001d003700922f200053012500c1
:103020000a00be00a5fe07000005be00ea845400a9
:10303000e9cf5400f8ff3e000600370002002000f0
:10304000031224000a00be009cfe07000005be001b
:103050008904e9000900e000f8ff3a000a06be0012
:10306000f2ff2f00f3f727000a00be00fbfd070068
:103070000000e000050034000808a3000b00320047
:1030800000002000010828000a0037000808a300fb
:10309000010032000df0a2000c00be000500370058
:1030a0000000200001f82700020037000000200087
:1030b000010820004f0778004f06be004f05be00f4
:1030c0004f04be00000006001dff37008000eb002b
:1030d0001bff370080007800010078003041780045
:1030e00003c2b300834f5100faff3200e94f510091
:1030f000f8ff3200edc14100834f510003003a0058
:103100008000780013c0b300050037008041eb0059
:10311000b4c2b300844f510001003a00800078002f
:103120000000eb0002003700ea00b9000000410097
:103130003101fb000203b100e90f5100faff360034
:103140000304e000010032000000ea000000060075
:103150008001780002003700b15978000201e900cf
:103160000200e000fcff3a000000060000017800c9
:1031700002007800b041780081cf51000300320096
:103180000304e000f9ff3a000001eb0002007800c0
:1031900000000600800078003104e000feff3a00e5
:1031a0000080ea000080400000000600020ab9002a
:1031b000001bb9000200b8008100420081004300fa
:0431c0000000060005
:020000040000fa
:1031c40050490000445f0000414900005253000090
:1031d400504400005f5000000050000049440000cb
:1031e4005f4100004952000053500000445f00005a
:1031f4004900000050490000445f000041490000bc
:1032040052530000504400005f440000005000008e
:10321400494400005f500000495400005f4600002c
:103224004f5f00005000000050490000445f000060
:1032340050490000545f0000464f00005f49000001
:1032440000500000494400005f5000004954000051
:103254005f4600004f5f000044000000504900003a
:10326400445f0000524f00004c4c00005f430000dc
:103274004f5f00005000000050490000445f000010
:10328400524f00004c4c00005f4300004f5f0000b1
:103294004900000050490000445f0000524f000004
:1032a4004c4c00005f4300004f5f000044000000ee
:1032b40050490000445f00004845000032500000bf
:1032c40049540000435f00005000000050490000d2
:1032d400445f00004845000032500000495400009b
:1032e400435f00004900000050490000445f0000b3
:1032f40048450000525200005f46000046000000ae
:1033040050490000445f000059410000575f00002d
:10331400444100005f500000005000004944000098
:103324005f590000415700005f440000415f000006
:103334004900000050490000445f0000594100006a
:10334400575f0000444100005f4400000032000069
:103354007c89000000ed0000d968000077000000bf
:103364000000000059000000000000000000000000
:103374000000000000d600009fdc0000a818000038
:1033840017aa00009043000073270000f6b900005c
:1033940068ed0000f4de0000d4090000fee6000041
:1033a4001c1c000084dd0000e80b000099290000cb
:1033b40027d60000df8d0000210f00000364000009
:1033c40018ef0000ee1e0000f0b70000828200003b
:1033d4007694000015000000f37c0000000000005b
:1033e40000140000009800008f000000007f00001f
:1033f4006a0000000000000000000000000000005f
:10340400e7b700003f3600000000000000000000a5
:103414000000000000af0000669e0000d0380000ed
:103424005dd300006c200000b9eb00005d7c00005f
:103434007c770000044c0000803800007486000093
:10344400edcb0000fa570000cbdc000000000000c8
:10345400001d0000df00000000000000000000006c
:103464000000000000000000000000000000000058
:1034740000000000b1f100000f0000000000000097
:103484000000000000000000000000000000000038
:103494000000000000000000000000000000000028
:1034a4000000000000000000000000000000000018
:1034b4000000000000000000000000000000000008
:1034c40000000000000000000000000000000000f8
:1034d40000000000000000000000000000000000e8
:1034e40000000000000000000000000000000000d8
:1034f40000000000000000000000000000000000c8
:1035040000000000000000000000000000000000b7
:1035140000000000000000000000000000000000a7
:103524000000000000000000000000000000000097
:103534000000000000000000000000000000000087
:10354400cc310000aa2c0000532e00000000000023
:103554000000000000000000000000000000000067
:103564000000000000000000000000000000000057
:103574000000000000000000000000000000000047
:103584000000000000000000000000000000000037
:103594000000000000000000000000000000000027
:1035a4000000000000000000000000000000000017
:1035b4000000000000000000000000000000000007
:1035c40000000000000000000000000000000000f7
:1035d40000000000000000000000000000000000e7
:1035e40000000000000000000000000000000000d7
:1035f40000000000000000000000000000000000c7
:1036040000000000000000009c1e0000486500004f
:103614006c6c00006f200000576f0000726c00009b
:04362400640000003e
:020000040000fa
:103628002042800000c0a00000d0a10000e0a1005e
:10363800204288000168a9002168a800200620000f
:1036480020368800a0002100408088004a4e0400ef
:10365800000000003600f800809fbe00829fbe0078
:10366800849fbe00869fbe003200f8003400f80038
:1036780010002000a0018800002020009001880090
:10368800000000000168a9002202ab000600320019
:103698003111800040808000f84e020000000000d8
:1036a8002202ab00faff3a002222ab0002003200ed
:1036b8000168a9002222a9000168a9003400f900c4
:1036c8003200f9004f03be004f02be004f01be009a
:1036d8004f00be003600f90000400600889fbe007b
:1036e8008a1f78000004be000001be002a140200f0
:1036f800000000000000e00016003a006011b80069
:103708000800be002a1402000000000080007800b3
:10371800100020000100e0000f0032000801be0088
:103728000800be00ec120200000000000001be000c
:103738001a0020000800be00b414020000000000b7
:103748000000e00001003a000005eb000a007800e4
:10375800010037000000eb004f0578004f04be0061
:1037680000000600208e2900816321000c0009005a
:10377800b0587800d000b100f08e29008164210093
:103788000c000900b0587800d000b100c08f2900a3
:10379800816521000c000900b0587800d000b10004
:1037a80090902900816621000c000900b05878002b
:1037b800d000b10060912900816721000c00090048
:1037c800b0587800d000b1003092290081682100fb
:1037d8000c000900b0587800d000b100009329000f
:1037e800816921000d000900b0587800e000b1009f
:1037f800e0932900816a21000d000900b058780083
:10380800e000b100c0942900816b21000d0009007f
:10381800b0587800e000b100a0952900816c210023
:103828000d000900b0587800e000b100809629002a
:10383800816d21000d000900b0587800e000b1004a
:1038480060972900816e21000b000900b0587800ac
:10385800c000b10020982900816f21000c000900e8
:10386800b0587800d000b100f0982900817021008c
:103878000c000900b0587800d000b100c0992900a8
:10388800817121000c000900b0587800d000b10007
:1038980000000600ef14b000889fbe008a9fbe009b
:1038a8008c9fbe008e1f780040808000764e0200fc
:1038b8000000000000077800e04621001008e8003a
:1038c8000006eb00e0eb2f000f004000680040000e
:1038d800d0b79f00e1eb2f008f804000e9804000c7
:1038e800f1af9f00e2eb2f000f0141006a01410098
:1038f800e2af9f00e3eb2f008f814100ec81410094
:10390800d3af9f0040808000ca4e02000000000034
:10391800618321008048eb00d2c180008001eb0068
:10392800e90f5100e08f5900e3003e000206010054
:103938000900370008003700130037003a00370045
:10394800260037004b0037005d0037007500370050
:1039580090003700b9003700e24f400009033a00f1
:1039680020002000d0c18800309721000048eb00db
:10397800e1cfb3000000e900014878000080eb00c7
:1039880080cb8800cc003700319721008048780030
:10399800c18321008048eb000197210011017800c4
:1039a800024068008081fb00c419dd000340680004
:1039b8000080fb00c401de004811de0002816900be
:1039c800c801dd00030169004300dd0080086900cb
:1039d80040002000d0c18800b7003700419721007f
:1039e80080487800e48050001101780002406800a7
:1039f8008081fb00c419dd00034068000080fb00e3
:103a0800c401de004811de0002816900c801dd0042
:103a1800030169004300dd008008690030002000d0
:103a2800d0c18800a4003700519721008048780051
:103a3800e580500011017800024068008081fb0099
:103a4800c419dd00034068000080fb00c401de00eb
:103a58004811de0002816900c801dd000301690028
:103a68004300dd008008690050002000d0c18800b4
:103a7800910037006197210080487800e680500067
:103a880011017800024068008081fb00c419dd0044
:103a9800034068000080fb00c401de004811de001e
:103aa80002816900c801dd00030169004300dd00ef
:103ab8008008690060002000d0c188007e003700bf
:103ac8007197210080487800e78050001101780044
:103ad800024068008081fb00c419dd0003406800d3
:103ae8000080fb00c401de004811de00028169008d
:103af800c801dd00030169004300dd00800869009a
:103b0800638040001004e00003003a0080002000b9
:103b1800d0c188006800370070002000d0c188003c
:103b280065003700c2832100924078008181fb0044
:103b38008497210083014200804978008140e80091
:103b4800014978006801520092017800034068003a
:103b58000082fb004422dd00044068000080fb0076
:103b68004402de00c819de0083016a004802dd0055
:103b7800848169004300dd00008969006300410019
:103b880090cf50004c003a0080002000d0c188003f
:103b9800490037000297210092017800e7004100b0
:103ba8009180fb00949a29008100420091c069002d
:103bb8000182fb004422dd0084c068008180fb0094
:103bc800440ade00c819de0083016a00480add00e5
:103bd80084816900c308dd008180690001097800db
:103be8000081fb008180fb00810f51000b00320037
:103bf80011002000d1c18800e24f40002e003a0099
:103c080020002000d0c18800309721000048eb0038
:103c18000080eb0080cb880027003700910020004f
:103c2800d1c18800c18321009180fb0082972100c7
:103c380081004100804878001f0037000081fb00a8
:103c480081cb8000c808de00810f51000b003200d4
:103c580011002000d1c18800e24f400016003a0050
:103c680020002000d0c18800309721000048eb00d8
:103c78000080eb0080cb88000f00370012c0b30033
:103c8800618321008248780011002000d1c188009a
:103c9800c18321001181fb0091972100810041001f
:103ca80080487800e4eb2f00048247000597210044
:103cb80087000900351a78006083210010407800d9
:103cc800e14f50000d003a0041972100d0832100b8
:103cd8001148780000c280000000e00002003a00ad
:103ce800218421008008eb00018421008008e8007d
:103cf800688050000048eb000400370081832100f1
:103d08008048eb000004e0001a0232005fc0950012
:103d18000080fb008000eb0002032000820f5000af
:103d2800e08f580013023e00000601003000370003
:103d3800100237000f0237000e0237000d0237005d
:103d48000c0237000b0237000a023700090237005d
:103d5800080237000702370006023700050237005d
:103d6800040237000302370002023700010237005d
:103d780000023700ff013700fe013700ed00370071
:103d8800e4003700fb0137001e013700f901370056
:103d9800f8013700f7013700f6013700f501370061
:103da800f4013700f3013700f2013700f101370061
:103db800f0013700ef013700ee013700ed01370061
:103dc800ec013700eb013700680037003a00370094
:103dd800e8013700e70137002900370012003700f3
:103de80094003700e301370047003700a000370090
:103df800dfb297001502be0084a3880095a388004f
:103e0800dfa897001100be00a0a38800b1a3880016
:103e1800804721006fc9950002487800e0462100dc
:103e28000008eb00d3013700609f80000000e0002d
:103e3800d0013a003fa29600cfa29600d4a38800f2
:103e4800e5a3880011c0b300c03e210001487800f6
:103e580061c0b3000000e80001487800d1a38000e9
:103e680063004000014878000040eb00e13e21007b
:103e7800804878008100e80080487800bd0137005c
:103e8800609f80000000e000ba013a0010c0b30053
:103e9800c13e2100804878008100e8008048780011
:103ea8000040eb008100e800804878008100e800cd
:103eb80080487800af0137003fa09600cfa0960059
:103ec800f0a3880001a48800c03e21001004e0008f
:103ed800a8013200f0a38000215821009180fb0046
:103ee800810f5000a301310032c0b300d13e210040
:103ef800824878008100e800804878000100e800e6
:103f08000048eb009b013700805b2100dfb0970081
:103f1800114878000000e8007fa99700124878004f
:103f28000000e800efa9970013487800c03e210080
:103f38001004e0008f0132000040eb00c13e210078
:103f4800804878008100e800804878008100e80017
:103f5800804878008100e8008048780011c0b300ec
:103f6800103f210001487800820137005fb29700b6
:103f78004558210011000900b41a7800b45a780095
:103f88005402b100c03e21001004e00006003200d7
:103f98000000e80041c0b30090cf100002003a00d2
:103fa80061c0b3000148780000ad80000080fb00cc
:103fb800214821004201dd0002814000a4ac8000bc
:103fc800b5ac80000489be00710140004211dd00db
:103fd80002814000c4ac8000d5ac80000489be00da
:103fe80022022000000141004211dd000281400050
:103ff800e4ac8000f5ac80000489be00c20c20004f
:10400800010141000001410013ad8000034978001f
:10401800f006b000000040000084400060ac800062
:1040280071ac80007414020000000000000c7800dd
:10403800500137002548210080000900801aeb0054
:104048000040eb00e13e2100804878008180e800d4
:104058008048780011c0b300c03e210001487800b4
:1040680061c0b3000000e800014878004101370052
:1040780040582100120009000018eb00a05a210046
:10408800dfb0970005000900311878003158780032
:10409800d000b100d100b1001000be00aa14020087
:1040a800000000000004be00a0ac8800b1ac88008d
:1040b80070ad800081ad8000aa14020000000000ed
:1040c8000005be00c0ac8800d1ac880090ad80006f
:1040d800a1ad8000aa14020000000000e0ac880036
:1040e800f1ac880018a6880029a688003aa888009c
:1040f8004ba8880050aa880061aa880051c1b30063
:10410800e0552100014878002002b0000008eb00cb
:104118001801370010c0b300413f210080487800e3
:104128008100e800804878000100e8000048eb00c2
:104138001001370011c0b300403f2100014878004a
:104148000000e80010407800814f50000f00320056
:1041580003003900e24f500006013a001a00370008
:10416800703f21000048eb006600400000c8eb00eb
:10417800670050006fc195000248780021c0b30065
:104188000000e90001487800fa00370011c0b300c8
:10419800703f210001487800e60040001140e80027
:1041a800804878000000fb00e58050000080400057
:1041b800efc195000348780021c0b300503f2100ab
:1041c80001487800eb003700703f21001004e00040
:1041d80008003200e60040001140e80080487800fe
:1041e8000000fb00e5805000008040006fc2950091
:1041f8000448780021c0b300503f210001487800ee
:10420800dc003700dfb2970060ea2f00008047002b
:104218000a00090035187800355878007501b10092
:1042280050162000df909600808f5000d1003a0091
:10423800cf689500c1d79f003f949600cf94960011
:10424800403f210010407800e0d79f00503f2100f8
:1042580010407800d0d79f00603f210010407800c0
:1042680080df9f00703f21001040780090df9f00a2
:10427800d03f210010407800f0d79f005f6995007b
:1042880082f79f00ef699500f3ef9f007f6a950022
:10429800e4ef9f008f729500d5ef9f001f70950087
:1042a800c0ef9f00af70950091ef9f003f719500a0
:1042b80082ef9f00cf719500f3e79f005f72950032
:1042c800e4e79f00ef729500d5e79f007f709500a7
:1042d800c0e79f008f789500b1e79f001f79950090
:1042e800a2e79f00af79950093e79f003f7a95007a
:1042f80084e79f008b63210045f82f008b824200e2
:1043080095af9f008046eb000d4578000e007800c1
:1043180080af9f00fca79f004fd797000506780045
:10432800140037000104e0000d0032000800be0050
:10433800eafc07000004e00009003200088ebe0015
:104348008ddf9f0000c1eb00f2d79f009adf9f002e
:1043580024c0b300d4d79f0015c0b300e5d79f0091
:104368008d46e800f085450064064600ffcf5600fc
:104378006f0032000b0078001b4178008e40690006
:104388008180fb008100e900cf08de000204e00024
:10439800e4ff32001b4190008ff19700834f5100da
:1043a800010032008a4078000204e000ddff32009c
:1043b800204190007fea9700844f510001003200ad
:1043c8008a4078000204e000d6ff320030419000b5
:1043d800efea9700854f5100010032008a407800cb
:1043e8000204e000cfff320040419000dfe997006f
:1043f800834f5100010032008a4078000204e00037
:10440800c8ff3200504190004fea9700844f510096
:10441800010032008a4078000204e000c1ff320047
:10442800604190009fea9700854f510001003200db
:104438008a4078000204e000baff32007041900020
:104448008fe99700834f5100010032008a407800bd
:104458000204e000b3ff3200004990007fe29700b9
:10446800844f5100010032008a4078000204e000c5
:10447800acff320010499000efe29700854f5100e1
:10448800010032008a4078000204e000a5ff3200f3
:1044980020499000dfe19700834f5100010032006e
:1044a8008a4078000204e0009eff32003049900004
:1044b8004fe29700844f5100010032008a40780093
:1044c8000204e00097ff320040499000bfe29700e5
:1044d800854f5100010032008a4078000204e00054
:1044e80090ff320050499000afe19700834f510090
:1044f800010032008a4078000204e00089ff32009f
:10450800604990001fe29700844f5100010032007b
:104518008a4078000204e00082ff32007048900070
:104528008fe29700854f50008dff3a007dff3700de
:104538000faf97007fa69700403f2100efd097006c
:10454800014878000000e8005fd197000248780031
:104558000000e8008fd99700034878000000e800c1
:104568001fda97000448780066004000ffd29700e1
:10457800054878000c06e8008c0f5700e1fc310074
:1045880003003700808321000048eb00f9ff370063
:104598004f0778004f06be004f05be004f04be000f
:1045a800ef14b100000006003601fa00889fbe0033
:1045b8008a9fbe008c9fbe00804478000f00780060
:1045c800c011b100870009000018eb00d03e21009f
:1045d80010407800e34f5000cc013200e64f500005
:1045e8009a0032000004eb00e14f50004b023a0001
:1045f800205821001080fb00e0b79e00f007200043
:10460800f0b79e00c1c2b300b1ef9d00e0cfb30088
:10461800e0e79d0048c0b300f8e79d0099ef9d00d2
:10462800e3cbb300a3ef9d00028321001240780082
:1046380080ef9d000049e800329a2400024068009b
:104648000081fb004411dd00024068000080fb008f
:104658004401de009284b2004802dd0004016900d2
:104668004300dd000001690002c06c000082fb000d
:104678004422dd00044068000080fb004402de00a4
:104688004811de0002016a004802dd0004016900e9
:104698004300dd000001690002c069008081fb0061
:1046a800c419dd00034068000080fb00c401de007f
:1046b8004811de0002816900c801dd0003016900bc
:1046c8004300dd000001690043ee2f008f814100a7
:1046d8006880410082c068008181fb00c419dd0048
:1046e80083c068008180fb00c409de004811de0039
:1046f80002816900c809dd0003016900c308dd0003
:104708000101690046ee2f000f03430069024300d0
:10471800904069008181fb00c419dd0083c06800f6
:104728008180fb00c409de004811de0002816900b7
:10473800c809dd0003016900c308dd000101690043
:10474800ea014300944069000182fb004422dd0035
:1047580084c068008180fb00440ade004811de0046
:1047680002016a00480add0004016900c308dd008f
:1047780001016900934069000182fb004422dd00c9
:1047880084c068008180fb00440ade004811de0016
:1047980002016a00480add0004016900c308dd005f
:1047a80001016900ffe8950082c068008181fb0073
:1047b800c419dd0083c068008180fb00c409de00e5
:1047c8004811de0002816900c809dd0003016900a3
:1047d800c308dd0001016900d1cdb3008140690043
:1047e8008181fb00c419dd0083c068008180fb0063
:1047f800c409de004811de0002816900c809dd0035
:1048080003016900c308dd00810069004140980088
:10481800c808de005140980021c0b300d03e2100f6
:10482800014878000080e8000048eb006404640058
:10483800680444008680e8000801780020212100ef
:10484800a818020000000000b4013700e03e210073
:1048580010407800013f210091407800814f5000be
:104868008e003100e13e21008048e8000080fb0016
:10487800e0b79e00f0072000f0b79e0081c2b300a9
:10488800b1ef9d00e0cfb300e0e79d0042c0b30068
:10489800f2e79d0099ef9d00e4cbb300a4ef9d00e3
:1048a800038321001340780080ef9d008049e800d1
:1048b800339a2400034068008081fb00c419dd009e
:1048c800034068000080fb00c401de009384b2004e
:1048d800c802dd00858169004300dd008081690030
:1048e80083c46c000980fb004400dd0000c06c003c
:1048f8000080fb00c402de00c819de0083816a0064
:10490800c802dd00858169004300dd0080816900ff
:1049180003406a000082fb004422dd000440680076
:104928000080fb004402de00c819de0083016a0033
:104938004802dd00848169004300dd008081690050
:1049480044ee2f000f0242006800420083c0680056
:104958000182fb004422dd0084c068008180fb00e6
:10496800440ade00c819de0083016a00480add0037
:1049780084816900c308dd008181690046ee2f004b
:104988000f034300e902430090c069000182fb0065
:104998004422dd0084c068008180fb00440ade00f8
:1049a800c819de0083016a00480add0084816900b5
:1049b800c308dd00818169006a02430095c069006f
:1049c8008182fb00c42add0085c068008180fb006d
:1049d800c40ade00c819de0083816a00c80add0047
:1049e80085816900c308dd008181690094c0690080
:1049f8008182fb00c42add0085c068008180fb003d
:104a0800c40ade00c819de0083816a00c80add0016
:104a180085816900c308dd0081816900ffe8950090
:104a280083c068000182fb004422dd0084c0680066
:104a38008180fb00440ade00c819de0083016a0099
:104a4800480add0084816900c308dd0081816900ae
:104a580061ceb30081c069000182fb004422dd0001
:104a680084c068008180fb00440ade00c819de00ab
:104a780083016a00480add0084816900c308dd00fb
:104a88008180690041409800c808de0051409800c4
:104a9800d03e21000248780090003700f2c7b300ea
:104aa800e27f9d000040eb00f07f9d0080c79d00e5
:104ab800c2ef9d0044ee2f000f024200e9014200c0
:104ac8008049eb00ea0142008049eb00f6c2b300de
:104ad800b6ef9d00e3cfb300e3e79d0033c0b3001a
:104ae800f3e79d0099ef9d00e5cbb300a5ef9d008e
:104af800048321009441780083ef9d00034ae80075
:104b0800c3c1b2000382fb004422dd0084c16900f6
:104b18008381fb00441ade00d483b200c31bdd008e
:104b280007026a00c819dd0003026a0084c46c0029
:104b38008981fb00c419dd0083c16c008381fb00ff
:104b4800c41bde004822de0004826b00c81bdd00a7
:104b580007026a00c319dd0003026a0084c16a0003
:104b68008382fb00c42add0085c169008381fb00c4
:104b7800c41ade004822de0004826a00c81add007a
:104b880085026a00c319dd0083826a0043ee2f00a4
:104b98008f8141006882410085416b000383fb00df
:104ba8004433dd0086c169008381fb00441bde00bd
:104bb800c82ade0085026b00481bdd0086826a0079
:104bc800c319dd0083816a0046ee2f000f034300fe
:104bd800e9024300034169000283fb004433dd001e
:104be800064169000281fb004413de00c819de009b
:104bf80083016b004813dd00868169004311dd00e5
:104c08008281690015c169000283fb004433dd001d
:104c1800064169000281fb004413de00c819de006a
:104c280083016b004813dd00868169004311dd00b4
:104c38008281690015419000034169008282fb006e
:104c4800c42add00054169000281fb00c412de00b0
:104c5800c819de0083816a00c812dd0085816900f9
:104c68004311dd008281690092c9b30002c1690065
:104c78008282fb00c42add00054169000281fb0035
:104c8800c412de00c819de0083816a00c812dd0084
:104c9800858169004311dd00028169003242980074
:104ca8004811de004242980022582100014978004c
:104cb800c13e2100804878008100e80080487800e3
:104cc8008100e800804878008180e800804878000a
:104cd80011c0b300103f2100014878007fe495001f
:104ce8000884fb00680444000801780061ee2f0086
:104cf8008f80400020212100a81802000000000039
:104d0800f03e21000048eb002b013700e03e210077
:104d18001084fb0020022000080040004200dd0053
:104d28002a482100000045001001be00b2af9e00d5
:104d3800c3af9e00710044004200dd000000450042
:104d48001001be0092af9e00a3af9e004240dd005e
:104d5800000045001006be00f006200008004000d4
:104d68000000400000004500100078008005eb00be
:104d78008b007800b0140200000000000002be00a2
:104d8800c00c200008004000000545009a80fb0088
:104d98006011b800f29f9e0083a79e0092a79e0014
:104da800a3a79e00b4a79e00c5a79e00d2a79e00f9
:104db800e3a79e00fca79e008daf9e00d8af9e0083
:104dc800e1af9e00f0c7b300e0df9d000040eb00bc
:104dd800fbdf9d0080e79d0090e79d0010c0b300b9
:104de800a0e79d00c3ee2f0083814700e4eb2f006e
:104df8000482470011000900b4197800b4597800fa
:104e080070c2b300b0ef9d00e0cfb300e0e79d00b3
:104e180050c2b300f0e79d0099ef9d00e0cbb300ce
:104e2800a0ef9d00008321009040780081ef9d0055
:104e38000148e80014f12f000f0242008080eb00c7
:104e480046ee2f000f03430063014300b2c1680020
:104e58000380fb004400dd0000c069000080fb0007
:104e6800c401de00c808de0081806900c801dd00d9
:104e7800838068004300dd0080806800840f510053
:104e8800f2ff3a00e0cfb30000c068000081fb00e9
:104e98004411dd00024068000080fb004401de0090
:104ea800c808de00810069004801dd0082806800d2
:104eb8004300dd000080680042ee2f000f01410032
:104ec800e800410090579e007fe195000281fb00b9
:104ed800828040004800de009040980051c0b30036
:104ee800d03e2100014878007fe495000884fb004b
:104ef8006804440043ee2f008f8141008380e8005e
:104f08000801780020212100a818020000000000f4
:104f1800f03e21000048eb00a7003700f13e2100d9
:104f28001140e80080487800f44f50009c0036009b
:104f38000f027800c411b10087000900001aeb00c5
:104f4800f0c7b300e07f9d000045eb00fa7f9d00ad
:104f580011c0b30081c79d00c0ef9d0046ee2f0031
:104f68000f034300690143000049eb00e1ef9d0096
:104f7800f5c2b300b5ef9d00e1cfb300e1e79d00b6
:104f880032c0b300f2e79d0099ef9d00e4cbb30077
:104f9800a4ef9d00038321009340780081ef9d00da
:104fa8008149e800c1c1b2008181fb00c419dd005c
:104fb80083c068008180fb00440bde00d683b2000a
:104fc800c809dd0003036b00c308dd0001036b00a3
:104fd80086c46c008980fb00c408dd0081c06c00b9
:104fe8008180fb00c409de004833de008681690049
:104ff800c80bdd0087816900c308dd008181690075
:1050080003426a008480fb00c408dd0081406a0016
:105018008180fb00440ade00c819de0003026a0032
:10502800480bdd0006026a00c308dd0001026a00c1
:1050380041ee2f008f804000e881400084c26a0062
:105048008580fb00c408dd0081c06a008180fb0008
:10505800c40ade004822de0004826a00c80add00b5
:1050680005026a00c308dd0081006a0044ee2f00d3
:105078000f024200e9024200014068000082fb0082
:105088004422dd00044068000080fb004402de008a
:10509800c808de0081006a004802dd0084806800dc
:1050a8004300dd008080680015c268000480fb00b2
:1050b8004400dd0000406a000080fb004402de007e
:1050c800c808de0001026a004803dd0006026a0023
:1050d8004300dd0000026a009540900084c068002b
:1050e8000180fb004400dd0000c068000080fb0078
:1050f800c400de004822de0084806800c802dd00ab
:10510800858068004300dd008080680094c9b30092
:1051180004c268000480fb004400dd0000406a000f
:105128000080fb004402de00c808de0081006a003f
:105138004802dd00848068004300dd0000806800cc
:10514800b04198004800de00c0419800e3046100c7
:10515800e8844400302121000000440046ee2f007e
:105168000f0343008680e80009017800a8180200b0
:105178000000000009044400c03e21000a487800ed
:105188000000e8000a4878000000e8000a487800b3
:105198000000e8000a4878000000e8000a487800a3
:1051a800080078004f06be004f05be004f04be0041
:1051b8000080fa0000000600f03e21001048e800d8
:1051c800f7ff37002a01fa00889fbe000004eb00b1
:1051d800423f21001204e000570132000201e800ba
:1051e80012417800e14f5100040032000004eb0046
:1051f800e24f510050013a0074003700623f21002d
:1052080012427800fe4f520062003e000481fb000b
:10521800c412dd008363210083814200c212dd00d5
:10522800c65b2100850243001503be0096af9e00b1
:10523800a7af9e00f5012000b5af9e00c2af9e004b
:1052480092c0b300a2ef9d000300e00005003a0001
:105258008f0378006712b10007000900801beb007c
:1052680005003700a2ed2f00028147000f0009005a
:10527800335978000301b10043ef2f0083814700c1
:1052880026ed2f00068347000b000900b6197800a9
:10529800b659780062c1b300b2f79d00e2cfb300ff
:1052a800e2ef9d0092c1b300f2ef9d0090f79d00e0
:1052b800a1f79d00008321009040780081f79d00b0
:1052c8000148e800d5f02f008f8242008080eb0073
:1052d800f2ee2f000f014100b2c168000380fb000d
:1052e8004400dd0000c069000080fb00c401de004e
:1052f800c808de0081806900c801dd00838068007d
:105308004300dd0080806800850f5100f2ff3a00fd
:10531800c0cdb30000c068000081fb004411dd006f
:10532800024068000080fb004401de00c808de007f
:10533800810069004801dd00828068004300dd00cb
:1053480000806800d04f9e00ffe895008180fb0038
:1053580047ef2f008f834300818043004800de0021
:1053680090409800603f21000448e8007fec9500d9
:105378000884fb006804440008017800e1ee2f006f
:105388008f80400020212100a818020000000000a2
:10539800e90037000040eb00513f210080487800c9
:1053a800f2c1b3008100e800824878008180e900fa
:1053b80080487800e380400080487800668040009c
:1053c80000c8eb000004eb00db003700723f21004f
:1053d8001204e00069003a000201e9001281fb00b2
:1053e8004412dd0083632100830142004212dd0084
:1053f800c55b2100048242001403be0096af9e00e4
:10540800a7af9e00f4012000b4af9e00c2af9e007b
:1054180092c0b300a2ef9d000300e00005003a002f
:105428008f0378006712b10007000900801beb00aa
:1054380005003700a2ed2f00028147000f00090088
:10544800335978000301b10043ef2f0083814700ef
:1054580026ed2f00068347000b000900b6197800d7
:10546800b659780062c1b300b2f79d00e2cfb3002d
:10547800e2ef9d0092c1b300f2ef9d0090f79d000e
:10548800a1f79d00008321009040780081f79d00de
:105498000148e800d4f02f000f0242008080eb00a2
:1054a800f2ee2f000f014100b2c168000380fb003b
:1054b8004400dd0000c069000080fb00c401de007c
:1054c800c808de0081806900c801dd0083806800ab
:1054d8004300dd0080806800840f5100f2ff3a002d
:1054e800c0cdb30000c068000081fb004411dd009e
:1054f800024068000080fb004401de00c808de00ae
:10550800810069004801dd00828068004300dd00f9
:1055180000806800d04f9e00ffe895008180fb0066
:1055280047ef2f008f834300818043004800de004f
:10553800904098007fec95000884fb0068044400c4
:1055480008017800e1ee2f008f8040002021210023
:10555800a818020000000000f1c1b300603f21005c
:10556800014878000040eb00513f21008048780056
:105578008100e900804878006f003700d23f2100a1
:10558800924478000904e00007003d0011c0b30010
:1055980068005100014878000080e8000048eb00ee
:1055a8000004eb00640037008901fb00823f210002
:1055b800028141001281fb004412dd008363210057
:1055c800830142004212dd00c55b210004824200d3
:1055d8001403be0096af9e00a7af9e00f401200002
:1055e800b4af9e00c2af9e0092c0b300a2ef9d0070
:1055f8000300e00005003a008f0378006712b1004d
:1056080007000900801beb0005003700a2ed2f0002
:10561800028147000f000900335978000301b100e7
:1056280043ef2f008381470026ed2f0006834700b4
:105638000b000900b6197800b659780062c1b300aa
:10564800b2f79d00e2cfb300e2ef9d0092c1b30034
:10565800f2ef9d0090f79d00a1f79d0000832100c7
:105668009040780081f79d000148e800d4f02f00b1
:105678000f0242008080eb00f2ee2f000f01410084
:10568800b2c168000380fb004400dd0000c069006f
:105698000080fb00c401de00c808de0081806900cc
:1056a800c801dd00838068004300dd008080680059
:1056b800840f5100f2ff3a00c0cdb30000c068006b
:1056c8000081fb004411dd00024168000281fb00fb
:1056d8004410de00c808de00810068004810dd00c4
:1056e800808068004311dd0002816800d24f9e006f
