:020000040000fa
:04005c00c6160000c4
:020000040000fa
:04007c00c6160000a4
:020000040000fa
:04000c00c616000014
:020000040000fa
:0400b400c61600006c
:020000040000fa
:0400b000c616000070
:020000040000fa
:04014000c6160000df
:020000040000fa
:04010800c616000017
:020000040000fa
:04010400c61600001b
:020000040000fa
:04014400c6160000db
:020000040000fa
:04007000c6160000b0
:020000040000fa
:04007400c6160000ac
:020000040000fa
:04013400c6160000eb
:020000040000fa
:04011400c61600000b
:020000040000fa
:04011800c616000007
:020000040000fa
:04003800c6160000e8
:020000040000fa
:04020800c616000016
:020000040000fa
:04020c00c616000012
:020000040000fa
:04023000c6160000ee
:020000040000fa
:04023400c6160000ea
:020000040000fa
:04023800c6160000e6
:020000040000fa
:04006000c6160000c0
:020000040000fa
:04008800c616000098
:020000040000fa
:0400b800c616000068
:020000040000fa
:0400e000c616000040
:020000040000fa
:04011c00c616000003
:020000040000fa
:04013800c6160000e7
:020000040000fa
:04013c00c6160000e3
:020000040000fa
:04020000c61600001e
:020000040000fa
:04020400c61600001a
:020000040000fa
:04001c00c616000004
:020000040000fa
:04001000c616000010
:020000040000fa
:04021c00c616000002
:020000040000fa
:04022400c6160000fa
:020000040000fa
:04022c00c6160000f2
:020000040000fa
:04024400c6160000da
:020000040000fa
:04024c00c6160000d2
:020000040000fa
:04025400c6160000ca
:020000040000fa
:04025c00c6160000c2
:020000040000fa
:04019c00c616000083
:020000040000fa
:04026000c6160000be
:020000040000fa
:04002800c6160000f8
:020000040000fa
:04007800c6160000a8
:020000040000fa
:04009c00c616000084
:020000040000fa
:0400fc00c616000024
:020000040000fa
:04010000c61600001f
:020000040000fa
:0401b800c616000067
:020000040000fa
:0401bc00c616000063
:020000040000fa
:0401c000c61600005f
:020000040000fa
:0401c400c61600005b
:020000040000fa
:0401c800c616000057
:020000040000fa
:0401cc00c616000053
:020000040000fa
:0401d000c61600004f
:020000040000fa
:0401d400c61600004b
:020000040000fa
:0401d800c616000047
:020000040000fa
:0401dc00c616000043
:020000040000fa
:0401e000c61600003f
:020000040000fa
:0401e400c61600003b
:020000040000fa
:0401e800c616000037
:020000040000fa
:0401ec00c616000033
:020000040000fa
:0401f000c61600002f
:020000040000fa
:0401f400c61600002b
:020000040000fa
:0401f800c616000027
:020000040000fa
:0401fc00c616000023
:020000040000fa
:04023c00c6160000e2
:020000040000fa
:04012400c6160000fb
:020000040000fa
:04012800c6160000f7
:020000040000fa
:04014800c6160000d7
:020000040000fa
:04015000c6160000cf
:020000040000fa
:04015800c6160000c7
:020000040000fa
:04015c00c6160000c3
:020000040000fa
:04016000c6160000bf
:020000040000fa
:04016400c6160000bb
:020000040000fa
:04016800c6160000b7
:020000040000fa
:04017800c6160000a7
:020000040000fa
:04017c00c6160000a3
:020000040000fa
:04026400c6160000ba
:020000040000fa
:04006c00c6160000b4
:020000040000fa
:04001800c616000008
:020000040000fa
:04006400c6160000bc
:020000040000fa
:04021800c616000006
:020000040000fa
:04022000c6160000fe
:020000040000fa
:04022800c6160000f6
:020000040000fa
:04024000c6160000de
:020000040000fa
:04024800c6160000d6
:020000040000fa
:04025000c6160000ce
:020000040000fa
:04025800c6160000c6
:020000040000fa
:04003000c6160000f0
:020000040000fa
:04004000c6160000e0
:020000040000fa
:04008c00c616000094
:020000040000fa
:04009000c616000090
:020000040000fa
:0400cc00c616000054
:020000040000fa
:0400d000c616000050
:020000040000fa
:0400d400c61600004c
:020000040000fa
:0400d800c616000048
:020000040000fa
:04019800c616000087
:020000040000fa
:04000800c616000018
:020000040000fa
:0400dc00c616000044
:020000040000fa
:0401a000c61600007f
:020000040000fa
:0401a400c61600007b
:020000040000fa
:0401a800c616000077
:020000040000fa
:0401ac00c616000073
:020000040000fa
:0401b000c61600006f
:020000040000fa
:0401b400c61600006b
:020000040000fa
:04014c00c6160000d3
:020000040000fa
:04010c00c616000013
:020000040000fa
:04011000c61600000f
:020000040000fa
:04015400c6160000cb
:020000040000fa
:04012000c6160000ff
:020000040000fa
:04002400c6160000fc
:020000040000fa
:04006800c6160000b8
:020000040000fa
:0400ec00c616000034
:020000040000fa
:04004c00c6160000d4
:020000040000fa
:0400a800c616000078
:020000040000fa
:0400ac00c616000074
:020000040000fa
:04019000c61600008f
:020000040000fa
:04019400c61600008b
:020000040000fa
:04021000c61600000e
:020000040000fa
:04021400c61600000a
:020000040000fa
:04002000c616000000
:020000040000fa
:04001400c61600000c
:020000040000fa
:04003400c6160000ec
:020000040000fa
:04004800c6160000d8
:020000040000fa
:04009400c61600008c
:020000040000fa
:04009800c616000088
:020000040000fa
:0400e400c61600003c
:020000040000fa
:0400e800c616000038
:020000040000fa
:0400f400c61600002c
:020000040000fa
:0400f800c616000028
:020000040000fa
:04012c00c6160000f3
:020000040000fa
:04013000c6160000ef
:020000040000fa
:0400a000c616000080
:020000040000fa
:0400a400c61600007c
:020000040000fa
:04016c00c6160000b3
:020000040000fa
:04017000c6160000af
:020000040000fa
:04017400c6160000ab
:020000040000fa
:04018400c61600009b
:020000040000fa
:04018000c61600009f
:020000040000fa
:080000000002040000000000f2
:020000040000fa
:100400002fb124000eff27000e018800000000001d
:10041000000020000000e000020032000001200087
:10042000200288000c0007008085200011002000b9
:100430000f000700000020000000e0000200320072
:1004400000000200000000008a0902000000000015
:100450000040da000000fe0040db20000000e00069
:1004600002003200002020009001880000000600f9
:10047000a1028800800078000000eb001a0037001d
:10048000e280400054a0b4009101ba00e280400034
:1004900054a0b4009102ba00e280400054a0b4001d
:1004a0000002eb00472bde00f507b200a601880032
:1004b000602ce10008003a000049eb000201e8006e
:1004c000020039003420ec0002f0a0008301e900b2
:1004d000f9ff3e00040037006128e100010032000e
:1004e0000082eb000b00070011c3ba001101ba0033
:1004f0000604e00003003a000200e000e0ff3a00da
:1005000000000600f607b200a6028800820078000c
:10051000f5ff370004d0a300e20f49001c003900aa
:10052000810278003549ba000201e8000200390072
:100530003420ec0002f0a0008301e9000f0032003b
:100540002549ba000201e800020039003420ec001d
:1005500002f0a0008301e900080032000400e0007e
:100560000600320015c9ba000201e8000200390095
:100570003420ec0002f0a0008301e9008180e80053
:1005800054a0b4000300e000e2ff3a0000000600bf
:100590009102ba00055978008301e900f7ff3200a3
:1005a000c82ade00055978008301e900f3ff320014
:1005b0000400e000f1ff320011d9ba00eeff37006d
:1005c00048e90400000000005ee9040000000000ab
:1005d0003ce904000000000070e904000000000095
:1005e00084e904000000000098e904000000000015
:1005f00052ea04000000000082ea0400000000004b
:10060000b2ea040000000000e2ea0400000000007a
:1006100012eb0400000000006aeb04000000000080
:1006200042eb04000000000060ec04000000000049
:1006300056eb04000000000030ec04000000000055
:100640003600f800809fbe00829fbe00849fbe00df
:10065000869fbe00889fbe003200f8003400f8007c
:1006600010002000a00188000020200090018800d8
:10067000000000000030ec0013e1a80000e8a90031
:100680000230ec0004cea800805182000000e0009f
:1006900008003a0080af24001010a000e05782004c
:1006a0000018a30003003200b05782000010a00021
:1006b000b0578a00905182000000e00008003a0024
:1006c00080af24001020a000e05782000028a30083
:1006d00003003200b05782000020a000b0578a000b
:1006e000a05182000000e00008003a0080af240022
:1006f0001030a000e05782000038a3000300320051
:10070000b05782000030a000b0578a00b05182007c
:100710000000e00008003a0080af24001040a00074
:10072000e05782000048a30003003200b057820067
:100730000040a000b0578a00c05182000000e000d5
:1007400008003a0080af24001050a000e05782005b
:100750000058a30003003200b05782000050a000f0
:10076000b0578a00d05182000000e00008003a0033
:1007700080af24001060a000e05782000068a30052
:1007800003003200b05782000060a000b0578a001a
:10079000e05182000000e00008003a0080af240031
:1007a0001070a000e05782000078a3000300320020
:1007b000b05782000070a000b0578a00f05182004c
:1007c0000000e00008003a0080af24001080a00084
:1007d000e05782000088a30003003200b057820077
:1007e0000080a000b0578a00005282000000e000a4
:1007f00008003a0080af24001090a000e05782006b
:100800000098a30003003200b05782000090a000bf
:10081000b0578a00105282000000e00008003a0041
:1008200080af240010a0a000e057820000a8a30021
:1008300003003200b057820000a0a000b0578a0029
:10084000205282000000e00008003a0080af24003f
:1008500010b0a000e057820000b8a30003003200ef
:10086000b057820000b0a000b0578a00305282001a
:100870000000e00008003a0080af240010c0a00093
:10088000e057820000c8a30003003200b057820086
:1008900000c0a000b0578a00405282000000e00073
:1008a00008003a0080af240010d0a000e05782007a
:1008b00000d8a30003003200b057820000d0a0008f
:1008c000b0578a00505282000000e00008003a0051
:1008d00080af240010e0a000e057820000e8a300f1
:1008e00003003200b057820000e0a000b0578a0039
:1008f000605282000000e00009003a0080af24004e
:100900000100280010887000e05782000000e0001d
:1009100003003d00b057820000f0a000b0578a00ed
:10092000705282000000e00008003a00a0af2400ee
:100930001000a000f05782000008a300030032005e
:10094000b057820000f0a000b0578a0080528200a9
:100950000000e00008003a00a0af24001010a00042
:10096000f05782000018a30003003200b057820045
:1009700000f0a000b0578a00905282000000e00012
:1009800008003a00a0af24001020a000f057820019
:100990000028a30003003200b057820000f0a0003e
:1009a000b0578a00a05282000000e00008003a0020
:1009b000a0af24001030a000f05782000038a30040
:1009c00003003200b057820000f0a000b0578a0048
:1009d000b05282000000e00008003a00a0af2400fe
:1009e0001040a000f05782000048a300030032002e
:1009f000b057820000f0a000b0578a0001a3240085
:100a00001100e80080087800e20f500002003a0070
:100a1000010078000008eb0021a324001100e80089
:100a200080087800ea0f500002003a0001007800c8
:100a30000008eb0041a324001100e80080087800c2
:100a4000ea0f500002003a00010078000008eb00b5
:100a500061a324001100e80080087800ea0f50002c
:100a600002003a00010078000008eb0081a3240096
:100a70001100e80080087800ea0f500002003a00f8
:100a8000010078000008eb00a1a324001100e80099
:100a900080087800ea0f500002003a000100780058
:100aa0000008eb00c1a324001100e80080087800d2
:100ab000f40f500002003a00010078000008eb003b
:100ac000e1a324001100e800800878002103200041
:100ad000810f500002003a00e0a324000008eb0060
:100ae00001a424001100e800800878002103200000
:100af000810f500002003a0000a424000008eb001f
:100b000021a424001100e8008008780021032000bf
:100b1000810f500002003a0020a424000008eb00de
:100b200041a424001100e80080087800210320007f
:100b3000810f500002003a0040a424000008eb009e
:100b400061a424001100e80080087800210320003f
:100b5000810f500002003a0060a424000008eb005e
:100b600081a424001100e8008008780041062000dc
:100b7000810f500002003a0080a424000008eb001e
:100b8000a1a424001100e80080087800410620009c
:100b9000810f500002003a00a0a424000008eb00de
:100ba000c1a424001100e80080087800410620005c
:100bb000810f500002003a00c0a424000008eb009e
:100bc000e1a424001100e80080087800410620001c
:100bd000810f500002003a00e0a424000008eb005e
:100be00001a524001100e80080087800810c200095
:100bf000810f500002003a0000a524000008eb001d
:100c000021a524001100e80080087800810c200054
:100c1000810f500002003a0020a524000008eb00dc
:100c200041a524001100e80080087800810c200014
:100c3000810f500002003a0040a524000008eb009c
:100c400061a524001100e80080087800810c2000d4
:100c5000810f500002003a0060a524000008eb005c
:100c60005008800031808000810050002180880081
:100c7000308088004c5302000000000000e8a9000a
:100c800000e8ab00060032000230ed000030ed005d
:100c9000b05782000000a000b0578a0094013700ce
:100ca00042a0a80042c0a900e05782000018a3009b
:100cb000030032000230ed000030ed008c013700ff
:100cc000c05782000018a3000a003200c0af240001
:100cd0001010a00088af24001810a100bc900200e2
:100ce000000000001818a300fbff3a00c0af24006a
:100cf0001010a100e05782000028a300030032007a
:100d00000230ed000030ed0079013700c05782005d
:100d10000028a3000a003200c0af24001020a00069
:100d200088af24001820a1000291020000000000fa
:100d30001828a300fbff3a00c0af24001020a10038
:100d4000e05782000038a300030032000230ed00bb
:100d50000030ed0066013700c05782000038a30064
:100d60000a003200c0af24001030a00088af240079
:100d70001830a10008910200000000001838a300fc
:100d8000fbff3a00c0af24001030a100e057820002
:100d90000048a300030032000230ed000030ed00f7
:100da00053013700c05782000048a3000a003200f8
:100db000c0af24001040a00088af24001840a1005c
:100dc0000e910200000000001848a300fbff3a004b
:100dd000c0af24001040a100e05782000058a300db
:100de000030032000230ed000030ed00400137001a
:100df000c05782000058a3000b003200c0af24008f
:100e00001050a00088af2400090220001850a10053
:100e1000149102000000000018806400fbff3a00fb
:100e2000c0af24001050a100e05782000068a3006a
:100e3000030032000230ed000030ed002c013700dd
:100e4000c05782000068a3000b003200c0af24002e
:100e50001060a00088af2400090420001860a100e1
:100e60001a9102000000000018806400fbff3a00a5
:100e7000c0af24001060a100e05782000078a300fa
:100e8000030032000230ed000030ed0018013700a1
:100e9000c05782000078a3000b003200c0af2400ce
:100ea0001070a00088af2400090820001870a1006d
:100eb000209102000000000018806400fbff3a004f
:100ec000c0af24001070a100e05782000088a3008a
:100ed000030032000230ed000030ed000401370065
:100ee000c05782000088a3000b003200c0af24006e
:100ef0001080a00088af2400091020001880a100f5
:100f0000269102000000000018806400fbff3a00f8
:100f1000c0af24001080a100e05782000098a30019
:100f2000030032000230ed000030ed00f000370029
:100f3000c05782000098a3000b003200c0af24000d
:100f40001090a00088af2400092020001890a10074
:100f5000789102000000000018806400fbff3a0056
:100f6000c0af24001090a100e057820000a8a300a9
:100f7000030032000230ed000030ed00dc003700ed
:100f8000c057820000a8a3000b003200c0af2400ad
:100f900010a0a00088af24000940200018a0a100e4
:100fa0007e9102000000000018806400fbff3a0000
:100fb000c0af240010a0a100e057820000b8a30039
:100fc000030032000230ed000030ed00c8003700b1
:100fd000c057820000b8a3000b003200c0af24004d
:100fe00010b0a00088af24000980200018b0a10034
:100ff000849102000000000018806400fbff3a00aa
:10100000c0af240010b0a100e057820000c8a300c8
:10101000030032000230ed000030ed00b400370074
:10102000c057820000c8a3000b003200c0af2400ec
:1010300010c0a00088af24000900210018c0a10042
:101040008a9102000000000018806400fbff3a0053
:10105000c0af240010c0a100e057820000d8a30058
:10106000030032000230ed000030ed00a000370038
:10107000c057820000d8a3000b003200c0af24008c
:1010800010d0a00088af24000900220018d0a100d1
:10109000909102000000000018806400fbff3a00fd
:1010a000c0af240010d0a100e057820000e8a300e8
:1010b000030032000230ed000030ed008c003700fc
:1010c000c057820000e8a3000b003200c0af24002c
:1010d00010e0a00088af24000900240018e0a1005f
:1010e000969102000000000018806400fbff3a00a7
:1010f000c0af240010e0a100e05782000000e00033
:1011000003003d000230ed000030ed0078003700b4
:10111000c05782000000e0000c003d00c0af24007a
:10112000010028001088700088af24008104780036
:1011300018f0a1009c9102000000000018806400db
:10114000fbff3a00c0af240010f0a100f05782006e
:101150000008a300030032000230ed000030ed0073
:1011600063003700d05782000008a3000a00320055
:10117000e0af24001000a000a8af24001800a100d8
:10118000a2910200000000001808a300fbff3a0033
:10119000e0af24001000a100f05782000018a30067
:1011a000030032000230ed000030ed005000370047
:1011b000d05782000018a3000a003200e0af2400dc
:1011c0001010a000a8af24001810a100a8910200e0
:1011d000000000001818a300fbff3a00e0af240055
:1011e0001010a100f05782000028a3000300320075
:1011f0000230ed000030ed003d003700d057820096
:101200000028a3000a003200e0af24001020a00054
:10121000a8af24001820a100ae9102000000000039
:101220001828a300fbff3a00e0af24001020a10023
:10123000f05782000038a300030032000230ed00b6
:101240000030ed002a003700d05782000038a3009c
:101250000a003200e0af24001030a000a8af240044
:101260001830a100b4910200000000001838a3005b
:10127000fbff3a00e0af24001030a100f0578200dd
:101280000048a300030032000230ed000030ed0002
:1012900017003700d05782000048a3000a00320030
:1012a000e0af24001040a000a8af24001840a10027
:1012b000ba910200000000001848a300fbff3a00aa
:1012c000e0af24001040a10042c0a80042a0a90045
:1012d0000230ed000210e20001003a0004cea90045
:1012e0000030ed000010e20001003a0013e1a90017
:1012f0003400f9003200f9004f04be004f03be0075
:101300004f02be004f01be004f00be003600f90084
:10131000004006004387ab001600320043c7ab0015
:1013200014003a00a10920000001eb008007200012
:101330003374200080497800814978008249780020
:10134000710520001200200060042000237420009a
:1013500080497800814978008249780000000000c7
:101360000000000000002700123a800082006000a8
:10137000fdff3a00300f2000303a88005100200075
:10138000213a8800a20920003300200080072000b5
:1013900034742000004a7800024a7800034a78003a
:1013a0007205200013002000600420002474200037
:1013b000004a7800024a7800034a7800006820005a
:1013c0007070880030fc2f00f070880077015100a9
:1013d000f271880022382000727288000284240092
:1013e00072358800b2f42100823588006213b100a2
:1013f0009235880042012100a23588003205200084
:101400004236880002302100323488000220b100c8
:101410004234880051348800d101200061348800b2
:10142000011020008134880001002100c1348800af
:101430000120b000e134880001602000f134880010
:10144000f1fb2f000170880080708800f0f72f00fa
:1014500080718800a0fc2f000072880070ff2f00b0
:1014600080728800e0ff25000073880001002700db
:1014700000002300133a800003816000800f5100b8
:10148000fcff3a0000022000123a80008200600057
:10149000fdff3200c0910200000000008080eb00e0
:1014a00011088800000128002008880010428000f0
:1014b00000c0a10000d0a00000e0a1001042880000
:1014c00000e8a90020e8a80080ab2200600888009e
:1014d00071088800000220009008880070ab22008c
:1014e000300888000002280080088800ffff3700cd
:1014f000809fbe00829fbe00849fbe00869fbe006c
:10150000881f78003200f8003400f8001000200036
:10151000a001880000202000900188000000000049
:101520000648a9000030ec0013e1a80054508200e6
:1015300022072000030020008002eb00c6a0240048
:1015400067ff2f006e045300904f82008000eb0075
:10155000820f5000838f5800d7033e000006010021
:1015600072003700800037008a0037009100370092
:10157000990037009e003700a4003700aa0037000a
:10158000af003700b5003700ba003700c30037009e
:10159000c8003700d1003700d6003700db00370025
:1015a000e1003700e7003700ed003700f2003700b8
:1015b000f9003700fe003700040137000a01370048
:1015c0000f013700150137001a01370023013700da
:1015d0002801370031013700360137003b01370061
:1015e00041013700470137004d01370052013700f4
:1015f000590137005e013700640137006a01370086
:101600006f013700750137007a0137008301370019
:101610008801370091013700960137009f0137009c
:10162000a4013700ad013700b2013700bb0137001c
:10163000c0013700c9013700ce013700d70137009c
:10164000dc013700e5013700ea013700f30137001c
:10165000f801370001023700060237000f02370099
:10166000140237001d023700220237002b02370018
:1016700030023700390237003e0237004702370098
:101680004c023700550237005a0237006302370018
:101690006802370071023700760237007f02370098
:1016a000840237008d023700920237009b02370018
:1016b000a0023700a9023700ae023700b50237009a
:1016c000ba023700c0023700c6023700cb0237002b
:1016d000d0023700d6023700db023700e4023700c1
:1016e000e9023700f2023700f70237000003370043
:1016f000050337000e033700130337001c033700c0
:10170000210337002a0337002f0337003603370041
:101710003b03370041033700460337004c033700d3
:1017200051033700560337005b03370016006a0089
:1017300000f0a7000000ea000000ea004f00de0011
:101740000004e0006903320084004200810044008c
:1017500091007800914f8a00e40f52005a033e0036
:101760000402e8005903370054508a00006ea800b4
:10177000004ea80017e2a80060ff2f001822b60054
:101780001622a800904f82000000e800904f8a00c7
:101790005103370054508a0060ff2f001822b60012
:1017a0001642a800904f82000000e800904f8a0087
:1017b000490337008021200010886300954f8a007c
:1017c00016006a0000f0a7000000ea000000ea002e
:1017d0004f00de003d03370054508a001602a80077
:1017e000904f82000000e800904f8a003a033700d3
:1017f00054508a00e00e200090108800904f820024
:101800000000e800904f8a003303370054508a00ec
:10181000600f200090108800904f82000000e800c8
:10182000904f8a002c03370054508a001622a800db
:10183000904f82000000e800904f8a002603370096
:1018400054508a00f00e200090108800904f8200c3
:101850000000e800904f8a001f03370054508a00b0
:101860001662a800904f82000000e800904f8a00a6
:101870001903370054508a0081108000e0a0240032
:101880000148780016a2a9001682a800904f820095
:101890000000e800904f8a000f03370054508a0080
:1018a0001662a800904f82000000e800904f8a0066
:1018b0000903370054508a0081108000f0a02400f2
:1018c0000148780016a2a8001682a800904f820056
:1018d0000000e800904f8a00ff02370054508a0051
:1018e0001642a800904f82000000e800904f8a0046
:1018f000f902370054508a001602a800904f820067
:101900000000e800904f8a00f302370054508a002c
:10191000e00e200090108800904f82000000e80048
:10192000904f8a00ec02370054508a00400f20008c
:1019300090108800904f82000000e800904f8a00cd
:10194000e502370054508a004003200090108800c0
:10195000904f82000000e800904f8a00de023700be
:1019600054508a001642a800904f82000000e80000
:10197000904f8a00d8023700a54f8a00954f8a0001
:1019800016006a0000f0a7000000ea000000ea006c
:101990004f00de00cd02370054508a001602a80026
:1019a000904f82000000e800904f8a00ca02370082
:1019b00054508a00e00e200090108800904f820062
:1019c0000000e800904f8a00c302370054508a009c
:1019d000600f200090108800904f82000000e80007
:1019e000904f8a00bc02370054508a001622a8008b
:1019f000904f82000000e800904f8a00b602370046
:101a000054508a00f00e200090108800904f820001
:101a10000000e800904f8a00af02370054508a005f
:101a20001662a800904f82000000e800904f8a00e4
:101a3000a902370054508a008110800000a12400c0
:101a40000148780016a2a9001682a800904f8200d3
:101a50000000e800904f8a009f02370054508a002f
:101a60001662a800904f82000000e800904f8a00a4
:101a70009902370054508a008110800010a1240080
:101a80000148780016a2a8001682a800904f820094
:101a90000000e800904f8a008f02370054508a00ff
:101aa0001642a800904f82000000e800904f8a0084
:101ab0008902370054508a001602a800904f820015
:101ac0000000e800904f8a008302370054508a00db
:101ad000e00e200090108800904f82000000e80087
:101ae000904f8a007c02370054508a00400f20003b
:101af00090108800904f82000000e800904f8a000c
:101b00007502370054508a00e002200090108800cf
:101b1000904f82000000e800904f8a006e0237006c
:101b200054508a001642a800904f82000000e8003e
:101b3000904f8a0068023700b54f8a00954f8a009f
:101b400016006a0000f0a7000000ea000000ea00aa
:101b50004f00de005d02370054508a001602a800d4
:101b6000904f82000000e800904f8a005a02370030
:101b700054508a00e00e200090108800904f8200a0
:101b80000000e800904f8a005302370054508a004a
:101b9000a00a200090108800904f82000000e8000a
:101ba000904f8a004c02370054508a001622a80039
:101bb000904f82000000e800904f8a0046023700f4
:101bc00054508a00f00e200090108800904f820040
:101bd0000000e800904f8a003f02370054508a000e
:101be0001662a800904f82000000e800904f8a0023
:101bf0003902370054508a008110800020a124004f
:101c00000148780016a2a9001682a800904f820011
:101c10000000e800904f8a002f02370054508a00dd
:101c20001662a800904f82000000e800904f8a00e2
:101c30002902370054508a008110800030a124000e
:101c40000148780016a2a9001682a800904f8200d1
:101c50000000e800904f8a001f02370054508a00ad
:101c60001662a800904f82000000e800904f8a00a2
:101c70001902370054508a008110800040a12400ce
:101c80000148780016a2a9001682a800904f820091
:101c90000000e800904f8a000f02370054508a007d
:101ca0001662a800904f82000000e800904f8a0062
:101cb0000902370054508a008110800050a124008e
:101cc0000148780016a2a9001682a800904f820051
:101cd0000000e800904f8a00ff01370054508a004e
:101ce0001662a800904f82000000e800904f8a0022
:101cf000f901370054508a008110800060a124004f
:101d00000148780016a2a9001682a800904f820010
:101d10000000e800904f8a00ef01370054508a001d
:101d20001662a800904f82000000e800904f8a00e1
:101d3000e901370054508a008110800070a124000e
:101d40000148780016a2a9001682a800904f8200d0
:101d50000000e800904f8a00df01370054508a00ed
:101d60001662a800904f82000000e800904f8a00a1
:101d7000d901370054508a008110800080a12400ce
:101d80000148780016a2a9001682a800904f820090
:101d90000000e800904f8a00cf01370054508a00bd
:101da0001662a800904f82000000e800904f8a0061
:101db000c901370054508a008110800090a124008e
:101dc0000148780016a2a9001682a800904f820050
:101dd0000000e800904f8a00bf01370054508a008d
:101de0001662a800904f82000000e800904f8a0021
:101df000b901370054508a0081108000a0a124004e
:101e00000148780016a2a9001682a800904f82000f
:101e10000000e800904f8a00af01370054508a005c
:101e20001662a800904f82000000e800904f8a00e0
:101e3000a901370054508a0081108000b0a124000d
:101e40000148780016a2a9001682a800904f8200cf
:101e50000000e800904f8a009f01370054508a002c
:101e60001662a800904f82000000e800904f8a00a0
:101e70009901370054508a0081108000c0a12400cd
:101e80000148780016a2a9001682a800904f82008f
:101e90000000e800904f8a008f01370054508a00fc
:101ea0001662a800904f82000000e800904f8a0060
:101eb0008901370054508a0081108000d0a124008d
:101ec0000148780016a2a9001682a800904f82004f
:101ed0000000e800904f8a007f01370054508a00cc
:101ee0001662a800904f82000000e800904f8a0020
:101ef0007901370054508a0081108000e0a124004d
:101f00000148780016a2a9001682a800904f82000e
:101f10000000e800904f8a006f01370054508a009b
:101f20001662a800904f82000000e800904f8a00df
:101f30006901370054508a0081108000f0a124000c
:101f40000148780016a2a9001682a800904f8200ce
:101f50000000e800904f8a005f01370054508a006b
:101f60001662a800904f82000000e800904f8a009f
:101f70005901370054508a008110800000a22400cb
:101f80000148780016a2a9001682a800904f82008e
:101f90000000e800904f8a004f01370054508a003b
:101fa0001662a800904f82000000e800904f8a005f
:101fb0004901370054508a008110800010a224008b
:101fc0000148780016a2a9001682a800904f82004e
:101fd0000000e800904f8a003f01370054508a000b
:101fe0001662a800904f82000000e800904f8a001f
:101ff0003901370054508a008110800020a224004b
:102000000148780016a2a9001682a800904f82000d
:102010000000e800904f8a002f01370054508a00da
:102020001662a800904f82000000e800904f8a00de
:102030002901370054508a008110800030a224000a
:102040000148780016a2a9001682a800904f8200cd
:102050000000e800904f8a001f01370054508a00aa
:102060001662a800904f82000000e800904f8a009e
:102070001901370054508a008110800040a22400ca
:102080000148780016a2a9001682a800904f82008d
:102090000000e800904f8a000f01370054508a007a
:1020a0001662a800904f82000000e800904f8a005e
:1020b0000901370054508a008110800050a224008a
:1020c0000148780016a2a9001682a800904f82004d
:1020d0000000e800904f8a00ff00370054508a004b
:1020e0001662a800904f82000000e800904f8a001e
:1020f000f900370054508a008110800060a224004b
:102100000148780016a2a9001682a800904f82000c
:102110000000e800904f8a00ef00370054508a001a
:102120001662a800904f82000000e800904f8a00dd
:10213000e900370054508a008110800070a224000a
:102140000148780016a2a8001682a800904f8200cd
:102150000000e800904f8a00df00370054508a00ea
:102160001642a800904f82000000e800904f8a00bd
:10217000d9003700c54f8a00954f8a0016006a00c3
:1021800000f0a7000000ea000000ea004f00de00b7
:10219000ce00370054508a001602a800904f8200eb
:1021a0000000e800904f8a00cb00370054508a00ae
:1021b000c003200090108800904f82000000e800cb
:1021c000904f8a00c400370054508a00300020002d
:1021d00090108800904f82000000e800904f8a0025
:1021e000bd00370054508a001642a800904f82006c
:1021f0000000e800904f8a00b700370054508a0072
:102200001602a800904f82000000e800904f8a005c
:10221000b100370054508a00d0032000901088008d
:10222000904f82000000e800904f8a00aa0037001b
:1022300054508a001662a800904f82000000e80007
:10224000904f8a00a400370054508a00811080000b
:1022500080a224000148780016a2a9001682a800d6
:10226000904f82000000e800904f8a009a003700eb
:1022700054508a001662a800904f82000000e800c7
:10228000904f8a009400370054508a0081108000db
:1022900090a224000148780016a2a9001682a80086
:1022a000904f82000000e800904f8a008a003700bb
:1022b00054508a001662a800904f82000000e80087
:1022c000904f8a008400370054508a0081108000ab
:1022d000a0a224000148780016a2a9001682a80036
:1022e000904f82000000e800904f8a007a0037008b
:1022f00054508a001662a800904f82000000e80047
:10230000904f8a007400370054508a00811080007a
:10231000b0a224000148780016a2a9001682a800e5
:10232000904f82000000e800904f8a006a0037005a
:1023300054508a001662a800904f82000000e80006
:10234000904f8a006400370054508a00811080004a
:10235000c0a224000148780016a2a9001682a80095
:10236000904f82000000e800904f8a005a0037002a
:1023700054508a001662a800904f82000000e800c6
:10238000904f8a005400370054508a00811080001a
:10239000d0a224000148780016a2a8001682a80046
:1023a000904f82000000e800904f8a004a003700fa
:1023b00054508a001642a800904f82000000e800a6
:1023c000904f8a0044003700d54f8a00954f8a000d
:1023d00016006a0000f0a7000000ea000000ea0012
:1023e0004f00de003900370054508a001602a80062
:1023f000904f82000000e800904f8a0036003700be
:1024000054508a00c003200090108800904f820032
:102410000000e800904f8a002f00370054508a00d7
:102420001222ef00904f82000000e800904f8a00d7
:102430002900370054508a0080072000901088003f
:10244000904f82000000e800904f8a002200370081
:1024500054508a001222ef00904f82000000e800e2
:10246000904f8a001c00370054508a001222ef005f
:10247000904f82000000e800904f8a00160037005d
:1024800054508a001642a800904f82000000e800d5
:10249000904f8a0010003700e54f8a00954f8a0060
:1024a00016006a0000f0a7000000ea000000ea0041
:1024b0004f00de000500370054508a000000eb009a
:1024c000904f8a000400370005027800e14f500069
:1024d0001dfc320054508a000030ed000010e20074
:1024e00004003a0013e1a9000200370054508a00aa
:1024f000f9ff37003400f9003200f9004f0478008a
:102500004f03be004f02be004f01be004f00be0091
:1025100000400600809fbe003200f8003400f80042
:1025200010002000a00188000020200090018800f9
:10253000000000000030ec0013e1a8004061ab0097
:1025400003003200200a80004061ab00fdff3a002a
:102550004001ab00020032004001a9000400370036
:102560004001a800015682008100500011558a00e8
:1025700000568a000030ed000010e20001003a0031
:1025800013e1a9000028a9003400f9003200f90085
:102590004f00be0000400600809fbe003200f800e1
:1025a0003400f80010002000a00188000020200066
:1025b00090018800000000000030ec0013e1a8004a
:1025c0004861ab0003003200600a80004861ab0044
:1025d000fdff3a004801ab00020032004801a900ab
:1025e000040037004801a800f15582008100500026
:1025f00021558a00f0558a000030ed000010e200fd
:1026000001003a0013e1a90000a8a9003400f90074
:102610003200f9004f00be0000400600809fbe005f
:102620003200f8003400f80010002000a0018800fb
:102630000020200090018800000000000030ec0025
:1026400013e1a8005061ab0003003200a00a800033
:102650005061ab00fdff3a005001ab0002003200b8
:102660005001a900040037005001a800e155820084
:102670008100500031558a00e0558a000030ed009d
:102680000010e20001003a0013e1a90004a8a9002b
:102690003400f9003200f9004f00be00004006008f
:1026a000809fbe003200f8003400f80010002000c7
:1026b000a001880000202000900188000000000098
:1026c0000030ec0013e1a8005861ab0003003200b9
:1026d000e00a80005861ab00fdff3a005801ab00f2
:1026e000020032005801a900040037005801a80078
:1026f000d15582008100500041558a00d0558a0092
:102700000030ed000010e20001003a0013e1a900e2
:1027100004c8a9003400f9003200f9004f00be00df
:1027200000400600809fbe003200f8003400f80030
:1027300010002000a00188000020200090018800e7
:10274000000000000030ec0013e1a8006061ab0065
:1027500003003200200b80006061ab00fdff3a00f7
:102760006001ab00020032006001a90004003700e4
:102770006001a800c15582008100500051558a00b7
:10278000c0558a000030ed000010e20001003a0060
:1027900013e1a90004e8a9003400f9003200f900af
:1027a0004f00be0000400600809fbe003200f800cf
:1027b0003400f80010002000a00188000020200054
:1027c00090018800000000000030ec0013e1a80038
:1027d0006861ab0003003200600b80006861ab00f1
:1027e000fdff3a006801ab00020032006801a90059
:1027f000040037006801a800b15582008100500034
:1028000061558a00b0558a000030ed000010e200ea
:1028100001003a0013e1a9000508a9003400f900fd
:102820003200f9004f00be0000400600809fbe004d
:102830003200f8003400f80010002000a0018800e9
:102840000020200090018800000000000030ec0013
:1028500013e1a8007061ab0003003200a00b800000
:102860007061ab00fdff3a007001ab000200320066
:102870007001a900040037007001a800a155820072
:102880008100500071558a00a0558a000030ed008b
:102890000010e20001003a0013e1a90002c8a900fb
:1028a0003400f9003200f9004f00be00004006007d
:1028b000809fbe003200f8003400f80010002000b5
:1028c000a001880000202000900188000000000086
:1028d0000030ec0013e1a8007861ab000300320087
:1028e000e00b80007861ab00fdff3a007801ab009f
:1028f000020032007801a900040037007801a80026
:10290000915582008100500081558a0090558a00bf
:102910000030ed000010e20001003a0013e1a900d0
:1029200002e8a9003400f9003200f9004f00be00af
:102930000040060000a0fe003600f800849fbe00a4
:10294000869fbe00889fbe008a9fbe008c9fbe00ef
:102950003200f8003400f80014002000a4018800c0
:102960000420200094018800000000000148a90014
:102970000030ec0013e1a800615682005bac24003b
:10298000e2ac24000aad24008a84e8000984e8004f
:102990008883e8000783e8008682e8000582e80073
:1029a00043ac240010568200e30f50004500320073
:1029b00004003e00e10f50001a00320028003e00e3
:1029c00008003700e50f5000590032004a00390076
:1029d000e60f500064003200e70f50007b003a0021
:1029e0006f0037001280680000f0a7000000ea00c6
:1029f0000000ea004f00de000004e000800032002a
:102a0000018640006dac24000c8646001c06780050
:102a10001c568a00e18f500070003e008100e800e3
:102a20006f00370061568a00448ea90000a02b0079
:102a3000401288004822ef004822ef004822ef00b1
:102a40004822ef004822ef004822ef004822ef0022
:102a5000105682000000e80010568a00630037001c
:102a6000448ea8004012800040128000000d7800c3
:102a700040128000800c780040128000000c78002a
:102a800040128000800b780040128000000b78001c
:102a900040128000800a780040128000000a78000e
:102aa0008049eb000000eb0010568a00128068009d
:102ab00000f0a7000000ea000000ea004f00de007e
:102ac0004700370061568a00448ea80000e62a00bd
:102ad000a1002000f614020001000000448ea900ad
:102ae00000a8260040128800105682000000e8006e
:102af00010568a003d00370061568a00448ea800b7
:102b00000064210001042000f6140200010000000e
:102b1000448ea9004012800010b0260040128800a8
:102b2000105682000000e80010568a002f0037007f
:102b300061568a00448ea80000e62a00a100200009
:102b4000f614020001000000448ea900401280002b
:102b500080b0210040128800105682000000e8007a
:102b600010568a002100370061568a00448ea80062
:102b700000e62a00a1002000f61402000100000077
:102b8000448ea9004012800000a126004012880057
:102b9000105682000000e80010568a00130037002b
:102ba000448ea80040128000804deb000000eb0036
:102bb00010568a001280680000f0a7000000ea00aa
:102bc0000000ea004f00de000500370061568a0071
:102bd0000000eb0010568a00040037008000eb0074
:102be000e14f50006fff320061568a000030ed0067
:102bf0000010e20004003a0013e1a90002003700cf
:102c000061568a00f9ff37003400f9003200f900fc
:102c10004f06be004f05be004f04be004f03be006e
:102c20004f02be003600f9000080fe0000400600a2
:102c300000a0fe00849fbe00861f78003200f800ce
:102c40003400f80014002000a401880004202000b3
:102c500094018800000000000188a9000030ec0009
:102c600013e1a8002322ab0012003a00f2ea81002f
:102c700000eb8100800f51000e00320000d62300cf
:102c8000e5952300f43f20000320200090804200bf
:102c90009180fb00211188009000e800048860000a
:102ca000161180008680610002003a00900f11002a
:102cb000f6ff3a000030ed000010e20001003a009b
:102cc00013e1a9003400f9003200f9004f03780045
:102cd0004f02be000080fe000040060000a0fe0083
:102ce000849fbe00861f78003200f8003400f80090
:102cf00014002000a4018800042020009401880012
:102d0000000000000b28a9000030ec0013e1a8002f
:102d1000b322ab0013003a00022c8200102c820078
:102d2000800f51000f00320020582400e5df2f00f3
:102d300080824200f41f2000032020009080420087
:102d40009180fb00a11588009000e80004886000d5
:102d5000961580008680610002003a00900f1100f5
:102d6000f6ff3a000030ed000010e20001003a00ea
:102d700013e1a9003400f9003200f9004f03780094
:102d80004f02be000080fe00004006000040da0056
:102d90000000fe006900e100040035006d00e10064
:102da000030034000002b100010032000000050001
:102db000100005000a00fa00e20f500020003e005b
:102dc00080588200e10f500006003200802320006e
:102dd0004523200023232000042320000000e000de
:102de00004003a00802220004522200023222000f7
:102df00004222000060028001403630003003a00a8
:102e00000608780000002800140a700013a8a30028
:102e100001003a0013a0a00002007800050037006e
:102e20001388a300feff32003102fb00840a780001
:102e30000000e9000000e000f9ff3a000800370058
:102e400033002000b3bf9f00c0bf9f00d1bf9f00d1
:102e5000e2bf9f006a805700e80e07006fb9970035
:102e6000020078000080fa00000006003200200016
:102e70005e00370003f0a200889fbe008a9fbe005c
:102e80008c1f7800d4020700db0233006450e1009d
:102e90004f0032006420e1005200320003826c00d7
:102ea00007003b000905d0000306d000820f540044
:102eb0000c065d0002003900020032008901780032
:102ec000030678008582550004003d000003fd00e4
:102ed0008103fd008502ea008b854200840f7200a9
:102ee00002003b0060001000e08018006011b80094
:102ef0000005eb007a28e1000a003900060078009e
:102f0000c75ddd00f707b200878075002d00370030
:102f1000828171000a017800610560008180d10022
:102f20000080d3008502e900f9ff3b000604400061
:102f30008784480002003b0060041400e0841c0009
:102f40000988a300070032008a8171008281710024
:102f5000610164008904d1000884d3008b05e80076
:102f6000170037000978a30013003a000b00e000b7
:102f7000130034008b05e9000804440089844c00e8
:102f80000a4474000978a3000d003a000b00e00029
:102f9000070034008b05e9000804440089844c00d4
:102fa00001003a000b0020000978a300f7ff32006f
:102fb0000001eb0002003700828171000a017800f5
:102fc0004a0207000cf0a70001f0a00093023700ae
:102fd0006420e10002003a00838f6c00930233000a
:102fe0000801be000200be008c023700889fbe00b0
:102ff0008a9fbe008c9fbe000206780001f0a700e9
:103000000cf0a0000004be005e0207000800be0035
:103010006420e1000700390002003a00f1ff2700b8
:10302000f0ff2f000160a000120220004280880003
:103030005100370009f0a1000800be000200200086
:1030400003f823008b010700f4ff3c000800be00da
:103050000200200003982300840107000800be003e
:10306000300035000200200003f02300810107003a
:1030700005003c000800be000801be0090020700e9
:103080000005be000e0037000c10a200000020005a
:1030900001f823000801be0076ff070002002000af
:1030a00003f02300860207000005be0006040700a7
:1030b0000200200003002c00810207000004be0073
:1030c0000a00be00b2d02800130b2c006aff0700d4
:1030d0000a01be007a020700020f2500330b24000c
:1030e00065ff0700809fbe000a00be005206220056
:1030f00013f02b0072020700b2662100f3f62300e2
:103100005dff07000a01be006d0207004f01be000f
:10311000a30007000801be00690207000801be0005
:1031200055ff07000c00a70007003700b2fd200084
:1031300093fc23000c10a7004fff07000cf0a70022
:1031400001f0a2000c0037000cf0a70002003700cd
:1031500001f0a20004003700b2fd20009304240017
:103160000c10a60003003700b2fd200093fc2300e2
:103170000c10a70040ff07004f06be004f05be0021
:103180004f04be00000006000001eb0097ff37006f
:10319000889fbe008a9fbe008c1f78000e02070029
:1031a0001002200002003b0040808800120237001d
:1031b0008a0062006408e10002003a004080880052
:1031c0001a0237006108e100fcff32000800be006f
:1031d000030478007200070001f0a1000900070055
:1031e00008f0a600040037000001be00910424008e
:1031f000b0fd20001fff070009f0a70001f0a200aa
:1032000006023700889fbe008a9fbe008c9fbe00ca
:103210000004be00db0107000800be00890678003c
:103220006420e10008003900040032000160a000c1
:1032300012022000428088005300370091fc2300d6
:10324000b0fd20004e0037000006eb0009f0a100a1
:1032500003f82300020020000800be00030107005d
:103260000600340001f82300000020000801be0021
:103270004b0007000004be002c0020000800be0028
:1032800093e82300320a2300f800070012003400fc
:103290000801be00d1fd2300703d2b00f6fe0700a3
:1032a0000005be00b3f32300f27a26000800be003a
:1032b0000302070003f8230002002000edfe0700d0
:1032c0000801be00ecfe07000a01be003400070042
:1032d0000004be000c06e8000800be0001f0a100da
:1032e0000200200003982300e00007000800be0051
:1032f000160035000801be00f10107000005be0000
:1033000032cd2c0043fb2300dbfe0700809fbe0074
:103310001269280003d52b000a00be00e80107004f
:10332000620f210013ef2b00d3fe07000a01be003d
:10333000e30107004f01be00190007000801be00ad
:10334000df0107000801be00cbfe07000c00e00013
:103350000b0032000c10a70001f0a200b2fd20000b
:1033600093fc23006260e1000400320022a92000e7
:1033700063f023000c10a70063f82300befe0700d3
:103380000df0a70001f0a2004f06be004f05be00e1
:103390004f04be00000006000081eb00df02370092
:1033a000889fbe008a9fbe008c1f78008a0107009c
:1033b0009101330003866c006450e1002e0032005e
:1033c0006420e100330032006150e1002f00320040
:1033d0006120e1003100320085855500eb07b00027
:1033e00009002000080420000500370008044400fc
:1033f00089844c000a0031000603430087834b0098
:103400000001530081815b00f8ff33000203be001e
:103410000800a0000804440089844c00f6ff39002d
:10342000c639dd0083017300010032001300200063
:103430008904d1000884d3000998a3000500320054
:103440000800a7000300a0008904d1000884d3006d
:103450008b05e8008904d1000884d3000001eb004b
:103460000281d2002101070001f0a1000cf0a700a9
:1034700001f0a000690137006420e1006b01320017
:103480000801be000200be00f7ff37006120e10026
:10349000660132006000b800f3ff37000000200032
:1034a00001f82700f0ff3700839f68000100e0006b
:1034b00002003d0060001000e08018000300e00002
:1034c00002003d0060011100e0811900bb0307000c
:1034d0004f00e00002003b0060001000e080180098
:1034e00000000600889fbe008a9fbe008c9fbe0021
:1034f0000004be00230107000800be006420e100b4
:1035000048003e005500320072212700132b240092
:103510005800070047003c000800be00c2ec28002d
:10352000e32c2c0051000700470035000800be00c6
:1035300001f0a10002002000033823004b00070027
:10354000430035000800be00b2a32a0083fb23001d
:103550005b0107000200200003f0230001f0a70038
:1035600003f0a00044fe0700440007000005be0071
:103570007e00070001f0a2000006be000200280045
:1035800013f323004e0107000801be003afe0700b6
:10359000809fbe000c00be0032082800e3952b007f
:1035a000470107004f01be0033fe07000006be00c2
:1035b0000001be0042010700809fbe00424125007d
:1035c00083b823003e0107000200200003e8230027
:1035d00029fe07000c01be00390107000006be00ed
:1035e0004f00be00f2f92b00c3d4230034010700c2
:1035f0000200200003f023001ffe07000c01be00a4
:103600001cfe07000001be000c00be0064ff0700a6
:103610000200200003f0230017fe070061014500af
:10362000050107004f06be004f05be004f04be0057
:103630000000060001f82700000020002202200000
:1036400042808800f7ff37006000b800fbff3700ba
:1036500001f8230000002000f2ff370009f8a30062
:10366000f0ff32006000b800eeff370014002000c9
:10367000d9033700f4ff2f00d70337000001be0045
:10368000c00007000470a70003f0a1006509b100a5
:10369000160032000d0035006828e10006003500f4
:1036a000f0ff2f00f1ff27000300e00013003b00b4
:1036b0000100280000000500000040008180480053
:1036c0008502e900fcff3a0008003700f88f42004d
:1036d00002003c008000eb00000005008100d100ea
:1036e0000080d3008502e800fcff3a000300e00000
:1036f00002003b0060001000e0801800000006009f
:103700000001be009f0007000470a70003f0a100a5
:1037100003f8a30013003a006509b100100032005d
:10372000090035006928e100020035000100280089
:103730000000050000004000818048008502e9008b
:10374000fcff3a0000000600f88f4200050035003b
:103750008100d1000080d3008502e800fcff3a0020
:10376000000006008000eb00000005004f89de002d
:1037700082017800b30337006011b800c10337003d
:103780000001eb006d03070004003200020020007e
:1037900003f8230001f0a700b6fd070000000600b3
:1037a0000400200000003700889fbe008a9fbe00f2
:1037b0008c1f78004f26dd00870007008e00330045
:1037c0006120e100430032006250e10041003e0010
:1037d0003e0039006420e1003c00320005825500c3
:1037e0000f003b000402e80038003a00800f53004d
:1037f000818f5b00350034000800be0003f0a1009b
:1038000001f0a60003f0a0000cf0a7009afd07004d
:10381000820037000603430087834b000c464600b6
:103820000005530081855b00020033000a03be00df
:103830000c00a0000402e900f6ff3b0085057800bb
:103840000602430087824b0004003a006000b80083
:1038500009f0a70001f0a00070003700000252003c
:1038600081825a000704e00004003300060343008d
:1038700087834b008b05e900faff370009057800c4
:103880000604be000203be006011b8001700070066
:10389000e00f5200e08f5a000700350002003c00a4
:1038a0000c08a300040032000601be0003f0a000d3
:1038b0000cf0a70070fd07000a85680001f0a10068
:1038c0000af0a70001f0a000540037000800be0075
:1038d00052003700100220000cf0a6004080880043
:1038e00052003700040020003b0337008100200015
:1038f000618055000b003d000b00200061fe2f0091
:103900000100e1001d00340082817100610164004a
:103910008904d1000884d3000000e800faff3a00cf
:10392000710020006100640003007000020060006c
:103930000900320061044400e0844c000988a500bd
:10394000050032008b05e8006808e10002003a003b
:103950008904d1000884d300f20f20000258e1004e
:1039600005003d00c75ddd00f907b20089807500e4
:1039700008007800000006000bf827008b00780094
:1039800000000500c70ade00f107b200f50fb20023
:1039900008003200e1cf4200020032000170a000b6
:1039a00024000500810f70000100320004080500aa
:1039b00044000500810f700002003a001400050069
:1039c0008502e9000000400081c04800fcff3b0088
:1039d0000170a000240005000004be00e9ff0700fc
:1039e0000003be000405be000200be00e5ff0700a4
:1039f000844f7500000006000200be006450e10024
:103a0000050036006420e100020036000968a300ca
:103a100001003a000800be000160a0004f067800d7
:103a20004f05be004f04be0000000600f0ff2f004f
:103a3000f1ff2700f9ff37000003be00d1ff0700a8
:103a40006220e100020032000600be000000060015
:103a500085024100e30f20000328e10005003c003f
:103a6000a3fe2f000328e10007003d000500200011
:103a700001003700f50f2000200220004080880060
:103a80006000b80008003700130020008381520056
:103a900005003d008100d1000080d3008301e800d3
:103aa000fcff3a0005002000c72add00f107b20044
:103ab0008580700007f0a70001f0a000000006005c
:103ac000889fbe008a9fbe008c1f7800c2ff07003f
:103ad000c9ff330003866c006450e100240032000b
:103ae0006420e100270032006150e1002200320032
:103af0006120e100210032008b854200eb07b1001c
:103b00000134b800003ab8000804420089844a0031
:103b1000013ab8000030b8008880400009014a002e
:103b20000400330000004000818048000201490089
:103b30008b05e900c909dd00830170000100320036
:103b400013002000c814de004814dd004709de0021
:103b50001200b200c808de000884700063ff07008e
:103b600001f0a1000cf0a70001f0a000abff3700ae
:103b70006120e100adff32000801be000200be007e
:103b8000f7ff37006150e100fcff3a00a7ff370064
:103b90000c00fa00889fbe008a9fbe008c9fbe006a
:103ba0008dff07000206be00840578000200be00fb
:103bb000020020006102070005003a008b02b300fa
:103bc000120020005d02070001003a00f8856d0038
:103bd0000c01be00c60007000800be009b003200ba
:103be0000b08a3009e003a000df0a7000be0a00018
:103bf00009f0a7000bf0a00009f0a1000801be0029
:103c0000bb0007000bf0a6009500320001003c004d
:103c10000bd0a0008acf7500b20033006000b8005e
:103c20006250e10099003900a1003e000b28a3007a
:103c3000a2003a000bf8a300060032000b58a300c4
:103c4000a70032000801be00a90007000800be005e
:103c5000940032000800be00eb0107000004be0023
:103c6000050578000bf0a7000b30a6000bf0a100b3
:103c70005b079800324f200053f323007bfe0700c0
:103c800005003d000800be00120020006aff07008a
:103c90000004be000a05e9004a0798006150b90017
:103ca000b2fe0700008fbe000c01be0084ff0700bb
:103cb00072fe0700300798000100e00002003d009e
:103cc00060001000e0801800f2ff2700820f500013
:103cd000e08f580064003e000c00be0067fe070045
:103ce00020079800f2072000820f5000e08f580054
:103cf00005003c0012f82f00f3ff2f00820f500048
:103d0000838f580009003d000a00e00003003200e4
:103d100001003c000201ea00020578006000b800e2
:103d2000200798003a079800190037003e009000dd
:103d30006100b9008dfe0700809fbe000c00be0030
:103d40004109dd004811de007208b100fb010700e7
:103d50000005be001e01be0059ff07004f01be0056
:103d600044fc0700809fbe000c00be000a01be009c
:103d700040fc07001e01be0051ff07004f01be00be
:103d80003dfc07008221270013f323004cff0700ae
:103d90000005be002e0090006100b90073fe070010
:103da00001f0a2000c01be0033fc07000006be00bb
:103db0000800be00620207000c01be0040ff0700c1
:103dc0000a01be002cfc0700809fbe004a000700cd
:103dd0002e0590000af0a7000a05ea00050037004a
:103de0000800be000801be0035ff07000004be0049
:103df0000c00be000801be000a00a70030ff07004b
:103e00000006be000a05d100f5ff3a005e019000f1
:103e100002e0a600030037000001be0036000700e4
:103e20005ffd07000004be004f00be00adfd0700af
:103e30000801be0022ff07003e019000fefe0700c1
:103e4000de0590000bf0a70001f0a2004f06be00b7
:103e50004f05be004f04be000080fa0000000600bf
:103e600025000700f9ff3700270007006000b800b1
:103e70000bd0a7000bc0a0000be0a7000bc0a20056
:103e80000bc0a70001f82700f0ff37000df8a300d2
:103e9000020032001e000700190007000bf8a30003
:103ea000eaff32000b30a70001f0a200e7ff370065
:103eb0000df8a300f9ff3a00f7ff37000801be0034
:103ec0000b000700e6ff320001003c000df0a200ed
:103ed0006000b8000df0a70009000700dbff370005
:103ee0000b000700f1ff2700f0ff2f00d7ff37007e
:103ef00001000700ddfd370001f823000000050088
:103f000001f8270000000500200220000100370012
:103f1000100220004080880000000600889fbe003c
:103f20008a9fbe008c9fbe00820578000004be0000
:103f300094fe07000800be006420e100070039007d
:103f400002003a00f1ff2700f0ff2f000160a000ff
:103f50001202200042808800550037006120e100f5
:103f600003003a000b00a70001f8230050003700bf
:103f700001f0a1000200210093642400bbfd0700b2
:103f80000800be0004003500b2fd2000930c2400a0
:103f900003fe07000004be000005eb000b00a600b6
:103fa0004f0dde0001f0a1000004be0032982f008a
:103fb00023ea2300c2fe07000001eb0003f0230008
:103fc0000b00a70003f82300abfb0700abfd0700c5
:103fd0000000a7000a00a200e4fd07000b00e000bb
:103fe000030032000200200003f02300a1fb0700c1
:103ff00001f0a2000006be0002002000930424008d
:10400000affe07000801be009bfb0700809fbe00bb
:104010000c00be0022a22a00d3a72300a8fe07009e
:104020004f01be0094fb07000004be0001f0a10098
:1040300002002000039823008cfd07000800be004a
:10404000190035000001be009dfe07000006be00fd
:10405000b2c52900e362230099fe070022222b004b
:10406000f3942b0084fb07000c01be0094fe0700b4
:10407000e273280083c023007ffb07000c01be0011
:104080008ffe070042aa2a00a3e22b007afb07005a
:104090000c01be008afe07000801be0088fe070072
:1040a0000801be0074fb07000a00a70001f0a2008f
:1040b0004f06be004f05be004f04be0000000600c4
:1040c0000001eb0095ff3700889fbe008a9fbe006d
:1040d0008c1f78000004be002afe07000478a300ad
:1040e00026003a006120e1002500320009f8a30013
:1040f00025003a006420e10021003200f507b100fc
:104100000508a30002003200000040008180480042
:104110006044b800031020000200200000004000ae
:10412000818048000805440089854c000a0541004b
:104130008b8549000a0550008b8558000300330029
:104140000a00be0002047400838474008301d1005d
:104150000281d300830f7100f0ff3a008904d1007f
:104160000884d3006001490082017800c1adde00ff
:10417000fb07b000ddfd070028fe37000960a00046
:104180000800be0025fe3700120220004280880091
:10419000f0ff2f00f1ff270020fe3700889fbe00b0
:1041a0008a9fbe000004be00f6fd07000800be00a6
:1041b0006420e1000700390002003a00f1ff270007
:1041c000f0ff2f000160a000120220004280880052
:1041d0004c00370001f0a10002802000935c240015
:1041e00022fd07000800be0004003500b2fd2000db
:1041f000930424006afd07000004be0032982f00db
:1042000023f223002efe07000200200003f023000b
:1042100001f0a70003f0a00017fb070017fd07003f
:10422000801f780051fd070001f0a2000005be00cc
:104230000200200093fc230021fe07000801be00bd
:104240000dfb0700809fbe000a00be0022a22a00cc
:10425000d39f23001afe07004f01be0006fb070094
:104260000004be0001f0a10002002000039823001a
:1042700000fd070003003d000000200001f82300be
:10428000180037000800be000001be000cfe070049
:104290000005be00823b230043dc2b0008fe070024
:1042a0000801be0006fe07000801be00f2fa070082
:1042b0000004be000a00be0052372300f3c12300f1
:1042c000fffd0700f27a2b00b3ed2b00eafa07009e
:1042d0000a01be00fafd07000200200003f82300d7
:1042e000e5fa07004f00a600030037000801be00f2
:1042f00003f0a200020037000001be000800be006b
:1043000027fc07004f05be004f04be00000006005a
:104310001400fa00889fbe008a9fbe008c9fbe00da
:104320000005be000206be00680047000c90be00fb
:104330000a90be00410007006400e1001a0032004c
:1043400016003e006100e1001a0032006e04900089
:10435000fe0490000e0b90009e0b90006011b800c0
:104360009e0590000b38b100d501200082817100bc
:10437000610164008703d1000683d3008984d300e0
:104380000884d3008502e900f8ff3a0057fd0700d2
:104390000df0a70001f0a00063003700f1ff270037
:1043a000f0ff2f006000370001f827000000200018
:1043b000f7ff37006000b800f5ff37006022b80053
:1043c000060220000000d0008180d2000482d200ca
:1043d0008582d2000000a0000202520083825a00af
:1043e000030031000202420083824a000000a10063
:1043f0000603e900f3ff3a0000000600efff0700a4
:104400000400be00000006000003be005dfd0700c2
:104410006220e100020032000600be000500050037
:10442000e507b100f107b20004f0230084807000ba
:1044300007f0a70001f0a00024000500800078002c
:104440005002be005003be004439de00f700b20047
:10445000f37f200003016100090032000218e1002f
:1044600016003a0085017200830173008381730096
:104470000008200015003a0040002000130037001b
:1044800085017200830173008381730005003a0087
:1044900004a8be0006a8be00100020000b003700d4
:1044a0000201e9000402420085824a0006034b0033
:1044b00087834b000748a300f9ff32000740a000a4
:1044c00004a8be0006a8be002000200080009800be
:1044d0009200980000000600680447000294be00a5
:1044e0000094be00fc0447008694be008494be0085
:1044f00009007800d1ff070008007800cfff07000f
:1045000099007800814f70000b003b000800be004e
:10451000e20007004f00b10003003700f3ff27005f
:10452000f2ff2f006110b9004f06be004f05be001c
:104530004f04be000080fa0000000600889fbe0005
:104540008a9fbe000003be000efd070085057800af
:1045500082815200020020006220e10004003a0043
:10456000f307b100040035007718e10004003500be
:104570000600be00140037006000b8000f003700ce
:10458000f50f2000faff2f008502d1000a85d30025
:104590008301e900fcff3b008184620000046500a8
:1045a000890f7400f2ff32008582ea000a85ea0072
:1045b0008184620000046500ccfc070007f0a700be
:1045c00001f0a0000081eb000200e0004f05be00fa
:1045d0004f04be0000000600889fbe008a9fbe00f8
:1045e000841f7800fcfc07004f00780011003300a6
:1045f000f0ff2f00838f6c0006003b000405650070
:104600000a00a7000800370009f0a60010002000eb
:1046100008003700820f5400838f5c0003003900cc
:104620001000200001003e000000200009f0a7005b
:104630000000ea004f05be004f04be000000e0008d
:1046400000000600881f7800030478000300e000e3
:1046500007003d0060001000e080180060011900b4
:10466000e081190002003b0001f02d00030037003b
:104670000400070008f0a70001f0a0004f04780034
:1046800000000600889fbe008a9fbe000082700066
:104690000402710004827100260032000004be0092
:1046a0000200be006011b8006b09200095022000d6
:1046b0000182cf000a0039000541b1000082cf001d
:1046c000070039000541b1000982cf00040039001c
:1046d0000541b1000882cf00010039000541b10059
:1046e00005425200120032000a003b008281710034
:1046f000610164008100d1000080d3008984d3006f
:104700000884d3008b05e8000442e800f7ff3a0074
:10471000070037000804440089844c00000048006a
:10472000818048008b05e9000442e900f9ff3a0066
:104730006efc07004f05be004f04be0000000600df
:10474000889fbe008a9fbe008c9fbe002eff070080
:10475000850478000005be006420e10049003e00a9
:104760006220e10003003200090035000bf8a300cd
:10477000440032000bf8a3000800320010022000b1
:1047800040808800f0ff2f00f1ff27003d00370038
:1047900001f82f00000020003a0037003d0007001c
:1047a000b4f907000006be000a00be00324f200028
:1047b00053f32300affb0700060034000c00be00db
:1047c00034000700abf907000006be000a00be0077
:1047d000020037008904e9000c00be002d0007002c
:1047e000b7fc07002b000700a3f907000001be007b
:1047f0000c00be00eafa07000005be000001be0082
:10480000affc07000006be00a2f32300430d2c00fe
:1048100099f90700809fbe000c00be00d2e327007c
:10482000d3f02b00a6fc07004f01be00dcfa070006
:104830000006be000a01be00a1fc07000a01be007e
:104840008df907000006be006148b900c7fb0700ec
:104850000005be0032082800e3952b0098fc0700f5
:104860000c01be0084f907000006be000a00be006d
:104870000200280013f3230091fc07000c01be0086
:104880007df907004f06be004f05be004f04be0075
:104890000000060003f0230002000500e48240004f
:1048a0001078a30007003200640240001178a300d2
:1048b0003400be001401be00040032000330a70023
:1048c000000006003500be001501be000330a00048
:1048d00000000600889fbe008a9fbe008c9fbe001d
:1048e0008e1f7800010678000c00e0000100320005
:1048f000000e780080047800090578008a047800aa
:10490000b905fb000b00780022f907000000e00069
:10491000f9ff3a00d0022000808f550003003a00d2
:104920000905780018c0b300050037000044eb000b
:10493000b0022000808f550001003a000905780080
:104940006000b8008004eb000007eb0001003700b6
:104950000a05e8000a0178000848a30005003a00ab
:10496000e3c2b3009acf110002003a000844a0004d
:10497000f7ff37009a4578008b01fb000303b10075
:10498000e98f510016003e000814a0000801fb004a
:10499000e98f54000e0032000248a30001003200eb
:1049a0000e07e9008904e800a200200003002000af
:1049b000350a070002cdb30002c145000281fb00a9
:1049c0008001eb000000410081804900e0ff3700da
:1049d0000248a300deff3a000e07e800dcff3700c4
:1049e00053c6b30083cf5500040032008004eb00af
:1049f00053c4b30083cf55002d003a005a417800cc
:104a0000d3c2b300834f510002003a000834a00023
:104a100003003700b3c2b300834f510001003a00d6
:104a20000a05e8000a017800020578003a42780099
:104a300003c3b300834f5200faff32008402fb002d
:104a40000503b1008004eb00e98f520015003e0021
:104a5000834452008984fb000a01780012427800e6
:104a60008402fb000503b100e98f52000d003e00f7
:104a7000ea4bb900834452008984fb0086844400d9
:104a8000524278008402fb000503b100e98f520016
:104a900004003e00ea4bb900834152008381fb00d1
:104aa000830443000838a300010032008904ea00af
:104ab0000c00e000030032000818a30001003200df
:104ac000020e780029fb07000005be000006be00ac
:104ad0006011b800e5fa0700000178006000b80036
:104ae0000200e000580032008e84440032f82f00ab
:104af000828f540003003d00220220004280880083
:104b00005100370000082000808f54000700340057
:104b100020022000408088000808a30045003200e1
:104b20000000200001f82f00470037000900e000d6
:104b30001b003d008904ea0006003700922f200088
:104b4000530125000a00be0015fa07000005be004b
:104b5000ea845400e98f5400f8ff3c000600370057
:104b600002002000031224000a00be000cfa070015
:104b70000005be008904e9000900e000f8ff3a00e2
:104b80000a06be0002002000030820000a00be0042
:104b9000b6fa07000000e00021003d001b003700ce
:104ba0000900e00007003a001d003700922f2000a6
:104bb000530125000a00be00c1fb07000005be002e
:104bc000ea845400e9cf5400f8ff3e0006003700a5
:104bd00002002000031224000a00be00b8fb0700f8
:104be0000005be008904e9000900e000f8ff3a0072
:104bf0000a06be00f2ff2f00f3f727000a00be00ee
:104c00009cfa07000000e000050034000808a3003b
:104c10000b00320000002000010828000a003700c5
:104c20000808a300010032000df0a2000c00be0035
:104c3000050037000000200001f8270002003700bf
:104c400000002000010820004f0778004f06be003a
:104c50004f05be004f04be00000006001dff3700d8
:104c60008000eb001bff3700800078000100780017
:104c70003041780003c2b300834f5100faff320085
:104c8000e94f5100f8ff3200edc14100834f510060
:104c900003003a008000780013c0b300050037001d
:104ca0008041eb00b4c2b300844f510001003a00d0
:104cb000800078000000eb0002003700ea00b90035
:104cc000000041003101fb000203b100e90f510077
:104cd000faff36000304e000010032000000ea00a1
:104ce000000006008001780002003700b15978000a
:104cf0000201e9000200e000fcff3a0000000600ab
:104d00008001780002003700815978000201e90033
:104d10000200e000fcff3a000000060000017800fd
:104d200002007800b041780081cf510003003200ca
:104d30000304e000f9ff3a000001eb0002007800f4
:104d400000000600800078003104e000feff3a0019
:104d50000080ea000080400000000600800178002a
:104d6000060037000201e900b14278008559780059
:104d7000030278000504e000060032000302780018
:104d80000200e000f7ff3a0002003700005aeb0093
:104d90000201e9000200e000fcff3a00000006000a
:104da0000c00fa00889fbe0000047800f0ff270086
:104db000d0bf9f008004eb0099bf9f0088bf9f0079
:104dc000a8bf9f00200c2000b0bf9f007881570033
:104dd000cfb0970070805700cf0007000fb8970042
:104de000094878008fb89700088050004f04be0033
:104df0000080fa00000006000800fa00889fbe004c
:104e00008a9fbe000084fb00d1c6b300814f5000d2
:104e1000340036004b062000110009000b84d80036
:104e200081057800720040004300dd0049632400e2
:104e3000008044006022b8000600200007fe230026
:104e40005001be004000be00980807000002be00ee
:104e50000203be0084bf9f0095bf9f00a6bf9f00b6
:104e6000b7bf9f00aa002000110009008a85d80062
:104e700080057800e9854500c35ddd008b85440031
:104e80003b02be002b03be000fb897009fb89700ef
:104e90002fb99700bfb99700840807000002be0031
:104ea0000203be0084bf9f0095bf9f00a6bf9f0066
:104eb000b7bf9f00110009000a84d80001047800e0
:104ec0004344dd00888444003902be002903be004b
:104ed0000fb897009fb897002fb99700bfb99700f8
:104ee0001d003700ea4f500013003600aa002000d2
:104ef000110009000a84d800010578006904400007
:104f00004344dd0049632400088444006022b80063
:104f10000600200007fe23003800be002801be0066
:104f2000620807004355dd008a8444003902be0050
:104f30002903be00080037004344dd00406324001d
:104f4000080440006022b8000600200007fe23008d
:104f50003800be002801be00540807004f05be00ff
:104f60004f04be000080fa00000006000800fa00ae
:104f7000889fbe008a9fbe00d1c6b3000004e00037
:104f800023003d000040ea000004fb00814f500078
:104f90000a00340042062000110009000204d80073
:104fa000a9002000110009008900d800e900400094
:104fb000c308dd004a63240021003700ea4f500097
:104fc00010003400a2002000110009000204d800e3
:104fd00001017800690040004300dd0041632400c6
:104fe000008040004311dd00828040003102be009d
:104ff0002103be005001be004000be002b08070088
:10500000380037004344dd0040632400320037009d
:105010000004fb00814f50002300340042062000b2
:10502000110009000204d800a900200011000900a5
:105030008900d800e9004000c308dd004a58240078
:10504000810045003102be002103be008b09200013
:105050008a8545003b00be002b01be0013080700f7
:105060000002be000203be0084bf9f0095bf9f00e8
:10507000a6bf9f00b7bf9f00110009000904d80018
:10508000010478004344dd00080545003a02be00f3
:105090002a03be000fb897009fb897002fb997005a
:1050a000bfb99700d5ff3700ea4f50000800340021
:1050b000a2002000110009000204d80001017800bc
:1050c000690040004300dd0041582400c4ff370060
:1050d0004344dd0040582400080440003800be006e
:1050e0002801be004f05be004f04be000080fa003c
:1050f00000000600d0019000028151004240a9004a
:105100000300340010017800014978000208e8002b
:105110000100780000000600ef03b000889fbe0089
:105120008a9fbe008c9fbe008e1f7800000678000c
:10513000e19f9f0082af9f006000b8006011b8003f
:1051400080a79f0091a79f00a2a79f00b3a79f00e1
:105150008006eb009b053700ef9897008100e80080
:10516000e19f9f0051c2b300814f500003003a00fd
:105170006f9997000007eb0011003700bc0090000a
:105180000000fb000168a300070032000d01780059
:10519000800078000c007800d6ff07000000e000d7
:1051a00005003a00870537008c007800910507005c
:1051b000e10f4000830532008d06e80081053700cd
:1051c00002007800b2407800d3c2b30083cf500011
:1051d0000c00320007003c00edc1510083cf5000ad
:1051e0000a003200ebc1410083cf50000d003a00ad
:1051f0000800370003c3b30083cf500009003a0012
:10520000060037000e30a000edff37000e00a000b2
:10521000ebff37000e10a000e9ff37000e20a000c2
:10522000e7ff37000e18a300010032000e00a100b6
:105230000e38a300010032000e20a1000101fb0086
:105240000203b100e90f51000e003e00800078001b
:105250000001eb0092b79f00ea11b9003100fb009a
:105260000003b10002014000010078009101fb0041
:105270000303b100e98f5100f7ff360092b79f009a
:105280000a0037008001eb0093b79f00a2c2b30071
:1052900082cf500005003a000faa9700c4027800a0
:1052a00084af9f0095b79f000000e800e1c2b30003
:1052b00090cf100017003a000ee0a000e4c05000ac
:1052c000d0cf100003003200800078008001eb0096
:1052d000090037008fab9700c700780087af9f00a9
:1052e000d1af9f000000e800000178000d003700fa
:1052f000ea18b90080014100010078003101fb008b
:105300000203b100e90f5100f9ff3600d3af9f004f
:10531000f5ff37000ec0a0000001eb00d2af9f00e8
:10532000f1ff3700820178003340780003017800f4
:10533000c1c6b300814f50002b003200e39f9f0095
:1053400014003c00e8c05000814f5000240032009f
:1053500009003c00ecc05000814f50002e0032008c
:10536000ebc04000814f5000980032000004e00084
:1053700019053200b400370061c6b300814f5000f8
:105380001f003200e3c04000814f5000ae003a00e1
:105390001300370031c7b300814f500022003200a4
:1053a00007003c00e4c05000814f5000170032005d
:1053b0008140e800814f5000a3003a0016003700fa
:1053c00051c7b300814f5000a4003200e3c0400039
:1053d000814f50009c003a00e0779f00100037009a
:1053e000e0779f009f003700000120000e48a300d7
:1053f00001003200000028000e077000c9ff3700ce
:10540000e0779f000ea0a00096003700e0779f0095
:105410000e60a00093003700e0779f000e50a000c0
:105420000e70a0008f003700e0779f008fa99700d3
:105430004300780083af9f00000478000000e00084
:1054400001003a0068702400080178000000eb00b9
:10545000010037000000e800800041001104e00076
:10546000fcff3a00800478005faa97000400e00087
:1054700003003200890f52000100310084047800db
:105480008001eb009fb29700898f52000100360027
:105490008981520068036700d6af9f002c003a0054
:1054a00003077800110037003c0090000068a3005b
:1054b000070032000d017800010220000c00780086
:1054c0000cff07000000e00006003a00060037006d
:1054d0008c00780000022000c6040700e10f4000a5
:1054e000010032008d06e8000e07e9000e00e00022
:1054f000edff3a008081eb00150037003c00900082
:105500000068a3000900320008007800b000fb002a
:10551000000478000d0178000c007800f5fe07000b
:105520000000e00008003a000a0037008800780018
:105530003100fb00010478008c007800ad04070006
:10554000e10f4000030032008d06e8000100370043
:1055500003077800090078008004e9000000e000fb
:10556000e6ff3a008e017800dfab97000700e0000d
:105570009404320003077800110037003c009000cb
:105580000068a300070032000d017800010220002e
:105590000c007800d7fe07000000e00006003a008b
:1055a000060037008c0078000002200091040700fc
:1055b000e10f4000010032008d06e8000e07e9000f
:1055c0000e00e000edff3a007e0437008fa8970040
:1055d0004100780081af9f006102b900612bb900e2
:1055e00094af9f00a5af9f00b6af9f00c7af9f00cd
:1055f0004822de004828dd0004027000e4779f00a6
:105600000e48a300090032000404e0000700320045
:10561000e14f420005003200f4779f00afd09700c1
:10562000817f9f0029002000030037002fd19700c1
:10563000f2779f001900200063fb2f008f8141004b
:105640000304e80088ff3700e0779f0068fb2f0025
:105650000f0444001900200083ff3700e0779f000b
:105660000e0cb300007020000000670064023200de
:105670000ec8a3000200320064002000d4af9f00d7
:105680000e48a300090032000faa97004401be0093
:105690004400be0084af9f0090af9f00a1af9f0069
:1056a000b2af9f00c3af9f000a0037008faa9700d8
:1056b0004500be0085af9f00e40507000002be0064
:1056c0000203be0094af9f00a5af9f00b6af9f003e
:1056d000c7af9f006022b8006033b8001fa89700d2
:1056e000afa897003fa99700cfa9970042050700f0
:1056f0000000e0000a003d001fa89700afa8970037
:105700003fa99700cfa9970003f0a20090af9f0098
:10571000a1af9f00b2af9f00c3af9f003e00b30098
:105720000000eb00d09f9f006022b8006033b800fb
:105730001fa89700afa897003fa99700cfa997008f
:10574000910507000000e00034003200a4fb2f00a8
:105750000f0242001fa89700afa897003fa997002b
:10576000cfa99700340607005f9897000000e90072
:10577000e300b900a2002000110009000200d800d7
:10578000d09f9f000000e00002003d000000e90003
:10579000d09f9f005f9c97000840ea00f3fd070040
:1057a0001faa9700afaa97003fab9700cfab970017
:1057b0003e0607000002be000203be0084a79f0051
:1057c00095a79f00a6a79f00b7a79f006022b800db
