:020000040000fa
:04005c009c130000f1
:020000040000fa
:04007c009c130000d1
:020000040000fa
:04000c009c13000041
:020000040000fa
:0400b4009c13000099
:020000040000fa
:0400b0009c1300009d
:020000040000fa
:040140009c1300000c
:020000040000fa
:040108009c13000044
:020000040000fa
:040104009c13000048
:020000040000fa
:040144009c13000008
:020000040000fa
:040070009c130000dd
:020000040000fa
:040074009c130000d9
:020000040000fa
:040134009c13000018
:020000040000fa
:040114009c13000038
:020000040000fa
:040118009c13000034
:020000040000fa
:040038009c13000015
:020000040000fa
:040208009c13000043
:020000040000fa
:04020c009c1300003f
:020000040000fa
:040230009c1300001b
:020000040000fa
:040234009c13000017
:020000040000fa
:040238009c13000013
:020000040000fa
:040060009c130000ed
:020000040000fa
:040088009c130000c5
:020000040000fa
:0400b8009c13000095
:020000040000fa
:0400e0009c1300006d
:020000040000fa
:04011c009c13000030
:020000040000fa
:040138009c13000014
:020000040000fa
:04013c009c13000010
:020000040000fa
:040200009c1300004b
:020000040000fa
:040204009c13000047
:020000040000fa
:04001c009c13000031
:020000040000fa
:040010009c1300003d
:020000040000fa
:04021c009c1300002f
:020000040000fa
:040224009c13000027
:020000040000fa
:04022c009c1300001f
:020000040000fa
:040244009c13000007
:020000040000fa
:04024c009c130000ff
:020000040000fa
:040254009c130000f7
:020000040000fa
:04025c009c130000ef
:020000040000fa
:0400c8009c13000085
:020000040000fa
:040080009c130000cd
:020000040000fa
:040084009c130000c9
:020000040000fa
:04019c009c130000b0
:020000040000fa
:040260009c130000eb
:020000040000fa
:040028009c13000025
:020000040000fa
:040078009c130000d5
:020000040000fa
:04009c009c130000b1
:020000040000fa
:0400fc009c13000051
:020000040000fa
:040100009c1300004c
:020000040000fa
:0401b8009c13000094
:020000040000fa
:0401bc009c13000090
:020000040000fa
:0401c0009c1300008c
:020000040000fa
:0401c4009c13000088
:020000040000fa
:0401c8009c13000084
:020000040000fa
:0401cc009c13000080
:020000040000fa
:0401d0009c1300007c
:020000040000fa
:0401d4009c13000078
:020000040000fa
:0401d8009c13000074
:020000040000fa
:0401dc009c13000070
:020000040000fa
:0401e0009c1300006c
:020000040000fa
:0401e4009c13000068
:020000040000fa
:0401e8009c13000064
:020000040000fa
:0401ec009c13000060
:020000040000fa
:0401f0009c1300005c
:020000040000fa
:0401f4009c13000058
:020000040000fa
:0401f8009c13000054
:020000040000fa
:0401fc009c13000050
:020000040000fa
:04023c009c1300000f
:020000040000fa
:040124009c13000028
:020000040000fa
:040128009c13000024
:020000040000fa
:040148009c13000004
:020000040000fa
:040150009c130000fc
:020000040000fa
:040158009c130000f4
:020000040000fa
:04015c009c130000f0
:020000040000fa
:040160009c130000ec
:020000040000fa
:040164009c130000e8
:020000040000fa
:040168009c130000e4
:020000040000fa
:040178009c130000d4
:020000040000fa
:04017c009c130000d0
:020000040000fa
:040264009c130000e7
:020000040000fa
:04006c009c130000e1
:020000040000fa
:040018009c13000035
:020000040000fa
:040064009c130000e9
:020000040000fa
:040218009c13000033
:020000040000fa
:040220009c1300002b
:020000040000fa
:040228009c13000023
:020000040000fa
:040240009c1300000b
:020000040000fa
:040248009c13000003
:020000040000fa
:040250009c130000fb
:020000040000fa
:040258009c130000f3
:020000040000fa
:040030009c1300001d
:020000040000fa
:040040009c1300000d
:020000040000fa
:04008c009c130000c1
:020000040000fa
:040090009c130000bd
:020000040000fa
:0400cc009c13000081
:020000040000fa
:0400d0009c1300007d
:020000040000fa
:0400d4009c13000079
:020000040000fa
:0400d8009c13000075
:020000040000fa
:040198009c130000b4
:020000040000fa
:040008009c13000045
:020000040000fa
:0400dc009c13000071
:020000040000fa
:0401a0009c130000ac
:020000040000fa
:0401a4009c130000a8
:020000040000fa
:0401a8009c130000a4
:020000040000fa
:0401ac009c130000a0
:020000040000fa
:0401b0009c1300009c
:020000040000fa
:0401b4009c13000098
:020000040000fa
:04014c009c13000000
:020000040000fa
:04010c009c13000040
:020000040000fa
:040110009c1300003c
:020000040000fa
:040154009c130000f8
:020000040000fa
:040120009c1300002c
:020000040000fa
:040024009c13000029
:020000040000fa
:040068009c130000e5
:020000040000fa
:0400ec009c13000061
:020000040000fa
:04004c009c13000001
:020000040000fa
:0400a8009c130000a5
:020000040000fa
:0400ac009c130000a1
:020000040000fa
:040190009c130000bc
:020000040000fa
:040194009c130000b8
:020000040000fa
:040210009c1300003b
:020000040000fa
:040214009c13000037
:020000040000fa
:040020009c1300002d
:020000040000fa
:040014009c13000039
:020000040000fa
:040044009c13000009
:020000040000fa
:040048009c13000005
:020000040000fa
:040094009c130000b9
:020000040000fa
:0400e4009c13000069
:020000040000fa
:0400e8009c13000065
:020000040000fa
:0400f4009c13000059
:020000040000fa
:0400f8009c13000055
:020000040000fa
:04012c009c13000020
:020000040000fa
:040130009c1300001c
:020000040000fa
:0400a0009c130000ad
:020000040000fa
:0400a4009c130000a9
:020000040000fa
:04016c009c130000e0
:020000040000fa
:040170009c130000dc
:020000040000fa
:040174009c130000d8
:020000040000fa
:040184009c130000c8
:020000040000fa
:040180009c130000cc
:020000040000fa
:080000000002040000000000f2
:020000040000fa
:100400008fe322000eff27000e018800000000008d
:10041000000020000000e000020032000001200087
:10042000200288000c000700604f28000100200017
:100430000f000700000020000000e0000200320072
:100440000000020000000000100702000000000091
:100450000040da000000fe00603420000000e000f0
:1004600002003200002020009001880000000600f9
:10047000a1028800800078000000eb001a0037001d
:10048000e280400054a0b4009101ba00e280400034
:1004900054a0b4009102ba00e280400054a0b4001d
:1004a0000002eb00472bde00f507b200a601880032
:1004b000602ce10008003a000049eb000201e8006e
:1004c000020039003420ec0002f0a0008301e900b2
:1004d000f9ff3e00040037006128e100010032000e
:1004e0000082eb000b00070011c3ba001101ba0033
:1004f0000604e00003003a000200e000e0ff3a00da
:1005000000000600f607b200a6028800820078000c
:10051000f5ff370004d0a300e20f49001c003900aa
:10052000810278003549ba000201e8000200390072
:100530003420ec0002f0a0008301e9000f0032003b
:100540002549ba000201e800020039003420ec001d
:1005500002f0a0008301e900080032000400e0007e
:100560000600320015c9ba000201e8000200390095
:100570003420ec0002f0a0008301e9008180e80053
:1005800054a0b4000300e000e2ff3a0000000600bf
:100590009102ba00055978008301e900f7ff3200a3
:1005a000c82ade00055978008301e900f3ff320014
:1005b0000400e000f1ff320011d9ba00eeff37006d
:1005c0003600f800809fbe00829fbe00849fbe0060
:1005d000869fbe00881f78003200f8003400f800c3
:1005e00010002000a0018800002020009001880059
:1005f000000000000030ec0011e1a8000068a90034
:100600000230ec0004cea800306f81000000e00052
:1006100009003a00507181000010a000507189005b
:10062000607181000018a300030032004071810056
:100630000010a00040718900406f81000000e000c0
:1006400009003a00507181000020a000507189001b
:10065000607181000028a300030032004071810016
:100660000020a00040718900506f81000000e00070
:1006700009003a00507181000030a00050718900db
:10068000607181000038a3000300320040718100d6
:100690000030a00040718900606f81000000e00020
:1006a00009003a00507181000040a000507189009b
:1006b000607181000048a300030032004071810096
:1006c0000040a00040718900706f81000000e000d0
:1006d00009003a00507181000050a000507189005b
:1006e000607181000058a300030032004071810056
:1006f0000050a00040718900806f81000000e00080
:1007000009003a00507181000060a000507189001a
:10071000607181000068a300030032004071810015
:100720000060a00040718900906f81000000e0002f
:1007300009003a00507181000070a00050718900da
:10074000607181000078a3000300320040718100d5
:100750000070a00040718900a06f81000000e000df
:1007600009003a00507181000080a000507189009a
:10077000607181000088a300030032004071810095
:100780000080a00040718900b06f81000000e0008f
:1007900009003a00507181000090a000507189005a
:1007a000607181000098a300030032004071810055
:1007b0000090a00040718900c06f81000000e0003f
:1007c00009003a005071810000a0a000507189001a
:1007d0006071810000a8a300030032004071810015
:1007e00000a0a00040718900d06f81000000e000ef
:1007f00009003a005071810000b0a00050718900da
:100800006071810000b8a3000300320040718100d4
:1008100000b0a0004071890061de22001100e800f4
:1008200080087800e40f500002003a0001007800d0
:100830000008eb0081de22001100e800800878004b
:10084000e80f500002003a00010078000008eb00b9
:10085000a1de22001100e80080087800f40f5000ab
:1008600002003a00010078000008eb00c1de22001f
:100870001100e8008008780081022000810f5000fc
:1008800002003a00c0de22000008eb00e1de220098
:100890001100e8008008780001052000810f500059
:1008a00002003a00e0de22000008eb0001df220037
:1008b0001100e8008008780001052000810f500039
:1008c00002003a0000df22000008eb0021df2200d6
:1008d0001100e8008008780001052000810f500019
:1008e00002003a0020df22000008eb0041df220076
:1008f0001100e8008008780001052000810f5000f9
:1009000002003a0040df22000008eb0061df220015
:100910001100e8008008780001052000810f5000d8
:1009200002003a0060df22000008eb0081df2200b5
:100930001100e8008008780041062000810f500077
:1009400002003a0080df22000008eb00a1df220055
:100950001100e80080087800810c2000810f500011
:1009600002003a00a0df22000008eb000000eb00cc
:10097000fa2b07000068a9000068ab0006003200ef
:100980000230ed000030ed00407181000000a00059
:10099000407189001901370042a0a80042c0a90097
:1009a000607181000018a300030032000230ed00e6
:1009b0000030ed0011013700507181000018a300d4
:1009c00014003200607181000010a0006071890085
:1009d0001800200030088000318080008100500025
:1009e0002180880030808800507181000010a100b3
:1009f0005071890008007800d82b070050718100e1
:100a00000018a300f3ff3a00607181000010a100fc
:100a100060718900607181000028a300030032002a
:100a20000230ed000030ed00f4003700507181001d
:100a30000028a3000f003200607181000020a00098
:100a40006071890028002000507181000020a10001
:100a50005071890008007800c02b07005071810098
:100a60000028a300f8ff3a00607181000020a10077
:100a700060718900607181000038a30003003200ba
:100a80000230ed000030ed00dc00370050718100d5
:100a90000038a3000f003200607181000030a00018
:100aa0006071890038002000507181000030a10081
:100ab0005071890008007800a82b07005071810050
:100ac0000038a300f8ff3a00607181000030a100f7
:100ad00060718900607181000048a300030032004a
:100ae0000230ed000030ed00c4003700507181008d
:100af0000048a3000f003200607181000040a00098
:100b00006071890048002000507181000040a10000
:100b10005071890008007800902b07005071810007
:100b20000048a300f8ff3a00607181000040a10076
:100b300060718900607181000058a30003003200d9
:100b40000230ed000030ed00ac0037005071810044
:100b50000058a3000f003200607181000050a00017
:100b60006071890058002000507181000050a10080
:100b70005071890008007800782b070050718100bf
:100b80000058a300f8ff3a00607181000050a100f6
:100b900060718900607181000068a3000300320069
:100ba0000230ed000030ed009400370050718100fc
:100bb0000068a3000f003200607181000060a00097
:100bc0006071890068002000507181000060a10000
:100bd0005071890008007800602b07005071810077
:100be0000068a300f8ff3a00607181000060a10076
:100bf00060718900607181000078a30003003200f9
:100c00000230ed000030ed007c00370050718100b3
:100c10000078a3000f003200607181000070a00016
:100c20006071890078002000507181000070a1007f
:100c30005071890008007800482b0700507181002e
:100c40000078a300f8ff3a00607181000070a100f5
:100c500060718900607181000088a3000300320088
:100c60000230ed000030ed0064003700507181006b
:100c70000088a3000f003200607181000080a00096
:100c80006071890088002000507181000080a100ff
:100c90005071890008007800302b070050718100e6
:100ca0000088a300f8ff3a00607181000080a10075
:100cb00060718900607181000098a3000300320018
:100cc0000230ed000030ed004c0037005071810023
:100cd0000098a3000f003200607181000090a00016
:100ce0006071890098002000507181000090a1007f
:100cf0005071890008007800182b0700507181009e
:100d00000098a300f8ff3a00607181000090a100f4
:100d1000607189006071810000a8a30003003200a7
:100d20000230ed000030ed003400370050718100da
:100d300000a8a3000f0032006071810000a0a00095
:100d400060718900a80020005071810000a0a100fe
:100d50005071890008007800002b07005071810055
:100d600000a8a300f8ff3a006071810000a0a10074
:100d7000607189006071810000b8a3000300320037
:100d80000230ed000030ed001c0037005071810092
:100d900000b8a3000f0032006071810000b0a00015
:100da00060718900b80020005071810000b0a1007e
:100db0005071890008007800e82a0700507181000e
:100dc00000b8a300f8ff3a006071810000b0a100f4
:100dd0006071890042c0a80042a0a9000230ed0065
:100de0000210e20001003a0004cea9000030ed003c
:100df0000010e20001003a0011e1a9003400f900fe
:100e00003200f9004f0478004f03be004f02be00cd
:100e10004f01be004f00be003600f9000040060042
:100e20004387ab001600320043c7ab0014003a0002
:100e3000a10920000001eb0080072000337420008e
:100e40008049780081497800824978007105200046
:100e500012002000600420002374200080497800e4
:100e600081497800824978000000000000000000fd
:100e700000002700123a800082006000fdff3a0067
:100e8000300f2000303a880052002000223a8800bb
:100e9000a1092000330020008007200034742000c6
:100ea000004a7800014a7800034a78007105200062
:100eb000130020006004200024742000004a780001
:100ec000014a7800034a7800f1fb2f007170880016
:100ed00030fc2f00f070880023fc2f007372880014
:100ee0000384240073358800b3f42100833588001f
:100ef00053012000933588003305200043368800d5
:100f0000031021004334880052348800d2012000ad
:100f10006234880002102000823488000200210020
:100f2000c234880002602000f2348800017088001a
:100f300080708800670040000072880070ff2f00fa
:100f400080728800e0ff27000073880001002700fe
:100f500000002300133a800003816000800f5100dd
:100f6000fcff3a0000022000123a8000820060007c
:100f7000fdff3200972a07000042800000c0a10058
:100f800000d0a00000e0a100004288000068a90095
:100f90002068a80020572500100888000ca1ef0049
:100fa00000022000800888001057250000088800f3
:100fb0000001280020088800ffff3700809fbe0046
:100fc000829fbe00849fbe00869fbe00881f78005f
:100fd0003200f8003400f80010002000a001880062
:100fe0000020200090018800000000000648a900b1
:100ff0000030ec0011e1a800f46b81002207200012
:10100000030020008002eb0006d8220067ff2f00bb
:101010006e045300306b81008000eb00820f5000a3
:10102000838f5800d7033e0000060100720037008e
:10103000800037008a0037009100370099003700a0
:101040009e003700a4003700aa003700af00370029
:10105000b5003700ba003700c3003700c8003700ba
:10106000d1003700d6003700db003700e100370041
:10107000e7003700ed003700f2003700f9003700d5
:10108000fe003700040137000a0137000f01370066
:10109000150137001a0137002301370028013700f6
:1010a00031013700360137003b013700410137007d
:1010b000470137004d013700520137005901370011
:1010c0005e013700640137006a0137006f013700a5
:1010d000750137007a013700830137008801370036
:1010e00091013700960137009f013700a4013700b6
:1010f000ad013700b2013700bb013700c001370036
:10110000c9013700ce013700d7013700dc013700b5
:10111000e5013700ea013700f3013700f801370035
:1011200001023700060237000f02370014023700b1
:101130001d023700220237002b0237003002370031
:10114000390237003e023700470237004c023700b1
:10115000550237005a023700630237006802370031
:1011600071023700760237007f02370084023700b1
:101170008d023700920237009b023700a002370031
:10118000a9023700ae023700b5023700ba023700b5
:10119000c0023700c6023700cb023700d00237004a
:1011a000d6023700db023700e4023700e9023700dd
:1011b000f2023700f702370000033700050337005b
:1011c0000e033700130337001c03370021033700d9
:1011d0002a0337002f033700360337003b0337005d
:1011e00041033700460337004c03370051033700f3
:1011f000560337005b03370016006a0000f0a700b3
:101200000000ea000000ea004f00de000004e000f9
:10121000690332008400420081004400910078009c
:10122000316b8900e40f52005a033e000402e800cb
:1012300059033700f46b8900006ea800004ea80027
:1012400017e2a80060ff2f001822b6001622a8009f
:10125000306b81000000e800306b890051033700db
:10126000f46b890060ff2f001822b6001642a80018
:10127000306b81000000e800306b890049033700c3
:101280008021200010886300356b890016006a00f9
:1012900000f0a7000000ea000000ea004f00de00b6
:1012a0003d033700f46b89001602a800306b810003
:1012b0000000e800306b89003a033700f46b8900c6
:1012c000e00e200090108800306b81000000e800e4
:1012d000306b890033033700f46b8900600f200006
:1012e00090108800306b81000000e800306b8900ae
:1012f0002c033700f46b89001622a800306b8100a4
:101300000000e800306b890026033700f46b890089
:10131000f00e200090108800306b81000000e80083
:10132000306b89001f033700f46b89001662a80038
:10133000306b81000000e800306b89001903370032
:10134000f46b89008110800020d8220001487800c9
:1013500016a2a9001682a800306b81000000e800e8
:10136000306b89000f033700f46b89001662a80008
:10137000306b81000000e800306b89000903370002
:10138000f46b89008110800030d822000148780079
:1013900016a2a8001682a800306b81000000e800a9
:1013a000306b8900ff023700f46b89001642a800f9
:1013b000306b81000000e800306b8900f9023700d3
:1013c000f46b89001602a800306b81000000e80071
:1013d000306b8900f3023700f46b8900e00e2000c7
:1013e00090108800306b81000000e800306b8900ad
:1013f000ec023700f46b8900400f20009010880049
:10140000306b81000000e800306b8900e502370096
:10141000f46b89004003200090108800306b81003d
:101420000000e800306b8900de023700f46b8900b1
:101430001642a800306b81000000e800306b890084
:10144000d8023700456b8900356b890016006a00a9
:1014500000f0a7000000ea000000ea004f00de00f4
:10146000cd023700f46b89001602a800306b8100b2
:101470000000e800306b8900ca023700f46b890075
:10148000e00e200090108800306b81000000e80022
:10149000306b8900c3023700f46b8900600f2000b5
:1014a00090108800306b81000000e800306b8900ec
:1014b000bc023700f46b89001622a800306b810053
:1014c0000000e800306b8900b6023700f46b890039
:1014d000f00e200090108800306b81000000e800c2
:1014e000306b8900af023700f46b89001662a800e8
:1014f000306b81000000e800306b8900a9023700e2
:10150000f46b89008110800040d8220001487800e7
:1015100016a2a9001682a800306b81000000e80026
:10152000306b89009f023700f46b89001662a800b7
:10153000306b81000000e800306b890099023700b1
:10154000f46b89008110800050d822000148780097
:1015500016a2a8001682a800306b81000000e800e7
:10156000306b89008f023700f46b89001642a800a7
:10157000306b81000000e800306b89008902370081
:10158000f46b89001602a800306b81000000e800af
:10159000306b890083023700f46b8900e00e200075
:1015a00090108800306b81000000e800306b8900eb
:1015b0007c023700f46b8900400f200090108800f7
:1015c000306b81000000e800306b89007502370045
:1015d000f46b8900e002200090108800306b8100dd
:1015e0000000e800306b89006e023700f46b890060
:1015f0001642a800306b81000000e800306b8900c3
:1016000068023700556b8900356b890016006a0047
:1016100000f0a7000000ea000000ea004f00de0032
:101620005d023700f46b89001602a800306b810060
:101630000000e800306b89005a023700f46b890023
:10164000e00e200090108800306b81000000e80060
:10165000306b890053023700f46b8900a00a200028
:1016600090108800306b81000000e800306b89002a
:101670004c023700f46b89001622a800306b810001
:101680000000e800306b890046023700f46b8900e7
:10169000f00e200090108800306b81000000e80000
:1016a000306b89003f023700f46b89001662a80096
:1016b000306b81000000e800306b89003902370090
:1016c000f46b89008110800060d822000148780006
:1016d00016a2a9001682a800306b81000000e80065
:1016e000306b89002f023700f46b89001662a80066
:1016f000306b81000000e800306b89002902370060
:10170000f46b89008110800070d8220001487800b5
:1017100016a2a9001682a800306b81000000e80024
:10172000306b89001f023700f46b89001662a80035
:10173000306b81000000e800306b8900190237002f
:10174000f46b89008110800080d822000148780065
:1017500016a2a9001682a800306b81000000e800e4
:10176000306b89000f023700f46b89001662a80005
:10177000306b81000000e800306b890009023700ff
:10178000f46b89008110800090d822000148780015
:1017900016a2a9001682a800306b81000000e800a4
:1017a000306b8900ff013700f46b89001662a800d6
:1017b000306b81000000e800306b8900f9013700d0
:1017c000f46b890081108000a0d8220001487800c5
:1017d00016a2a9001682a800306b81000000e80064
:1017e000306b8900ef013700f46b89001662a800a6
:1017f000306b81000000e800306b8900e9013700a0
:10180000f46b890081108000b0d822000148780074
:1018100016a2a9001682a800306b81000000e80023
:10182000306b8900df013700f46b89001662a80075
:10183000306b81000000e800306b8900d90137006f
:10184000f46b890081108000c0d822000148780024
:1018500016a2a9001682a800306b81000000e800e3
:10186000306b8900cf013700f46b89001662a80045
:10187000306b81000000e800306b8900c90137003f
:10188000f46b890081108000d0d8220001487800d4
:1018900016a2a9001682a800306b81000000e800a3
:1018a000306b8900bf013700f46b89001662a80015
:1018b000306b81000000e800306b8900b90137000f
:1018c000f46b890081108000e0d822000148780084
:1018d00016a2a9001682a800306b81000000e80063
:1018e000306b8900af013700f46b89001662a800e5
:1018f000306b81000000e800306b8900a9013700df
:10190000f46b890081108000f0d822000148780033
:1019100016a2a9001682a800306b81000000e80022
:10192000306b89009f013700f46b89001662a800b4
:10193000306b81000000e800306b890099013700ae
:10194000f46b89008110800000d9220001487800e2
:1019500016a2a9001682a800306b81000000e800e2
:10196000306b89008f013700f46b89001662a80084
:10197000306b81000000e800306b8900890137007e
:10198000f46b89008110800010d922000148780092
:1019900016a2a9001682a800306b81000000e800a2
:1019a000306b89007f013700f46b89001662a80054
:1019b000306b81000000e800306b8900790137004e
:1019c000f46b89008110800020d922000148780042
:1019d00016a2a9001682a800306b81000000e80062
:1019e000306b89006f013700f46b89001662a80024
:1019f000306b81000000e800306b8900690137001e
:101a0000f46b89008110800030d9220001487800f1
:101a100016a2a9001682a800306b81000000e80021
:101a2000306b89005f013700f46b89001662a800f3
:101a3000306b81000000e800306b890059013700ed
:101a4000f46b89008110800040d9220001487800a1
:101a500016a2a9001682a800306b81000000e800e1
:101a6000306b89004f013700f46b89001662a800c3
:101a7000306b81000000e800306b890049013700bd
:101a8000f46b89008110800050d922000148780051
:101a900016a2a9001682a800306b81000000e800a1
:101aa000306b89003f013700f46b89001662a80093
:101ab000306b81000000e800306b8900390137008d
:101ac000f46b89008110800060d922000148780001
:101ad00016a2a9001682a800306b81000000e80061
:101ae000306b89002f013700f46b89001662a80063
:101af000306b81000000e800306b8900290137005d
:101b0000f46b89008110800070d9220001487800b0
:101b100016a2a9001682a800306b81000000e80020
:101b2000306b89001f013700f46b89001662a80032
:101b3000306b81000000e800306b8900190137002c
:101b4000f46b89008110800080d922000148780060
:101b500016a2a9001682a800306b81000000e800e0
:101b6000306b89000f013700f46b89001662a80002
:101b7000306b81000000e800306b890009013700fc
:101b8000f46b89008110800090d922000148780010
:101b900016a2a9001682a800306b81000000e800a0
:101ba000306b8900ff003700f46b89001662a800d3
:101bb000306b81000000e800306b8900f9003700cd
:101bc000f46b890081108000a0d9220001487800c0
:101bd00016a2a9001682a800306b81000000e80060
:101be000306b8900ef003700f46b89001662a800a3
:101bf000306b81000000e800306b8900e90037009d
:101c0000f46b890081108000b0d92200014878006f
:101c100016a2a8001682a800306b81000000e80020
:101c2000306b8900df003700f46b89001642a80092
:101c3000306b81000000e800306b8900d90037006c
:101c4000656b8900356b890016006a0000f0a700fb
:101c50000000ea000000ea004f00de00ce0037007e
:101c6000f46b89001602a800306b81000000e800c8
:101c7000306b8900cb003700f46b8900c003200073
:101c800090108800306b81000000e800306b890004
:101c9000c4003700f46b89003000200090108800e9
:101ca000306b81000000e800306b8900bd00370018
:101cb000f46b89001642a800306b81000000e80038
:101cc000306b8900b7003700f46b89001602a8005a
:101cd000306b81000000e800306b8900b1003700f4
:101ce000f46b8900d003200090108800306b8100d5
:101cf0000000e800306b8900aa003700f46b89000f
:101d00001662a800306b81000000e800306b89008b
:101d1000a4003700f46b890081108000c0d9220034
:101d20000148780016a2a9001682a800306b810035
:101d30000000e800306b89009a003700f46b8900de
:101d40001662a800306b81000000e800306b89004b
:101d500094003700f46b890081108000d0d92200f4
:101d60000148780016a2a9001682a800306b8100f5
:101d70000000e800306b89008a003700f46b8900ae
:101d80001662a800306b81000000e800306b89000b
:101d900084003700f46b890081108000e0d92200b4
:101da0000148780016a2a9001682a800306b8100b5
:101db0000000e800306b89007a003700f46b89007e
:101dc0001662a800306b81000000e800306b8900cb
:101dd00074003700f46b890081108000f0d9220074
:101de0000148780016a2a9001682a800306b810075
:101df0000000e800306b89006a003700f46b89004e
:101e00001662a800306b81000000e800306b89008a
:101e100064003700f46b89008110800000da220032
:101e20000148780016a2a9001682a800306b810034
:101e30000000e800306b89005a003700f46b89001d
:101e40001662a800306b81000000e800306b89004a
:101e500054003700f46b89008110800010da2200f2
:101e60000148780016a2a8001682a800306b8100f5
:101e70000000e800306b89004a003700f46b8900ed
:101e80001642a800306b81000000e800306b89002a
:101e900044003700756b8900356b890016006a00b5
:101ea00000f0a7000000ea000000ea004f00de009a
:101eb00039003700f46b89001602a800306b8100ee
:101ec0000000e800306b890036003700f46b8900b1
:101ed000c003200090108800306b81000000e800f3
:101ee000306b89002f003700f46b89001222ef005d
:101ef000306b81000000e800306b8900290037005a
:101f0000f46b89008007200090108800306b8100fe
:101f10000000e800306b890022003700f46b890074
:101f20001222ef00306b81000000e800306b890066
:101f30001c003700f46b89001222ef00306b810027
:101f40000000e800306b890016003700f46b890050
:101f50001642a800306b81000000e800306b890059
:101f600010003700856b8900356b890016006a0008
:101f700000f0a7000000ea000000ea004f00de00c9
:101f800005003700f46b89000000eb00306b89001e
:101f90000400370005027800e14f50001dfc3200bc
:101fa000f46b89000030ed000010e20004003a00fc
:101fb00011e1a90002003700f46b8900f9ff370036
:101fc0003400f9003200f9004f0478004f03be00de
:101fd0004f02be004f01be004f00be000040060091
:101fe000809fbe003200f8003400f800100020008e
:101ff000a00188000020200090018800000000005f
:102000000030ec0011e1a8004061ab000300320099
:10201000200a80004061ab00fdff3a004001ab00a8
:10202000020032004001a900040037004001a8006e
:102030003171810081005000a170890030718900e8
:102040000030ed000010e20001003a0011e1a900ab
:102050000028a9003400f9003200f9004f00be004a
:1020600000400600809fbe003200f8003400f800f7
:1020700010002000a00188000020200090018800ae
:10208000000000000030ec0011e1a8004861ab0046
:1020900003003200600a80004861ab00fdff3a0097
:1020a0004801ab00020032004801a90004003700db
:1020b0004801a8002171810081005000b1708900a1
:1020c000207189000030ed000010e20001003a00ac
:1020d00011e1a90000a8a9003400f9003200f900bc
:1020e0004f00be0000400600809fbe003200f80096
:1020f0003400f80010002000a0018800002020001b
:1021000090018800000000000030ec0011e1a80000
:102110005061ab0003003200a00a80005061ab00a8
:10212000fdff3a005001ab00020032005001a9004f
:10213000040037005001a800117181008100500097
:10214000c1708900107189000030ed000010e200bc
:1021500001003a0011e1a90004a8a9003400f90027
:102160003200f9004f00be0000400600809fbe0014
:102170003200f8003400f80010002000a0018800b0
:102180000020200090018800000000000030ec00da
:1021900011e1a8005861ab0003003200e00a8000a2
:1021a0005861ab00fdff3a005801ab00020032005d
:1021b0005801a900040037005801a80001718100ee
:1021c00081005000d1708900007189000030ed005d
:1021d0000010e20001003a0011e1a90004c8a900c2
:1021e0003400f9003200f9004f00be000040060044
:1021f000809fbe003200f8003400f800100020007c
:10220000a00188000020200090018800000000004c
:102210000030ec0011e1a8006061ab000300320067
:10222000200b80006061ab00fdff3a006001ab0055
:10223000020032006001a900040037006001a8001c
:10224000f170810081005000e1708900f070890018
:102250000030ed000010e20001003a0011e1a90099
:1022600004e8a9003400f9003200f9004f00be0074
:102270000040060000a0fe003600f800849fbe006b
:10228000869fbe00889fbe008a9fbe008c9fbe00b6
:102290003200f8003400f80014002000a401880087
:1022a0000420200094018800000000000148a900db
:1022b0000030ec0011e1a800926e81006cdd22007c
:1022c0008c85e8000b85e8008a84e8000984e80032
:1022d0008883e8000783e800b5dc220043dd2200a4
:1022e000a4dc2200406e81008000eb00e90f50006a
:1022f000e08f58009b003e000006010009003700f7
:1023000018003700230037002f0037003b0037004c
:1023100047003700530037005f003700690037007f
:10232000770037001300690000f0a7000000ea0002
:102330000000ea004f00de000004e00096003200da
:1023400082004100cddc22008180460091007800af
:10235000416e8900e10f510086003e000201e80055
:1023600085003700926e8900448ea80000e62a009e
:10237000a10020007b3e0700448ea90000b8260083
:1023800040128800406e81000000e800406e890025
:102390007c003700926e8900448ea8000064210002
:1023a000010420006f3e0700448ea9004012800007
:1023b00010b0260040128800406e81000000e80046
:1023c000406e89006f003700926e8900448ea8002d
:1023d00000e62a00a1002000623e0700448ea9000a
:1023e0004012800000a1260040128800406e81004b
:1023f0000000e800406e890062003700926e89009c
:10240000448ea80000e62a00a1002000553e0700e7
:10241000448ea900401280004090210040128800a4
:10242000406e81000000e800406e890055003700d2
:10243000926e8900448ea80000e62a00a1002000c8
:10244000483e0700448ea9004012800030a02100c1
:1024500040128800406e81000000e800406e890054
:1024600048003700926e8900448ea80000e62a00da
:10247000a10020003b3e0700448ea90040128000ce
:1024800080b0210040128800406e81000000e8000a
:10249000406e89003b003700448ea8004012800047
:1024a000004aeb000000eb00406e89001300690059
:1024b00000f0a7000000ea000000ea004f00de0084
:1024c0002d003700926e8900448ea90000a02b00d9
:1024d000401288004822ef004822ef004822ef0017
:1024e0004822ef004822ef004822ef004822ef0088
:1024f000406e81000000e800406e89002100370036
:10250000448ea8004012800040128000000e780027
:1025100040128000800d780040128000000d78008d
:1025200040128000800c780040128000000c78007f
:1025300040128000800b780040128000000b780071
:10254000804aeb000000eb00406e89001300690038
:1025500000f0a7000000ea000000ea004f00de00e3
:1025600005003700926e89000000eb00406e890084
:10257000040037000001eb00e14f500059ff32002a
:10258000926e89000030ed000010e20004003a0075
:1025900011e1a90002003700926e8900f9ff3700af
:1025a0003400f9003200f9004f06be004f05be00ae
:1025b0004f04be004f03be004f02be003600f900bc
:1025c0000080fe0000400600809fbe00829fbe008b
:1025d000849fbe00861f78003200f8003400f800a7
:1025e00010002000a0018800002020009001880039
:1025f000000000000188a9000030ec0011e1a800f3
:102600002322ab0013003a00a2648100b064810071
:10261000800f51000f00320060c92200e5f72f0043
:1026200080824200f40720000320200090804200b6
:102630009180fb00211188009000e8000488600070
:10264000161180008680610002003a00900f110090
:10265000f6ff3a000030ed000010e20001003a0001
:1026600011e1a9003400f9003200f9004f037800ad
:102670004f02be004f01be004f00be0000400600ea
:10268000809fbe00829fbe00849fbe00861f780090
:102690003200f8003400f80010002000a00188008b
:1026a0000020200090018800000000000b28a900f5
:1026b0000030ec0011e1a800b322ab0013003a0097
:1026c000c2688100d0688100800f51000f00320085
:1026d000a0d12200e5f72f0080824200f4072000fd
:1026e00003202000908042009180fb00a11588000b
:1026f0009000e800048860009615800086806100e4
:1027000002003a00900f1100f6ff3a000030ed0091
:102710000010e20001003a0011e1a9003400f900c4
:102720003200f9004f0378004f02be004f01be0097
:102730004f00be00004006000040da000000fe002e
:102740006900e100040035006d00e1000300340081
:102750000002b10001003200000005001000050079
:102760000a00fa00e20f500020003e00b071810024
:10277000e10f500006003200802320004523200096
:1027800023232000042320000000e00004003a007e
:102790008022200045222000232220000422200045
:1027a000060028001403630003003a0006087800be
:1027b00000002800140a700013a8a30001003a00ca
:1027c00013a0a00002007800050037001388a300c2
:1027d000feff32003102fb00840a78000000e900ad
:1027e0000000e000f9ff3a00080037003300200045
:1027f000b3bf9f00c0bf9f00d1bf9f00e2bf9f003b
:102800006a805700c21207006fb997000200780073
:102810000080fa0000000600001020003202b6001e
:102820000000e9004f00de0000000600811180007a
:10283000e6806000e68f50000c003a00030037008d
:102840003322ab00feff3a00a1118800b0007800ef
:102850000100e000faff3a00000006003322ab005e
:10286000feff3a008100fb00a1118800b040780013
:102870000104e000f9ff3a000000060032002000e9
:102880005e00370003f0a200889fbe008a9fbe0052
:102890008c1f7800c5020700cc0233006450e100b1
:1028a0004f0032006420e1005200320003826c00cd
:1028b00007003b000905d0000306d000820f54003a
:1028c0000c065d0002003900020032008901780028
:1028d000030678008582550004003d000003fd00da
:1028e0008103fd008502ea008b854200840f72009f
:1028f00002003b0060001000e08018006011b8008a
:102900000005eb007a28e1000a0039000600780093
:10291000c75ddd00f707b200878075002d00370026
:10292000828171000a017800610560008180d10018
:102930000080d3008502e900f9ff3b000604400057
:102940008784480002003b0060041400e0841c00ff
:102950000988a300070032008a817100828171001a
:10296000610164008904d1000884d3008b05e8006c
:10297000170037000978a30013003a000b00e000ad
:10298000130034008b05e9000804440089844c00de
:102990000a4474000978a3000d003a000b00e0001f
:1029a000070034008b05e9000804440089844c00ca
:1029b00001003a000b0020000978a300f7ff320065
:1029c0000001eb0002003700828171000a017800eb
:1029d0003b0207000cf0a70001f0a00084023700c2
:1029e0006420e10002003a00838f6c00840233000f
:1029f0000801be000200be007d023700889fbe00b5
:102a00008a9fbe008c9fbe000206780001f0a700de
:102a10000cf0a0000004be004f0207000800be003a
:102a20006420e1000700390002003a00f1ff2700ae
:102a3000f0ff2f000160a0001202200042808800f9
:102a40005100370009f0a1000800be00020020007c
:102a500003f823007c010700f4ff3c000800be00df
:102a60000200200003982300750107000800be0043
:102a7000300035000200200003f02300720107003f
:102a800005003c000800be000801be0081020700ee
:102a90000005be000e0037000c10a2000000200050
:102aa00001f823000801be0076ff070002002000a5
:102ab00003f02300770207000005be00f7030700bc
:102ac0000200200003002c00720207000004be0078
:102ad0000a00be00b2d02800130b2c006aff0700ca
:102ae0000a01be006b020700020f2500330b240011
:102af00065ff0700809fbe000a00be00520622004c
:102b000013f02b0063020700b2662100f3f62300e6
:102b10005dff07000a01be005e0207004f01be0014
:102b2000a30007000801be005a0207000801be000a
:102b300055ff07000c00a70007003700b2fd20007a
:102b400093fc23000c10a7004fff07000cf0a70018
:102b500001f0a2000c0037000cf0a70002003700c3
:102b600001f0a20004003700b2fd2000930424000d
:102b70000c10a60003003700b2fd200093fc2300d8
:102b80000c10a70040ff07004f06be004f05be0017
:102b90004f04be00000006000001eb0097ff370065
:102ba000889fbe008a9fbe008c1f7800ff0107002f
:102bb0001002200002003b00408088000302370022
:102bc0008a0062006408e10002003a004080880048
:102bd0000b0237006108e100fcff32000800be0074
:102be000030478007200070001f0a100090007004b
:102bf00008f0a600040037000001be009104240084
:102c0000b0fd20001fff070009f0a70001f0a2009f
:102c1000f7013700889fbe008a9fbe008c9fbe00d0
:102c20000004be00cc0107000800be008906780041
:102c30006420e10008003900040032000160a000b7
:102c400012022000428088005300370091fc2300cc
:102c5000b0fd20004e0037000006eb0009f0a10097
:102c600003f82300020020000800be00f400070063
:102c70000600340001f82300000020000801be0017
:102c80004b0007000004be002c0020000800be001e
:102c900093e82300320a2300e90007001200340001
:102ca0000801be00d1fd2300703d2b00f6fe070099
:102cb0000005be00b3f32300f27a26000800be0030
:102cc000f401070003f8230002002000edfe0700d6
:102cd0000801be00ecfe07000a01be003400070038
:102ce0000004be000c06e8000800be0001f0a100d0
:102cf0000200200003982300d10007000800be0056
:102d0000160035000801be00e20107000005be0004
:102d100032cd2c0043fb2300dbfe0700809fbe006a
:102d20001269280003d52b000a00be00d901070054
:102d3000620f210013ef2b00d3fe07000a01be0033
:102d4000d40107004f01be00190007000801be00b2
:102d5000d00107000801be00cbfe07000c00e00018
:102d60000b0032000c10a70001f0a200b2fd200001
:102d700093fc23006260e1000400320022a92000dd
:102d800063f023000c10a70063f82300befe0700c9
:102d90000df0a70001f0a2004f06be004f05be00d7
:102da0004f04be00000006000081eb00d002370097
:102db000889fbe008a9fbe008c1f78007b010700a1
:102dc0008201330003866c006450e1002e00320063
:102dd0006420e100330032006150e1002f00320036
:102de0006120e1003100320085855500eb07b0001d
:102df00009002000080420000500370008044400f2
:102e000089844c000a0031000603430087834b008d
:102e10000001530081815b00f8ff33000203be0014
:102e20000800a0000804440089844c00f6ff390023
:102e3000c639dd0083017300010032001300200059
:102e40008904d1000884d3000998a300050032004a
:102e50000800a7000300a0008904d1000884d30063
:102e60008b05e8008904d1000884d3000001eb0041
:102e70000281d2001201070001f0a1000cf0a700ae
:102e800001f0a0005a0137006420e1005c0132002b
:102e90000801be000200be00f7ff37006120e1001c
:102ea000570132006000b800f3ff37000000200037
:102eb00001f82700f0ff3700889fbe008a9fbe0000
:102ec0008c9fbe000004be00230107000800be0066
:102ed0006420e10048003e005500320072212700c6
:102ee000132b24005800070047003c000800be00d8
:102ef000c2ec2800e32c2c005100070047003500ed
:102f00000800be0001f0a1000200200003382300e9
:102f10004b000700430035000800be00b2a32a00a2
:102f200083fb23005b0107000200200003f0230065
:102f300001f0a70003f0a00053fe070044000700c3
:102f40000005be007e00070001f0a2000006be00e2
:102f50000200280013f323004e0107000801be0001
:102f600049fe0700809fbe000c00be00320828000a
:102f7000e3952b00470107004f01be0042fe07000a
:102f80000006be000001be0042010700809fbe0097
:102f90004241250083b823003e01070002002000c3
:102fa00003e8230038fe07000c01be0039010700ca
:102fb0000006be004f00be00f2f92b00c3d4230070
:102fc000340107000200200003f023002efe07005a
:102fd0000c01be002bfe07000001be000c00be006d
:102fe00073ff07000200200003f0230026fe070005
:102ff00061014500050107004f06be004f05be00f8
:103000004f04be000000060001f827000000200069
:103010002202200042808800f7ff37006000b800dd
:10302000fbff370001f8230000002000f2ff37000b
:1030300009f8a300f0ff32006000b800eeff37008f
:1030400014002000d9033700f4ff2f00d703370006
:103050000001be00c00007000470a70003f0a1003b
:103060006509b100160032000d0035006828e10046
:1030700006003500f0ff2f00f1ff27000300e000fd
:1030800013003b0001002800000005000000400084
:10309000818048008502e900fcff3a000800370003
:1030a000f88f420002003c008000eb0000000500a9
:1030b0008100d1000080d3008502e800fcff3a00c7
:1030c0000300e00002003b0060001000e0801800f8
:1030d000000006000001be009f0007000470a7006a
:1030e00003f0a10003f8a30013003a006509b10042
:1030f00010003200090035006928e10002003500a7
:103100000100280000000500000040008180480008
:103110008502e900fcff3a0000000600f88f42003b
:10312000050035008100d1000080d3008502e80051
:10313000fcff3a00000006008000eb0000000500e4
:103140004f89de0082017800b30337006011b800b8
:10315000c10337000001eb006d03070004003200db
:103160000200200003f8230001f0a700c5fd0700be
:10317000000006000400200000003700889fbe0009
:103180008a9fbe008c1f78004f26dd008700070055
:103190008e0033006120e100430032006250e10004
:1031a00041003e003e0039006420e1003c00320056
:1031b000058255000f003b000402e80038003a0089
:1031c000800f5300818f5b00350034000800be0083
:1031d00003f0a10001f0a60003f0a0000cf0a7008e
:1031e000a9fd0700820037000603430087834b00d8
:1031f0000c4646000005530081855b000200330049
:103200000a03be000c00a0000402e900f6ff3b0028
:10321000850578000602430087824b0004003a00cf
:103220006000b80009f0a70001f0a00070003700ae
:103230000002520081825a000704e00004003300bb
:103240000603430087834b008b05e900faff370034
:10325000090578000604be000203be006011b80034
:1032600017000700e00f5200e08f5a0007003500fa
:1032700002003c000c08a300040032000601be005e
:1032800003f0a0000cf0a7007ffd07000a8568008e
:1032900001f0a1000af0a70001f0a00054003700df
:1032a0000800be0052003700100220000cf0a600fb
:1032b0004080880052003700040020003b033700a4
:1032c00081002000618055000b003d000b002000b4
:1032d00061fe2f000100e1001d00340082817100b9
:1032e000610164008904d1000884d3000000e80073
:1032f000faff3a00710020006100640003007000d2
:10330000020060000900320061044400e0844c00c7
:103310000988a500050032008b05e8006808e10077
:1033200002003a008904d1000884d300f20f200083
:103330000258e10005003d00c75ddd00f907b2005d
:103340008980750008007800000006000bf827004f
:103350008b00780000000500c70ade00f107b2000c
:10336000f50fb20008003200e1cf42000200320047
:103370000170a00024000500810f700001003200e0
:103380000408050044000500810f700002003a00a7
:10339000140005008502e9000000400081c04800db
:1033a000fcff3b000170a000240005000004be00eb
:1033b000e9ff07000003be000405be000200be00d6
:1033c000e5ff0700844f7500000006000200be0004
:1033d0006450e100050036006420e1000200360080
:1033e0000968a30001003a000800be000160a000c7
:1033f0004f0678004f05be004f04be0000000600d7
:10340000f0ff2f00f1ff2700f9ff37000003be0097
:10341000d1ff07006220e100020032000600be007a
:103420000000060085024100e30f20000328e100b0
:1034300005003c00a3fe2f000328e10007003d002b
:103440000500200001003700f50f200020022000b9
:10345000408088006000b80008003700130020009a
:103460008381520005003d008100d1000080d3001f
:103470008301e800fcff3a0005002000c72add00b8
:10348000f107b2008580700007f0a70001f0a000ee
:1034900000000600889fbe008a9fbe008c1f780037
:1034a000c2ff0700c9ff330003866c006450e100cf
:1034b000240032006420e100270032006150e10066
:1034c000220032006120e100210032008b854200a1
:1034d000eb07b1000134b800003ab800080442001c
:1034e00089844a00013ab8000030b8008880400062
:1034f00009014a00040033000000400081804800b8
:10350000020149008b05e900c909dd008301700053
:103510000100320013002000c814de004814dd0052
:103520004709de001200b200c808de0008847000ff
:1035300063ff070001f0a1000cf0a70001f0a0005c
:10354000abff37006120e100adff32000801be0093
:103550000200be00f7ff37006150e100fcff3a00b7
:10356000a7ff37000c00fa00889fbe008a9fbe00ac
:103570008c9fbe008dff07000206be008405780008
:103580000200be00020020006102070005003a00b0
:103590008b02b300120020005d02070001003a0018
:1035a000f8856d000c01be00c60007000800be00d3
:1035b0009b0032000b08a3009e003a000df0a7000c
:1035c0000be0a00009f0a7000bf0a00009f0a1009b
:1035d0000801be00bb0007000bf0a60095003200fa
:1035e00001003c000bd0a0008acf7500b200330070
:1035f0006000b8006250e10099003900a1003e006f
:103600000b28a300a2003a000bf8a300060032002a
:103610000b58a300a70032000801be00a900070054
:103620000800be00940032000800be00eb01070055
:103630000004be00050578000bf0a7000b30a600c3
:103640000bf0a1005b079800324f200053f32300da
:103650007bfe070005003d000800be0012002000b0
:103660006aff07000004be000a05e9004a07980047
:103670006150b900b2fe0700008fbe000c01be0011
:1036800084ff070072fe0700300798000100e00089
:1036900002003d0060001000e0801800f2ff2700eb
:1036a000820f5000e08f580064003e000c00be0006
:1036b00067fe070020079800f2072000820f5000e5
:1036c000e08f580005003c0012f82f00f3ff2f0098
:1036d000820f5000838f580009003d000a00e0006f
:1036e0000300320001003c000201ea0002057800fc
:1036f0006000b800200798003a07980019003700ca
:103700003e0090006100b9008dfe0700809fbe0062
:103710000c00be004109dd004811de007208b10056
:10372000fb0107000005be001e01be0059ff070097
:103730004f01be0053fc0700809fbe000c00be007e
:103740000a01be004ffc07001e01be0051ff07002a
:103750004f01be004cfc07008221270013f3230019
:103760004cff07000005be002e0090006100b9006c
:1037700073fe070001f0a2000c01be0042fc07002e
:103780000006be000800be00620207000c01be0079
:1037900040ff07000a01be003bfc0700809fbe00ff
:1037a0004a0007002e0590000af0a7000a05ea006b
:1037b000050037000800be000801be0035ff070005
:1037c0000004be000c00be000801be000a00a700f5
:1037d00030ff07000006be000a05d100f5ff3a00e1
:1037e0005e01900002e0a600030037000001be0069
:1037f000360007006efd07000004be004f00be004b
:10380000adfd07000801be0022ff07003e01900049
:10381000fefe0700de0590000bf0a70001f0a200fd
:103820004f06be004f05be004f04be000080fa00e8
:103830000000060025000700f9ff370027000700f9
:103840006000b8000bd0a7000bc0a0000be0a700e1
:103850000bc0a2000bc0a70001f82700f0ff370043
:103860000df8a300020032001e0007001900070037
:103870000bf8a300eaff32000b30a70001f0a20012
:10388000e7ff37000df8a300f9ff3a00f7ff370014
:103890000801be000b000700e6ff320001003c00fb
:1038a0000df0a2006000b8000df0a70009000700ad
:1038b000dbff37000b000700f1ff2700f0ff2f00b0
:1038c000d7ff370001000700ddfd370001f82300b6
:1038d0000000050001f8270000000500200220007c
:1038e0000100370010022000408088000000060020
:1038f000889fbe008a9fbe008c9fbe008205780014
:103900000004be0094fe07000800be006420e10031
:103910000700390002003a00f1ff2700f0ff2f00f6
:103920000160a0001202200042808800550037008c
:103930006120e10003003a000b00a70001f823001a
:103940005000370001f0a100020021009364240020
:10395000bbfd07000800be0004003500b2fd2000da
:10396000930c240003fe07000004be000005eb00da
:103970000b00a6004f0dde0001f0a1000004be0008
:1039800032982f0023ea2300c2fe07000001eb005b
:1039900003f023000b00a70003f82300bafb070085
:1039a000abfd07000000a7000a00a200e4fd07002d
:1039b0000b00e000030032000200200003f02300af
:1039c000b0fb070001f0a2000006be0002002000cc
:1039d00093042400affe07000801be00aafb070005
:1039e000809fbe000c00be0022a22a00d3a72300a5
:1039f000a8fe07004f01be00a3fb07000004be00a5
:103a000001f0a10002002000039823008cfd0700b4
:103a10000800be00190035000001be009dfe070031
:103a20000006be00b2c52900e362230099fe07002c
:103a300022222b00f3942b0093fb07000c01be0005
:103a400094fe0700e273280083c023008efb07006a
:103a50000c01be008ffe070042aa2a00a3e22b0041
:103a600089fb07000c01be008afe07000801be00aa
:103a700088fe07000801be0083fb07000a00a700bc
:103a800001f0a2004f06be004f05be004f04be006d
:103a9000000006000001eb0095ff3700889fbe0084
:103aa0008a9fbe008c1f78000004be002afe07001b
:103ab0000478a30026003a006120e10025003200ce
:103ac00009f8a30025003a006420e100210032003b
:103ad000f507b1000508a300020032000000400015
:103ae000818048006044b8000310200002002000dc
:103af00000004000818048000805440089854c0092
:103b00000a0541008b8549000a0550008b85580045
:103b1000030033000a00be000204740083847400b2
:103b20008301d1000281d300830f7100f0ff3a00be
:103b30008904d1000884d300600149008201780023
:103b4000c1adde00fb07b000ddfd070028fe370039
:103b50000960a0000800be0025fe37001202200008
:103b600042808800f0ff2f00f1ff270020fe370081
:103b7000889fbe008a9fbe000004be00f6fd0700bd
:103b80000800be006420e1000700390002003a008e
:103b9000f1ff2700f0ff2f000160a00012022000bb
:103ba000428088004c00370001f0a1000280200014
:103bb000935c240022fd07000800be0004003500cd
:103bc000b2fd2000930424006afd07000004be003b
:103bd00032982f0023f223002efe0700020020005f
:103be00003f0230001f0a70003f0a00026fb07006c
:103bf00017fd0700801f780051fd070001f0a200ab
:103c00000005be000200200093fc230021fe0700f7
:103c10000801be001cfb0700809fbe000a00be001a
:103c200022a22a00d39f23001afe07004f01be00e4
:103c300015fb07000004be0001f0a10002002000f7
:103c40000398230000fd070003003d000000200052
:103c500001f82300180037000800be000001be0074
:103c60000cfe07000005be00823b230043dc2b0056
:103c700008fe07000801be0006fe07000801be009e
:103c800001fb07000004be000a00be0052372300fb
:103c9000f3c12300fffd0700f27a2b00b3ed2b00e8
:103ca000f9fa07000a01be00fafd07000200200031
:103cb00003f82300f4fa07004f00a60003003700c2
:103cc0000801be0003f0a200020037000001be00a0
:103cd0000800be0036fc07004f05be004f04be00c2
:103ce000000006001400fa00889fbe008a9fbe00f4
:103cf0008c9fbe000005be000206be0068004700a3
:103d00000c90be000a90be00410007006400e10074
:103d10001a00320016003e006100e1001a00320075
:103d20006e049000fe0490000e0b90009e0b90001d
:103d30006011b8009e0590000b38b100d50120003d
:103d400082817100610164008703d1000683d30082
:103d50008984d3000884d3008502e900f8ff3a0083
:103d600057fd07000df0a70001f0a0006300370029
:103d7000f1ff2700f0ff2f006000370001f8270057
:103d800000002000f7ff37006000b800f5ff3700a3
:103d90006022b800060220000000d0008180d2001e
:103da0000482d2008582d2000000a00002025200ec
:103db00083825a00030031000202420083824a00db
:103dc0000000a1000603e900f3ff3a00000006002e
:103dd000efff07000400be00000006000003be0065
:103de0005dfd07006220e100020032000600be0017
:103df00005000500e507b100f107b20004f023005b
:103e00008480700007f0a70001f0a00024000500e6
:103e1000800078005002be005003be004439de002e
:103e2000f700b200f37f20000301610009003200b7
:103e30000218e10016003a00850172008301730048
:103e4000838173000008200015003a004000200024
:103e500013003700850172008301730083817300b2
:103e600005003a0004a8be0006a8be00100020000d
:103e70000b0037000201e9000402420085824a007b
:103e800006034b0087834b000748a300f9ff32006d
:103e90000740a00004a8be0006a8be002000200025
:103ea0008000980092009800000006006804470017
:103eb0000294be000094be00fc0447008694be003d
:103ec0008494be0009007800d1ff07000800780044
:103ed000cfff070099007800814f70000b003b0076
:103ee0000800be00e20007004f00b10003003700e9
:103ef000f3ff2700f2ff2f006110b9004f06be004c
:103f00004f05be004f04be000080fa00000006000e
:103f1000889fbe008a9fbe000003be000efd070002
:103f20008505780082815200020020006220e100b5
:103f300004003a00f307b100040035007718e100ef
:103f4000040035000600be00140037006000b80011
:103f50000f003700f50f2000faff2f008502d10077
:103f60000a85d3008301e900fcff3b0081846200e5
:103f700000046500890f7400f2ff32008582ea00b8
:103f80000a85ea008184620000046500ccfc070019
:103f900007f0a70001f0a0000081eb000200e000a4
:103fa0004f05be004f04be0000000600889fbe0003
:103fb0008a9fbe00841f7800fcfc07004f00780039
:103fc00011003300f0ff2f00838f6c0006003b00d0
:103fd000040565000a00a7000800370009f0a600e4
:103fe0001000200008003700820f5400838f5c000f
:103ff000030039001000200001003e0000002000f6
:1040000009f0a7000000ea004f05be004f04be0003
:104010000000e00000000600881f7800030478001c
:104020000300e00007003d0060001000e080180081
:1040300060011900e081190002003b0001f02d0031
:10404000030037000400070008f0a70001f0a000fb
:104050004f04780000000600889fbe008a9fbe00c3
:104060000082700004027100048271002600320098
:104070000004be000200be006011b8006b09200001
:10408000950220000182cf000a0039000541b100ed
:104090000082cf00070039000541b1000982cf003e
:1040a000040039000541b1000882cf000100390049
:1040b0000541b10005425200120032000a003b00e7
:1040c00082817100610164008100d1000080d30011
:1040d0008984d3000884d3008b05e8000442e800fb
:1040e000f7ff3a00070037000804440089844c00b9
:1040f00000004800818048008b05e9000442e90087
:10410000f9ff3a006efc07004f05be004f04be00e9
:1041100000000600889fbe008a9fbe008c9fbe00e4
:104120002eff0700850478000005be006420e10032
:1041300049003e006220e100030032000900350022
:104140000bf8a300440032000bf8a3000800320073
:104150001002200040808800f0ff2f00f1ff2700b0
:104160003d00370001f82f00000020003a00370022
:104170003d000700c3f907000006be000a00be00ac
:10418000324f200053f32300affb0700060034003a
:104190000c00be0034000700baf907000006be009c
:1041a0000a00be00020037008904e9000c00be00ce
:1041b0002d000700b7fc07002b000700b2f907002d
:1041c0000001be000c00be00f9fa07000005be00a9
:1041d0000001be00affc07000006be00a2f32300f2
:1041e000430d2c00a8f90700809fbe000c00be0004
:1041f000d2e32700d3f02b00a6fc07004f01be003e
:10420000ebfa07000006be000a01be00a1fc070091
:104210000a01be009cf907000006be006148b90013
:10422000c7fb07000005be0032082800e3952b00fd
:1042300098fc07000c01be0093f907000006be00c1
:104240000a00be000200280013f3230091fc0700bf
:104250000c01be008cf907004f06be004f05be00e2
:104260004f04be000000060003f02300020005001a
:10427000e48240001078a30007003200640240008e
:104280001178a3003400be001401be000400320007
:104290000330a700000006003500be001501be0077
:1042a0000330a00000000600889fbe008a9fbe0069
:1042b0008c9fbe008e1f7800010678000c00e00085
:1042c00001003200000e78008004780009057800b3
:1042d0008a047800b905fb000b00780018f9070084
:1042e0000000e000f9ff3a00d0022000808f550066
:1042f00003003a000905780018c0b3000500370034
:104300000044eb00b0022000808f550001003a000d
:10431000090578006000b8008004eb000007eb009e
:10432000010037000a05e8000a0178000848a300e8
:1043300005003a00e3c2b3009acf110002003a0030
:104340000844a000f7ff37009a4578008b01fb0076
:104350000303b100e98f510016003e000814a000cd
:104360000801fb00e98f54000e0032000248a30050
:10437000010032000e07e9008904e800a2002000d5
:10438000030020002d0e070002cdb30002c145003e
:104390000281fb008001eb000000410081804900a8
:1043a000e0ff37000248a300deff3a000e07e800f6
:1043b000dcff370053c6b30083cf55000400320042
:1043c0008004eb0053c4b30083cf55002d003a00a6
:1043d0005a417800d3c2b300834f510002003a0023
:1043e0000834a00003003700b3c2b300834f51006c
:1043f00001003a000a05e8000a0178000205780089
:104400003a42780003c3b300834f5200faff3200f0
:104410008402fb000503b1008004eb00e98f520029
:1044200015003e00834452008984fb000a01780095
:10443000124278008402fb000503b100e98f5200ac
:104440000d003e00ea4bb900834452008984fb0012
:1044500086844400524278008402fb000503b100c8
:10446000e98f520004003e00ea4bb900834152003c
:104470008381fb00830443000838a300010032005d
:104480008904ea000c00e000030032000818a300d1
:1044900001003200020e780029fb07000005be0073
:1044a0000006be006011b800e5fa070000017800c0
:1044b0006000b8000200e000580032008e84440022
:1044c00032f82f00828f540003003d0022022000aa
:1044d000428088005100370000082000808f54007f
:1044e0000700340020022000408088000808a30054
:1044f000450032000000200001f82f00470037007f
:104500000900e0001b003d008904ea0006003700b6
:10451000922f2000530125000a00be0024fa070054
:104520000005be00ea845400e98f5400f8ff3c0007
:104530000600370002002000031224000a00be001b
:104540001bfa07000005be008904e9000900e0002d
:10455000f8ff3a000a06be0002002000030820000f
:104560000a00be00b6fa07000000e00021003d008e
:104570001b0037000900e00007003a001d0037006b
:10458000922f2000530125000a00be00c1fb070046
:104590000005be00ea845400e9cf5400f8ff3e0055
:1045a0000600370002002000031224000a00be00ab
:1045b000b8fb07000005be008904e9000900e0001f
:1045c000f8ff3a000a06be00f2ff2f00f3f72700bb
:1045d0000a00be009cfa07000000e000050034005d
:1045e0000808a3000b00320000002000010828008a
:1045f0000a0037000808a300010032000df0a200f5
:104600000c00be00050037000000200001f8270064
:104610000200370000002000010820004f0778004a
:104620004f06be004f05be004f04be00000006004e
:104630001dff37008000eb001bff37008000780073
:10464000010078003041780003c2b300834f51006d
:10465000faff3200e94f5100f8ff3200edc141008e
:10466000834f510003003a008000780013c0b3006c
:10467000050037008041eb00b4c2b300844f510005
:1046800001003a00800078000000eb0002003700d3
:10469000ea00b900000041003101fb000203b10053
:1046a000e90f5100faff36000304e0000100320078
:1046b0000000ea00000006008001780002003700d8
:1046c000b15978000201e9000200e000fcff3a0065
:1046d000000006000001780002007800b041780078
:1046e00081cf5100030032000304e000f9ff3a00db
:1046f0000001eb0002007800000006008000780056
:104700003104e000feff3a000080ea000080400033
:10471000000006000c00fa00889fbe00000478002c
:10472000f0ff2700d0bf9f008004eb0099bf9f00df
:1047300088bf9f00a8bf9f00200c2000b0bf9f0033
:1047400070805700cf0007000fb897000948780025
:104750008fb89700088050004f04be000080fa0018
:10476000000006000800fa00889fbe008a9fbe0075
:104770000084fb00d1c6b300814f500034003600e6
:104780004b062000110009000b84d8008105780039
:10479000720040004300dd00297e220000804400ba
:1047a0006022b8000600200007fe23005001be0072
:1047b0004000be00aa0c07000002be000203be00bb
:1047c00084bf9f0095bf9f00a6bf9f00b7bf9f00fb
:1047d000aa002000110009008a85d8008005780011
:1047e000e9854500c35ddd008b8544003b02be00ca
:1047f0002b03be000fb897009fb897002fb9970002
:10480000bfb99700960c07000002be000203be006d
:1048100084bf9f0095bf9f00a6bf9f00b7bf9f00aa
:10482000110009000a84d800010478004344dd0027
:10483000888444003902be002903be000fb89700e7
:104840009fb897002fb99700bfb997001d00370098
:10485000ea4f500013003600aa00200011000900a2
:104860000a84d80001057800690440004344dd0053
:10487000297e2200088444006022b800060020003f
:1048800007fe23003800be002801be00740c07009c
:104890004355dd008a8444003902be002903be006e
:1048a000080037004344dd00207e22000804400059
:1048b0006022b8000600200007fe23003800be007a
:1048c0002801be00660c07004f05be004f04be0065
:1048d0000080fa00000006000800fa00889fbe0071
:1048e0008a9fbe00d1c6b3000004e00023003d0053
:1048f0000040ea000004fb00814f50000a00340031
:1049000042062000110009000204d800a90020007e
:10491000110009008900d800e9004000c308dd004b
:104920002a7e220021003700ea4f50001000340098
:10493000a2002000110009000204d8000101780043
:10494000690040004300dd00217e2200008040001d
:104950004311dd00828040003102be002103be0011
:104960005001be004000be003d0c0700380037007b
:104970004344dd00207e2200320037000004fb00ab
:10498000814f50002300340042062000110009002e
:104990000204d800a9002000110009008900d800f5
:1049a000e9004000c308dd002a73220081004500b1
:1049b0003102be002103be008b0920008a8545001c
:1049c0003b00be002b01be00250c07000002be000c
:1049d0000203be0084bf9f0095bf9f00a6bf9f003b
:1049e000b7bf9f00110009000904d8000104780036
:1049f0004344dd00080545003a02be002a03be001c
:104a00000fb897009fb897002fb99700bfb99700cc
:104a1000d5ff3700ea4f500008003400a200200004
:104a2000110009000204d80001017800690040006b
:104a30004300dd0021732200c4ff37004344dd0042
:104a400020732200080440003800be002801be0088
:104a50004f05be004f04be000080fa0000000600b3
:104a6000d0019000028151004240a90003003400af
:104a700010017800014978000208e8000100780080
:104a800000000600af03b000889fbe008a9fbe00f2
:104a90008c9fbe008e1f78000006780081a79f00c3
:104aa00092af9f006000b8006011b80090a79f000f
:104ab000a1a79f00b2a79f00c3a79f008006eb009d
:104ac000850937008fa097008100e80081a79f002b
:104ad00051c2b300814f500003003a000fa197006c
:104ae0000007eb0011003700bc0090000000fb0045
:104af0000168a300070032000d01780080007800f3
:104b00000c007800d6ff07000000e00005003a0026
:104b1000710937008c0078007b090700e10f400025
:104b20006d0932008d06e8006b093700020078003d
:104b3000b2407800b3c2b30083cf500013003200fc
:104b400007003c00ebc1510083cf50000d00320044
:104b5000e3c1410083cf500012003a000d0037003e
:104b6000d3c2b30083cf500004003200e3c1410040
:104b700083cf50000b003a00080037000e30a00031
:104b8000eaff37000e00a000e8ff37000e10a0007b
:104b9000e6ff37000eb0a000e4ff37000e20a000b3
:104ba000e2ff37000e18a300010032000e00a10042
:104bb0000e38a300010032000e20a1000101fb000d
:104bc0000203b100e90f51000e003e0080007800a2
:104bd0000001eb00f2af9f00ea11b9003100fb00c9
:104be0000003b10002014000010078009101fb00c8
:104bf0000303b100e98f5100f7ff3600f2af9f00c9
:104c00000a0037008001eb00f3af9f00a2c2b3009f
:104c100082cf500005003a001faa9700c402780016
:104c200094af9f00f5af9f000000e800e1c2b30021
:104c300090cf100017003a000ee0a000e4c0500032
:104c4000d0cf100003003200800078008001eb001c
:104c5000090037009fab97004704780097af9f008b
:104c6000e8af9f000000e800800078000d003700ea
:104c7000ea18b90080014100010078003101fb0011
:104c80000203b100e90f5100f9ff3600e3af9f00c6
:104c9000f5ff37000ec0a0008004eb00e9af9f00d5
:104ca000f1ff37003140780081a79f0072c6b30042
:104cb000824f50003200320017003c0031c6b30072
:104cc000814f5000c20032000e003c00fcc050007a
:104cd000814f50003d00320006003c000004e0001f
:104ce0000209320081c0e900814f5000d6003a002d
:104cf0003200370081c5b300814f5000d2003a0026
:104d00003900370051c6b300814f50001e003200f9
:104d100027003c001e00370002c7b300824f50003e
:104d2000310032000a003c0064415100824f5000c3
:104d300019003200f1c6b300814f50002700320045
:104d4000e6c05000814f5000bf003a00100037000d
:104d500051c7b300814f5000c2003200e3c0400091
:104d6000814f500004003200e5c05000814f5000d8
:104d7000b5003a0020003700a07f9f001c003700dc
:104d8000a07f9f0013003700a07f9f000d00370019
:104d9000a07f9f00b5003700000120000e48a3004f
:104da00001003200000028000e077000bdff370030
:104db000a07f9f000ea0a000ac003700a07f9f0046
:104dc0000e50a0000e80a000a8003700a07f9f001a
:104dd0000e50a0000e90a000a4003700a07f9f00fe
:104de0000e60a000a1003700a07f9f000e50a00021
:104df0000e70a0009d003700a07f9f009fad970020
:104e00004b0078009baf9f0080b79f000000e00040
:104e100002003a00029f220082b79f000fb1970064
:104e20000000eb00010037000000e80080004100b6
:104e30001104e000fcff3a0090b79f00efa9970033
:104e40000300e000050032001fb29700848f51007c
:104e5000020031008302780095b79f001fb09700d1
:104e60000004eb007fab9700800f53000100360079
:104e700000045300680767002d003a001100370056
:104e80003c0090000068a300070032000d0178008c
:104e9000010220000c007800f1fe07000000e00095
:104ea00006003a00060037008c007800000220005f
:104eb00095080700e10f4000010032008d06e80070
:104ec0000804e9000800e000edff3a000084eb0070
:104ed0008e037800e7af9f00170037003c0090007a
:104ee0000068a3000900320008007800b000fb0051
:104ef000000478000d0178000c007800d8fe07004f
:104f00000000e00008003a00100037008800780038
:104f10003100fb00010478008c0078007a0807005b
:104f2000e10f4000090032008d06e800070037005d
:104f30008e047800e9af9f00080778000fb497004f
:104f40009fb497002fb59700bfb597000900780070
:104f50008004e9000000e000e0ff3a0088b79f000d
:104f600099b79f00aab79f00bbb79f000e047800b7
:104f70006faf97000e00e0005708320011003700b5
:104f80003c0090000068a300070032000d0178008b
:104f9000010220000c007800b1fe07000000e000d4
:104fa00006003a00060037008c007800000220005e
:104fb00055080700e10f4000010032008d06e800af
:104fc0000804e9000800e000edff3a00420837005d
:104fd0009fa897004104780091af9f00cfc4de00e6
:104fe000614db9000802be000a03be004822de007f
:104ff0004829dd0004027100a47f9f000e48a30031
:10500000090032000404e00007003200e14f4200d2
:1050100005003200b47f9f00c87f9f00230020005e
:1050200093b79f0003003700b87f9f001400200053
:1050300094b79f00a5fb2f008f8242008502e800f5
:1050400085b79f007dff3700a07f9f00a6fb2f0044
:105050000683470086b79f001700200097b79f0080
:1050600076ff3700a07f9f000e0cb3000070200079
:1050700000006700990532000ec8a300020032004c
:1050800068002000e8af9f000e48a3000500320032
:105090001fa897004005be004004be0090af9f00cf
:1050a000060037001fa997004200be0092af9f0084
:1050b000ab0907000004be000205be006022b80074
:1050c0006033b8000800be000a01be000f090700e7
:1050d0000000e00002003d000bf0a2003e00b30023
:1050e0000000eb00f09f9f006022b8006033b80022
:1050f0000800be000a01be00680907000000e000c9
:1051000033003200e4fb2f000f0242000800be0013
:105110000a01be00350a07007f9897000000e900e9
:10512000e300b900a2002000110009000200d8002d
:10513000f09f9f000000e00002003d000000e90039
:10514000f09f9f00ff99970083b79f000340ea00fc
:10515000e1fd07000802be000a03be00400a070086
:105160000002be000203be0094a79f00a5a79f00f7
:10517000b6a79f00c7a79f006022b80006002000c6
:1051800007ff2300e10807000000e00003003d00e6
:105190008fb297000500e9000c0037006022b800cc
:1051a00006002000470224001fa09700afa0970030
:1051b0003fa19700cfa19700d90807000000e000a9
:1051c000030035000fb397000600e800f09f9f0032
:1051d000ff9b970087b79f000e88a30008003a0046
:1051e0000e98a3001803320007007800e40f400077
:1051f00003003500efa89700810f50009d02350095
:105200006fa997000200e000040032000e98a3008e
:10521000020032000201e900e2af9f00efa997000f
:10522000f28f51000300360020c1b300a07f9f0021
:10523000020037004fda9700a47f9f006022b80079
:105240006033b8000800be000a01be001309070061
:105250000000e00066003200af7a9700c5d79f00db
:105260000fe39700054053009bfd07000002be00be
:105270000203be000800be000a01be00ad08070020
:105280000004be000205be0085090700d50907001d
:105290000002be000203be000800be000a01be00fc
:1052a000640a07006022b8000600200007fe230001
:1052b0009b0807000000e000080035006022b800ed
:1052c0000600200007fe23000800be000a01be0001
:1052d000110807000004be000205be000800be0061
:1052e0000a01be006e0907000002be006033b8006c
:1052f000d4a79f00e5a79f00f6a79f0087af9f0058
:10530000cfd297008502fb0085bf9f000500e80013
:105310004300dd00869f2200000243003400be00ef
:105320002401be00a0af9f00b1af9f00c2af9f009d
:10533000d3af9f005fa29700efa297007fa39700d3
:105340008fab97000020e10001a8e10002b0e1006e
:1053500003b8e1000c0039000400200005002a0019
:105360009699290097fb23000800be000a01be00a1
:10537000bb0907000004be000205be008fb2970003
:105380000500e800190037000fbb97004332dd002d
:10539000879f2200048243003400be002401be0027
:1053a0005fa29700efa297007fa397008fab9700b3
:1053b0000020e10001a8e10002b0e10003b8e10033
:1053c0000b0031006022b8000600200047022400d4
:1053d0000800be000a01be00a10907000004be00cb
:1053e0000205be008fb297000500e900f09f9f0004
:1053f00001a020008100670000202000808f500065
:105400003d003a006fab9700f40f530002003400e8
:1054100047012000e7af9f000800be000a01be0060
:105420001f0907006011b8000802be000a03be0091
:1054300084b79f0095b79f00a6b79f00b7b79f009e
:1054400009003700efaa97008502e900e5af9f0049
:10545000a4002000050020006033b8000800be0052
:105460000a01be00940a07000205be000004be0047
:10547000e00f5000e08f5800e00f5900e08f590016
:1054800009003200a4002000050020006033b800ad
:10549000900a0700e00f5000e08f5800e00f59001d
:1054a000e08f5900e7ff32000fb497009fb49700d8
:1054b0002fb59700bfb597002f7897008000fb00ad
:1054c0006fab9700810f53000b003d00064050006a
:1054d00001fd07000002be000203be000800be007e
:1054e0000a01be00130807000004be000205be004a
:1054f000cfdb9700a77f9f00ffa897006580500033
:105500006fa9970002005000f0af9f000200e0007a
:1055100002003a000eb8a30003003200ffa9970072
:105520008301e900f3af9f006300670003003200ce
:105530007faa97000402e900f4af9f000e28a300a1
:105540004f0032003c009000610167000e18a3007c
:105550000e0032000068a30006003200b1022000f5
:105560000200e000010032008180e8000d017800b7
:105570000c003700b00220000200e0000100320001
:105580000080e8008c0078000d0037000200e00089
:10559000320032000068a300070032000d017800dd
:1055a000010220000c0078002dfd07000000e00043
:1055b00006003a00290037008c0078000002200025
:1055c000d1060700e10f4000240032008d06e800fc
:1055d000220037003c0090000068a3000f0032005a
:1055e0000d017800010320000c007800e4b79f0053
:1055f000f5b79f00c6b79f00d7b79f0018fd0700fb
:105600006fb29700ffb297004fb39700dfb39700d8
:105610000000e0000e003a000e0037008c00780019
:1056200000032000e4b79f00f5b79f00c6b79f00b6
:10563000d7b79f00b40607006fb29700ffb297007c
:105640004fb39700dfb39700e10f40000100320035
:105650008d06e8008904e900030037000802be0057
:105660000a03be00ffac97000900e000d9ff3c0030
:10567000f9af9f000404be000605be0045003700d8
:105680000e38a30020003a000800be000a01be0048
:1056900080b79f0091b79f00a2b79f00b3b79f004c
:1056a000ffac9700110037003c0090000068a30099
:1056b000070032000d017800010220000c00780084
:1056c000e7fc07000000e00006003a000600370093
:1056d0008c007800000220008b060700e10f4000dc
:1056e000010032008d06e8008904e9000900e000ad
:1056f000edff3c00f9af9f000fb497009fb49700f7
:105700002fb59700bfb597003c009000610167007e
:105710000e18a3000e0032000068a300060032003d
:10572000b10220000200e000010032008180e800a8
:105730000d0178000c003700b00220000200e000ec
:10574000010032000080e8008c0078000d00370076
:105750000200e0000f0032000068a30007003200e2
:105760000d017800010220000c007800bcfc07004d
:105770000000e00006003a00060037008c007800c8
:105780000002200060060700e10f40000100320027
:105790008d06e8000800be000a01be0040080700b0
:1057a0000002be006033b80084b79f0095b79f0029
